:020000040800F2
:1000000030420120B1010008371D00086F180008B8
:10001000351D00084F0300084B21000800000000B8
:10002000000000000000000000000000DD1E0008CD
:100030000104000800000000391D0008E31E00084C
:10004000CB010008CB010008CB010008CB01000860
:10005000CB010008CB010008CB010008CB01000850
:10006000CB010008CB010008CB010008CB01000840
:10007000CB010008CB010008CB010008CB01000830
:10008000CB010008CB010008CB01000800000000F4
:10009000000000000000000000000000CB0100088C
:1000A000CB0100081D200008CB010008CB0100088F
:1000B000CB010008CB010008CB010008CB010008F0
:1000C000CB010008CB010008CB010008CB010008E0
:1000D000CB010008CB010008CB01000800000000A4
:1000E000CB010008CB010008CB0100080000000094
:1000F000000000000000000000000000CB0100082C
:1001000000000000CB010008CB010008CB01000873
:1001100000000000000000000000000000000000DF
:10012000CB010008CB01000851030008CB010008F7
:10013000CB010008000000000000000000000000EB
:10014000000000000000000000000000CB010008DB
:10015000CB010008CB010008CB010008CB0100084F
:10016000CB010008CB0100080000000000000000E7
:10017000000000000000000000000000000000007F
:1001800000000000CB01000800000000000000009B
:10019000CB010008CB010008DFF810D000F09AF87E
:1001A000004800476DE50108AFF3008030420120B0
:1001B0000648804706480047FEE7FEE7FEE7FEE701
:1001C000FEE7FEE7FEE7FEE7FEE7FEE7791F000831
:1001D000990100082DE9F05F0546002092469B46F4
:1001E00088460646814640241BE02846414647464D
:1001F000224600F05FF853465A46C01A914110D388
:1002000011461846224600F046F82D1A67EB010801
:100210004F4622460120002100F03DF817EB00096F
:100220004E41201EA4F10104DFDC484631462A4637
:100230004346BDE8F09FD2B201E000F8012B491E11
:10024000FBD270470022F6E710B513460A46044673
:100250001946FFF7F0FF204610BD421C10F8011BA5
:100260000029FBD1801A704710B5002200E0521C13
:10027000835C8C5CA34201D1002BF8D1D8B2E1B2EF
:10028000401A10BD034611F8012B00F8012B002A7B
:10029000F9D118467047202A04DB203A00FA02F10F
:1002A000002070479140C2F1200320FA03F3194364
:1002B00090407047202A04DB203A21FA02F0002106
:1002C000704721FA02F3D040C2F120029140084366
:1002D00019467047064C074D06E0E06840F0010300
:1002E00094E8070098471034AC42F6D3FFF758FF64
:1002F000F04F04081050040870B58C1810F8015B1A
:1003000015F0070301D110F8013B2A1106D110F8AE
:10031000012B03E010F8016B01F8016B5B1EF9D1B2
:100320002B0705D40023521E0DD401F8013BFAE738
:1003300010F8013BCB1A921C03E013F8015B01F8A3
:10034000015B521EF9D5A142D8D3002070BDFEE753
:10035000014800F0F5B800003C03002001681823B4
:10036000CAB2103AB2FBF3F2054B6FF30901032A4C
:100370009B5CC36500D9091D816508467047000074
:100380004636020810B5014600208B698A6A4FF094
:10039000C07453B1B3F5005F15D072B1012A0CD00F
:1003A000022A0AD0032A09D104E01AB1012A06D090
:1003B000022A03D1C96AC90100D5012010BDC96A4A
:1003C000A142FAD010BD002AF7D0012AF2D0022AA9
:1003D000F3D0032AF3D010BD30B50468256825F4A6
:1003E00080252560046863608368402B036803D020
:1003F00099600068C26030BD9A600068C16030BD1D
:100400007047F0B50DF1140E9EE8F0100160828087
:100410008360848105618682C775C0F818C0C0F802
:100420001CC0F0BD2DE9F0410546C069002810D17F
:10043000A98A286900F082F8374CA8754FF00108A6
:100440002178014303D00026012804D004E085F878
:100450001780BDE8F081FF202070EE75A98828681C
:1004600000F06CF8A8710746A989A86800F066F842
:100470000221A873012F04D1012802D16278012A38
:1004800005D06770A0702279012A05D017E01422E8
:10049000E27084F8048001E0E27882B1627982B986
:1004A00062783A4303D0A278024303D004E084F890
:1004B000058006E0617104E06770A07003E0627976
:1004C0000AB147B138B1E07808B1401EE070207938
:1004D000012817D019E062783A4302D16279022AE2
:1004E0000BD0A1780143E7D161790129E4D12671CC
:1004F000E67066710320E875ABE72671E6706671F9
:10050000E975A6E7E07800B9267105F11C00BDE8A1
:10051000F041022101F0E3BC1C0000200278142A03
:1005200008D239B100EB820251600178491C017098
:10053000012070470020704772B6FEE700F074BAE1
:100540002DE9F84304464FF00009CDF800906348C8
:100550004FF41651A56D0068B0FBF1F72E6894F8C2
:100560005C10082000FA01F131420FD021680A68BE
:1005700052070BD50A6822F004020A6094F85C1056
:100580008840A860606D40F00100606594F85C10E0
:100590004FF0010808FA01F0304208D0216849699B
:1005A000090604D5A860606D40F00200606594F80B
:1005B0005C1004208840304208D02168096889070F
:1005C00004D5A860606D40F00400606594F85C108C
:1005D00010208840304218D021680968090714D5D6
:1005E000A86020680168490304D50068000308D5A5
:1005F000A16C07E00168C90503D4016821F0080176
:100600000160216C09B12046884794F85C102020D5
:100610008840304231D021680968C9062DD5A860CC
:1006200094F8350005282068016806D0490347D5AD
:10063000006800031DD4616C1CE021F0160101600C
:100640002068416921F080014161206C08B9A06CEB
:1006500020B12068016821F00801016094F85C1065
:100660003F208840A86084F8358084F83490216D5C
:100670001FE0E16B09B120468847606D00282BD050
:10068000606DC00714D0052084F83500206801682B
:1006900021F0010101600098401C0090B84203D88D
:1006A00020680068C007F6D184F8358084F834905B
:1006B000E16C002910D001B02046BDE8F0430847A6
:1006C0000168C905D5D4016821F01001016084F8E2
:1006D000358084F83490CCE7BDE8F8830C00002026
:1006E0002DE9F041044600F0A9F906465CB102206C
:1006F00084F83500002584F834502068016821F022
:10070000010101600DE00120BDE8F08100F096F9E3
:10071000801B052805D920206065032084F835005A
:10072000F2E720680068C007F0D12268116820480D
:100730000140D4E901031843D4E903363343184395
:1007400063691843A3691843E3691843236A18438C
:100750000843616A042903D1D4E90B131943084300
:10076000106020684069666A20F0070130460E4339
:10077000012704280CD1A06A0643E06A40B1204654
:10078000FFF700FE20B14020606584F83570BAE7BD
:10079000206846612046FFF7E1FD94F85C203F2188
:1007A00091408160656584F835700020ACE70000F9
:1007B0003F8010F02DE9F0410446866D90F834003A
:1007C000002501280DD0012084F8340094F83570FC
:1007D0000020012F07D084F8340002252846BDE808
:1007E000F0810220FBE7022784F83570606520461F
:1007F000FFF7F2FD94F85C103F208840B06020685D
:10080000016841F016010160206C20B12068016888
:1008100041F0080101602068016841F001010160B8
:10082000DCE7000070B5044600F008F90546601CDE
:1008300002D004480078044400F000F9401BA042B4
:10084000FAD370BD000000202DE9F84FDFF8B8A101
:10085000002201240AF1040B03254FF00F090BF1CC
:10086000040E00BF0B6804FA02F63340B34273D1A2
:100870000F7907F00307012F01D0022F16D18768E7
:100880004FEA420805FA08FC27EA0C07D1F80CC029
:100890000CFA08FC4CEA070CC0F808C04768B743DC
:1008A0000E79C6F3001696403E4346600E79F64335
:1008B000B6070DD0C768560005FA06FC27EA0C07F4
:1008C000D1F808C00CFA06FC4CEA070CC0F80CC0C2
:1008D0000E7906F00306022E10D1D60800EB86082A
:1008E000D8F8206057074FEAD76C09FA0CF7BE43D7
:1008F0000F6907FA0CF73743C8F8207006684FEA0B
:10090000420C05FA0CF7BE430F7907F0030707FA0C
:100910000CF7374307604E6816F4403F6DD03B4EEE
:10092000376847F480473760366822F0030706F4DB
:1009300080460096364E07EB060CDCF808689707F1
:100940003F0F09FA07F826EA0806DFF8C880404595
:1009500003D14FF000081EE04FE0DFF8BC804045B7
:1009600002D14FF0010816E0DFF8B080404502D117
:100970004FF002080FE0DFF8A880404502D14FF0A9
:10098000030808E0DFF89C80404502D14FF00408DE
:1009900001E04FF0070808FA07F848EA0608CCF823
:1009A0000888DAF800605746D1F804C09E435FEA31
:1009B000CC3C00D51E433E60DBF800605F46D1F8BA
:1009C00004C09E435FEA8C3C00D51E433E60DEF8C7
:1009D00000607746D1F804C09E435FEACC2C00D576
:1009E0001E433E60084F0C373E68D1F804C09E435A
:1009F0005FEA8C2C00D51E433E60521C102AFFF487
:100A000031AFBDE8F88F0000003C0140443802409F
:100A10000030014000000240000402400008024093
:100A2000000C0240001002400069084000D0012084
:100A300070470AB1816170470904FBE7014880688B
:100A400070470000000000200248816802781144CD
:100A500081607047000000200B4810B5016841F428
:100A600000710160016841F480610160016841F436
:100A700080710160032000F06FF8002000F006F89C
:100A800000F024F8002010BD003C024070B50D4D70
:100A900004464FF47A712878B1FBF0F00A490968EE
:100AA000B1FBF0F000F0D5FC48B9102C07D20022C1
:100AB0002146501E00F030F800206C6070BD01200F
:100AC00070BD0000000000200C0000200A4808B59E
:100AD000016841F480410160006800F480400090AA
:100AE0000548001F016841F080510160006800F076
:100AF0008050009008BD000044380240002809DB07
:100B000000F01F02012191404009800000F1E02027
:100B1000C0F8001170470000F0B40E4B1B680C4683
:100B2000C3F30223C3F10705042D00D90425191DC1
:100B3000072901D2002300E0DB1E012606FA05F199
:100B4000491E214099409E40761E16403143F0BC1C
:100B500001F0FCBB0CED00E0064900F0070208685C
:100B60004FF6FF03184040EA0220034A1043086092
:100B7000704700000CED00E00000FA052DE9F04799
:100B80000E46050065D0DFF81481D8F80000F7B2F2
:100B900000F00700B04207D288F80070D8F80000D3
:100BA00000F00700B04254D128683D4C810712D5AF
:100BB000400703D5206840F4E05020602878000703
:100BC00003D5206840F4604020602068A96820F0C8
:100BD000F000084320602878C0072DD030496868AD
:100BE0000839012812D0022813D0032811D009682F
:100BF000890700292DDA216821F0030101432160D2
:100C0000FFF71CFF814641F2883A0EE0096889032C
:100C1000EFE709688901ECE7FFF710FFA0EB090196
:100C2000514502D90320BDE8F0872068696800F0CB
:100C30000C00B0EB810FEFD1D8F80010404601F066
:100C40000701B14207D90770006800F00700B04201
:100C500001D00120E7E72878400705D52068E9683A
:100C600020F4E050084320602878000706D520686B
:100C7000296920F4604040EAC100206000F018F8C3
:100C80002168084AC1F30311515CC8400649086055
:100C900006480068FFF7FAFE0020C4E7003C024067
:100CA000083802404E3602080C00002004000020E4
:100CB000154810B5006810F00C02144813D0144900
:100CC000042A0FD0082A0ED10F4C241F2268236853
:100CD00002F03F025B0207D52068C0F38810A0FB3A
:100CE000010106E0084610BD2168C1F38811A1FB8F
:100CF00000010023FFF76EFA2168C1F30141491C8E
:100D00004900B0FBF1F010BD083802400024F400A7
:100D100040787D012DE9F84F04006ED02078DFF88F
:100D20004C93C007A9F104054AD009F104000168F9
:100D3000C1F38101012908D00068C0F381000228B5
:100D40000AD1D9F80000400206D52868800337D5BB
:100D500060680028E1D033E06068B0F5803F10D0D3
:100D6000B0F5A02F286810D020F4803028602868C3
:100D700020F4802028606068A8B1FFF75FFE064677
:100D80000DE0286840F48030F4E740F480202860CB
:100D9000F7E700BFFFF752FE801B642873D828686E
:100DA0008003F7D50CE0FFF749FE064605E000BFDB
:100DB000FFF744FE801B6428F0D828688003F7D42E
:100DC0002078DFF8AC8280074FF0000A3ED5A748B4
:100DD000001D016811F00C0F08D00068C0F38100FD
:100DE00002280BD1D9F80000400207D428688007F8
:100DF00016D5E068012800D112E033E1E068B8B10F
:100E00000120C8F80000FFF719FE064605E000BF04
:100E1000FFF714FE801B0228C0D828688007F7D58A
:100E20002868216920F0F80040EAC10028600DE040
:100E3000C8F800A0FFF702FE064604E0FFF7FEFD3B
:100E4000801B02281FD828688007F7D42078000765
:100E500022D5864F87486169703771B101210160E1
:100E6000FFF7ECFD064604E0FFF7E8FD801B0228D3
:100E700009D838688007F7D50EE0C0F800A0FFF762
:100E8000DDFD064605E082E0FFF7D8FD801B022865
:100E90007DD838688007F7D42078400768D5DFF818
:100EA000CCB100270BF13C0BDBF80000C0000BD4E9
:100EB000DBF8001041F08051CBF80010DBF80000A7
:100EC000012700F0805000906B4E3068C00510D4B0
:100ED000306840F480703060FFF7B0FD009005E0AE
:100EE000FFF7ACFD0099401A022850D83068C005C1
:100EF000F6D55E4EA0686C3601280FD00528306804
:100F000010D020F001003060306820F00400306024
:100F1000A068B8B1FFF792FD00900FE0306840F094
:100F20000100F4E740F004003060F7E7FFF786FDCA
:100F30000099411A41F28830814266D830688007B2
:100F4000F4D50EE0FFF77AFD009007E0FFF776FD9D
:100F50000099411A41F28830814256D830688007A2
:100F6000F4D42FB1DBF8001021F08051CBF8001041
:100F7000A069C8B33D49091D0968C1F3810102296F
:100F80004AD00228504607D0C8F8600000E03CE094
:100F9000FFF754FD04463BE04746C8F86000FFF702
:100FA0004DFD064605E000BFFFF748FD801B022807
:100FB0002BD828688001F7D4D4E907010843A16A37
:100FC0002E4A490802EB0141626A41EA8211084354
:100FD00094F82C1040EA0161C9F80010012038662D
:100FE000FFF72CFD044606E03EE000BFFFF726FDBC
:100FF000001B022809D828688001F7D534E000BF1B
:10100000FFF71CFD001B022802D90320BDE8F88F62
:1010100028688001F4D427E00128F7D0D9F800002F
:10102000E26900F4800191421CD1226A00F03F0184
:10103000914217D147F6C071626A0140B1EB821F3D
:1010400010D1A26A4FF0FF3300F4403103EB52029B
:10105000B1EB024F06D194F82C1000F07060B0EBA9
:10106000016F01D00120D1E70020CFE70438024012
:1010700000004742800E4742007000400000FFFF22
:10108000704770B5040009D0606A002540B1256141
:101090006561A56294F8510040B10CE0012070BD7B
:1010A0006068B0F5827FF4D0E561F2E784F85050D3
:1010B000204600F045F8022084F8510020680168BD
:1010C00021F040010160A088218900F4827001F4C0
:1010D00004410843A18901F400610843217C01F027
:1010E00002010843217D01F001010843218B01F435
:1010F00000710843217F01F03801084394F8201063
:1011000001F080010843218D01F40051084321685A
:101110000860A069042101EA104094F8241001F04D
:1011200010010843216848602068C16921F400610A
:10113000C1616565012084F85100002070BD000088
:1011400070B586B0064614216846FFF77BF8204943
:101150003068884239D11F480025016841F4805128
:101160000160006800F4805005901A481438016846
:1011700041F0010101600068694600F0010005903E
:10118000E02000900220CDE9010503200390052016
:1011900004901148FFF758FB114C104820604FF0A5
:1011A000806060604020C4E902050001C4E90405D4
:1011B0008001A561C4E9075020466562FFF790FAF7
:1011C00008B1FFF7B9F9B464A66306B070BD0000BA
:1011D00000300140443802400000024040640240B8
:1011E0003C0300202DE9F84F044690F850000027FA
:1011F0001D461646894601280DD04FF0010B84F894
:1012000050B0FFF71BFC804694F85100BA46012805
:1012100004D0022793E00220BDE8F88FB9F1000F57
:1012200073D0002E71D0032084F85100C4F854A06C
:10123000C4F83090A686E686C4F838A0A4F83CA08E
:10124000A4F83EA0C4F844A0C4F840A0A068B0F53B
:10125000004F09D12068016821F040010160206839
:10126000016841F48041016020680168490603D4A7
:10127000016841F040010160E068B0F5006F60680E
:1012800003D030B3012E24D041E008B1012E1CD18F
:10129000206B21680088C86006E0206881688907A3
:1012A00009D5216B0988C160206B801C2063E08E0A
:1012B000401EE08609E0FFF7C1FBA0EB0800A84252
:1012C00002D3681C01D031E07DB3E08E0028E4D168
:1012D00020E0206B21680078087306E020688168B0
:1012E000890709D5216B09780173206B401C2063A5
:1012F000E08E401EE0860AE0FFF7A0FBA0EB0800AE
:10130000A84203D3681C02D010E017E06DB1E08E54
:101310000028E3D142462946204600F057FD08B197
:1013200020206065A06818B106E0FFE7032706E00B
:101330002068C16880680090606D00B1012784F862
:1013400051B084F850A0384666E700002DE9F0411E
:10135000044690F850000026012809D0012784F89F
:10136000507094F851000025012804D002264EE068
:101370000220BDE8F08189B182B1032084F85100D8
:1013800065652163A286E286A56365642564A587F9
:10139000E587A068B0F5004F02D00BE0012636E0EB
:1013A0002068016821F0400101602068016841F473
:1013B00080410160A16C18480864A16C1748C8639B
:1013C000A16C1748C864A06C0565E38E2268216B88
:1013D0000C32A06CFFF7EEF938B1606D40F01000F0
:1013E0006065012684F8517011E0206801684906A3
:1013F00003D4016841F0400101602068416841F078
:10140000200141602068416841F00201416084F898
:1014100050503046ADE700005D1D0008671D000814
:101420003B1D0008074910B588420AD106480068EC
:1014300010F0D8FE0122BDE8104010210348FFF74C
:10144000F8BA10BDE4020020E401002000000240D0
:10145000704710B5401EB0F1807F01D3012010BD50
:101460004FF0E02460610F21601700F06FFF002053
:10147000A06107202061002010BD70477047000068
:1014800070B590F83C20012A2CD0012480F83C4013
:10149000022280F83D2003685A689D6822F0700699
:1014A0000A6832435A60104B02689A420ED0B2F179
:1014B000804F0BD00D4B9A4208D00D4B9A4205D06D
:1014C0000C4B9A4202D00C4B9A4204D1496825F049
:1014D00080031943916080F83D40002180F83C1062
:1014E000084670BD022070BD0000014000040040AD
:1014F00000080040000C00400040014010B504000E
:1015000003D094F83D0010B107E0012010BD002089
:1015100084F83C00204600F01FF8022084F83D00CB
:10152000211D206800F080FD012084F8460084F829
:101530003E0084F83F0084F8400084F8410084F8BD
:10154000420084F8430084F8440084F8450084F89D
:101550003D00002010BD000008B500680B4988421E
:1015600012D10B48016841F00101016000680022BE
:1015700000F00100009011461920FFF7CDFABDE8F8
:1015800008401920FFF7BABA08BD0000000001406A
:101590004438024090F83D10012901D001207047E5
:1015A000022180F83D100168CA6842F00102CA6059
:1015B00000680E4988420ED0B0F1804F0BD00C4924
:1015C000884208D00B49884205D00B49884202D096
:1015D0000A49884204D1816801F00701062903D035
:1015E000016841F0010101600020704700000140E6
:1015F0000004004000080040000C00400040014092
:1016000070B5044690F83C000025012817D001264B
:1016100084F83C60022084F83D002068826822F053
:10162000770222F47F4282600868502838D00DDCAF
:1016300020284FD005DC90B3102811D14AE00220B9
:1016400070BD302846D040280AD13BE060282FD01A
:1016500070280DD0B0F5805F03D0B0F5005F12D0D8
:10166000012584F83D60002084F83C00284670BDC8
:10167000CB68D1E90121206800F022FD2068816853
:1016800041F0770109E0CB68D1E90121206800F041
:1016900017FD2068816841F480418160E1E719E02D
:1016A000CA684968206800F01DFD5021206806E0E6
:1016B000CA684968206800F026FD6021206800F0B3
:1016C00009FDCEE7CA684968206800F00BFD40219B
:1016D0002068F4E7226801461046F0E7704770B5CD
:1016E0000446006801694FF00005C943890715D415
:1016F000C168C943890711D4E91E0161012020771F
:10170000206880698007204602D0FFF7E7FF04E0E9
:1017100000F098F8204600F096F8257720680169D7
:10172000C943490717D4C168C943490713D46FF0A7
:1017300004010161022020772068806910F4407F55
:10174000204602D0FFF7CAFF04E000F07BF82046F5
:1017500000F079F8257720680169C943090716D494
:10176000C168C943090712D46FF008010161042060
:1017700020772068C0698007204602D0FFF7AEFFBF
:1017800004E000F05FF8204600F05DF8257720685F
:101790000169C943C90617D4C168C943C90613D42E
:1017A0006FF010010161082020772068C06910F4F3
:1017B000407F204602D0FFF791FF04E000F042F89E
:1017C000204600F040F8257720680169C943C90721
:1017D00008D1C168C943C90704D1891E01612046E7
:1017E00000F032F820680169C943090609D4C168CC
:1017F000C943090605D46FF0800101612046FFF757
:101800003CFE20680169C943490609D4C168C9433F
:10181000490605D46FF040010161204600F026F82A
:1018200020680169C94389060BD4C168C943890688
:1018300007D46FF0200101612046BDE87040FFF73A
:101840001DBE70BD70477047064910B5884207D16C
:10185000054800F06AFCBDE8104001201CF08CB97E
:1018600010BD00009C030020E40300207047FEE749
:1018700010B5029C0160828083718460C46010BDD9
:1018800010B50446C068002810D1A07960B10022CC
:10189000A271A1882068FFF7CCF804F10C00A168C0
:1018A000BDE8104000F01BBB0122F1E710BD2DE99F
:1018B000F04104461D4616460F462A2000F0F0F877
:1018C000204600F0E3F8304600F0E0F82B2000F06E
:1018D000E7F8384600F0DAF8284600F0D7F8BDE817
:1018E000F0412C2000F0DCB810B5664C002220211D
:1018F0002046FFF79EF86420FEF794FF0122202186
:101900002046FFF796F86420FEF78CFF012211466F
:101910005D48FFF78EF86420FEF784FF112000F089
:10192000BFF87820FEF77EFF362000F0B9F80020DF
:1019300000F0CAF83A2000F0B3F8052000F0C4F82F
:10194000B22000F0ADF80C2000F0BEF80C2000F042
:10195000BBF8002000F0B8F8332000F0B5F83320D1
:1019600000F0B2F8B72000F09BF8352000F0ACF89A
:10197000BB2000F095F8322000F0A6F8C22000F05D
:101980008FF8012000F0A0F8C32000F089F815209E
:1019900000F09AF8C42000F083F8202000F094F8BA
:1019A000C62000F07DF80F2000F08EF8D02000F067
:1019B00077F8A42000F088F8A12000F085F8E02056
:1019C00000F06EF8D02000F07FF8082000F07CF8DE
:1019D0000E2000F079F8092000F076F8092000F0D8
:1019E00073F8052000F070F8312000F06DF8332016
:1019F00000F06AF8482000F067F8172000F064F85B
:101A0000142000F061F8152000F05EF8312000F09D
:101A10005BF8342000F058F8E12000F041F8D020C5
:101A200000F052F8082000F04FF80E2000F04CF8BB
:101A3000092000F049F8092000F046F8152000F0D0
:101A400043F8312000F040F8332000F03DF8482002
:101A500000F03AF8172000F037F8142000F034F8BE
:101A6000152000F031F8312000F02EF8342000F07D
:101A70002BF8212000F014F8BDE81040292000F0D8
:101A80000FB80000000802400004024010B50446F0
:101A9000000A00F019F8E0B2BDE8104000F014B8F8
:101AA00070B5084C0546002202212046FEF7C1FF12
:101AB000284600F009F82046BDE8704001220221C6
:101AC000FEF7B7BF0004024031B5094C00221021D7
:101AD0002046FEF7AEFF4FF4FA730122694605482F
:101AE000FFF780FB012210212046FEF7A2FF38BD40
:101AF00000000240E402002070B50D4604460022BA
:101B000010210748FEF795FF012202210548FEF744
:101B100090FFAAB22146BDE870400348FFF716BC0B
:101B20000000024000040240E402002010B5002240
:101B300003781DE000EB820464688C4216D100EB50
:101B400082030021596003785B1E037006E000BF2A
:101B500000EB8203521C9C68D2B25C600378934213
:101B6000F6D800EB82004160012010BD521CD2B2B9
:101B70009342DFD8002010BD094808B5016841F440
:101B8000800101600068002200F48000009011468E
:101B90003A20FEF7C1FFBDE808403A20FEF7AEBF8D
:101BA000303802402DE9F04786B014216846FEF730
:101BB00049FB2F480024016841F080010160016861
:101BC00001F080010591016841F0040101600168A4
:101BD00001F004010591016841F001010160016813
:101BE00001F001010591016841F002010160006806
:101BF000DFF8808000F002000590002218214046A6
:101C0000FEF717FFDFF87090002220214846FEF70C
:101C100010FFDFF868A046F203070022394650465D
:101C2000FEF707FF0E2001258DE831006946484682
:101C3000FEF70AFE18200326CDE90005CDE902468D
:101C400069464046FEF700FE2020CDE90005CDE9BB
:101C5000024669464846FEF7F7FD00970396CDE930
:101C6000015469465046FEF7EFFD06B0BDE8F08727
:101C700030380240000002400008024000040240E8
:101C8000104810B50E4901604FF482714160002187
:101C900002228160C0E90312012242615202C0E9BE
:101CA00006210162416281620A21C162FFF7E9F9FE
:101CB000002803D0BDE81040FEF73EBC10BD000078
:101CC00000300140E402002010B586B0002418481E
:101CD00000940194029403940494144905940160BF
:101CE0006321C0E9011440F2E731C0E90314802107
:101CF000C0E90541FFF702FC08B1FEF71DFC4FF4F7
:101D00008050009069460A48FFF77AFC08B1FEF758
:101D100013FC049404A906480594FFF7B1FB0028BE
:101D200001D0FEF709FC06B010BD00000000014024
:101D30009C030020FEE7FEE7704710B5806B01684A
:101D40004A6822F003024A60416D41F0100141658A
:101D5000012180F85110FFF793F910BD10B5806B89
:101D6000FFF776FB10BD38B50546846BFEF766FEBF
:101D7000024628680068C00523D42068416821F025
:101D8000200141602068416821F002014160642126
:101D9000204600F01BF818B1606D40F0200060652F
:101DA000A068002118B92068C26880680090E186A8
:101DB000012084F85100606D18B12046FFF760F9EA
:101DC00038BD2046FFF72EFB38BD000038B504466D
:101DD0001248134B0068B0FBF3F04FF47A7358438A
:101DE00000906068B0F5827F0DD10B460092002212
:101DF0008021204600F016F870B1606D40F02000A0
:101E00006065032038BD009830B1401E0090206806
:101E10008068C0430006F6D5002038BD0C000020C5
:101E200000366E012DE9F8431E4691468846044669
:101E3000089DFEF703FE401B351AFEF7FFFD07461F
:101E400025480068C0F3CB30684338E0701C37D0B9
:101E5000FEF7F4FDC01BA84203D215B1009860B391
:101E60002CE02068416821F0E00141606068B0F535
:101E7000827F0BD1A068B0F5004F02D0B0F5806F23
:101E800004D12068016821F040010160A06AB0F52A
:101E9000005F09D12068016821F4005101602068C9
:101EA000016841F400510160012084F851000020D4
:101EB00084F850000320BDE8F8830025401E009000
:101EC0002068816838EA010004D000214945BDD16D
:101ED0000020F0E70121F9E70C00002070470160C5
:101EE0007047FEF7B1BD000030B593B030216846B1
:101EF000FEF7A8F914210CA8FEF7A4F91C48002449
:101F0000016841F080510160006800F0805011903C
:101F10001848016841F4404101600068022500F45E
:101F200040401190012003901020049000950695E8
:101F30000820CDE907406420CDE9090504200B9075
:101F40006846FEF7E7FE08B172B6FEE70F20CDE95E
:101F50000C054FF48050CDE90E4003210CA81094DD
:101F6000FEF70CFE002801D072B6FEE713B030BDBC
:101F700040380240007000400248016841F470019E
:101F80000160704788ED00E000B585B0C820009082
:101F900000234FF4005214491448FFF769FC134919
:101FA00013480C31FEF7BAFA02200022CDE90320D3
:101FB0000823104904208DE80B000B4602220E482E
:101FC000FEF71FFA0C490A481C31FEF7A7FA0B4925
:101FD0000748FEF7A3FA0A48FFF7DCFA05B05DF8F8
:101FE00004EB00F0B3B80000000402403804002005
:101FF000E4030020000802404804002014000020F0
:102000009C03002010B50448FFF73AFC1CF040FA8E
:10201000BDE8104000F066B9380400200148FFF721
:102020005EBB00009C030020F0B502681D4B1E4CF7
:102030009F031E4D1E4E984207D0B84205D0A042C5
:1020400003D0A84201D0B04204D122F0700C4A68FB
:1020500042EA0C02984210D0B8420ED0A0420CD0F6
:10206000A8420AD0B04208D0124CA04205D0124C6F
:10207000A04202D0114CA04203D122F44074CA689D
:1020800022434C6922F08002224302608A68C262C5
:102090000A688262984201D10969016301214161A4
:1020A000F0BD0000000001400004004000080040B6
:1020B000000C004000400140004401400048014045
:1020C00010B5846842EA032224F47F440A43224381
:1020D000826010BD826822F070020A4342F007015C
:1020E0008160704710B5036A046A24F00104046239
:1020F000846924F0F00444EA021423F00A020A433B
:102100008461026210BD10B5036A23F010030362FC
:102110008369046A23F4704343EA023224F0A00383
:1021200043EA01118261016210BD10B503780021FC
:1021300008E000EB8102546822680AB1521E226056
:10214000491CC9B29942F4D310BDFEE72DE9FF5FE7
:102150005F4800275DA1006815F060F85D4C002223
:10216000114620680FF0E6F85B4D00221146286802
:102170000FF0E0F8594E0022114630680FF0DAF8FF
:10218000902120680FF001F9902128680FF0FDF8E8
:10219000902130680FF0F9F84FF4003842460021E2
:1021A000206819F080F942460021286819F07BF96F
:1021B00042460021306819F076F928230A220021CE
:1021C00020680FF01DF900226423114628680FF0E3
:1021D00017F900224FF4FA73114630680FF010F926
:1021E000012120680FF02EF9012128680FF02AF94B
:1021F000012130680FF026F9002019F033FA01466A
:10220000002220680EF010FE354905220623886062
:102210004FF0280B0121CDE90032CDE9021B134616
:102220000A22002120680FF067F84FF0070A032305
:102230004FF01E08B946CDE9003ACDE902980523D2
:102240000A22022120680FF057F8052206230121F7
:10225000CDE90032CDE9021B13460A22002128688D
:102260000FF04AF80323CDE9003ACDE9029805239F
:102270000A22022128680FF03FF8052206230121D7
:10228000CDE90032CDE9021B13460A220021306855
:102290000FF032F80323CDE9003ACDE90298052387
:1022A0000A22022130680FF027F80D4D3A462068C7
:1022B000A9680FF04EF87F1CFFB2322FF6D32068CA
:1022C00004B0BDE8F05F0FF015B80000EF898000A2
:1022D0001002002038020020640200207802002052
:1022E0001000002010B5154C6068002824D120880B
:1022F000642801D2401C208081B21148012200686C
:102300000DF0AFFF0D480A21001DFFF7E8FD208802
:10231000642811D10B4800234FF4FA720921006898
:1023200001F05BFE20880549401C2080BDE810407C
:10233000091D0548FFF7FABB10BD00001000002082
:10234000EC010020F4010020E40300200907090E3D
:10235000002804DB00F1E02080F80014704700F052
:102360000F0000F1E02080F8141D704702E008C85B
:10237000121F08C1002AFAD170477047002001E0FF
:1023800001C1121F002AFBD1704770B50446002519
:102390006FF02F0608E02068411C2160007805EBF3
:1023A000850106EB410145182068007800F004F82B
:1023B0000028F0D1284670BD3038092801D8012006
:1023C000704700207047000010B54421074801F015
:1023D0004BF900220F2106481BF0D8FB054CA060EA
:1023E00002F06EF80020207010BD0000E80500200B
:1023F000794500086401002070B5B1F90030B2F9E8
:102400000040A34200DC23460380B1F90250B2F938
:102410000240A54200DD2C464480B1F90460B2F9C7
:102420000450AE4200DA35468580B1F90610B2F9A3
:102430000620914200DB1146C1800120AB4201DC45
:102440008C4200DD002070BDF8B50D460446B0F9A1
:102450000000B1F900101646884247DBB4F90210BB
:10246000B5F90220914241DBB4F90410B5F904201A
:1024700091423BDCB4F90610B5F90620914235DCF7
:1024800096B3ADF800006088ADF8020032466946A8
:10249000284600F09AF8002827D0A088ADF8000060
:1024A0006088ADF8020032466946284600F08DF893
:1024B00000281AD02088ADF80000E088ADF80200AE
:1024C00032466946284600F080F800280DD0A088E2
:1024D000ADF80000E088ADF80200324669462846B3
:1024E00000F073F8002800D00120F8BD0020F8BDEE
:1024F000B0F90020B1F904309A4213DCB0F904209D
:10250000B1F900309A420DDBB0F90220B1F9063082
:102510009A4207DCB0F90600B1F90210884201DBEB
:102520000120704700207047F8B50D460446B0F909
:102530000400B1F900101646884244DBB4F90600E5
:10254000B5F9021088423EDBB4F90000B5F9041079
:10255000884238DCB4F90210B5F90620914232DC29
:1025600086B3ADF800006088ADF8020032466946D7
:10257000284600F02AF818BBA088ADF80000608853
:10258000ADF8020032466946284600F01EF8B8B998
:102590002088ADF80000E088ADF8020032466946B8
:1025A000284600F012F858B9A088ADF80000E0887D
:1025B000ADF8020032466946284600F006F808B138
:1025C0000020F8BDFFE70120FBE72DE9FC411446A0
:1025D0000E46B1F90020B0F9001005468A423ADBF8
:1025E000B5F90400824236DCB6F90270B5F9022072
:1025F000974230DBB5F906309F422CDC002C75DDAC
:10260000401A9A1A401C521C00B212B200EBD07051
:1026100002EBD27240105210904200DB104684420E
:1026200000DD0446ADF80010288800222044ADF8F3
:1026300004006888ADF80200688831462044ADF88F
:1026400006006846FFF7C1FF40B1BDF80400204412
:10265000ADF804003FE00020BDE8FC81E8880022DE
:10266000001BADF80200E888ADF806003146684668
:10267000FFF7ABFF28B1BDF804002044ADF804001B
:1026800011E0A8880022001BADF80000A888ADF872
:10269000040031466846FFF798FF50B1BDF80000CE
:1026A000001BADF80000BDF80200001BADF80200F1
:1026B00016E06888ADF80200688800222044ADF872
:1026C000060031466846FFF780FF70B1BDF8000094
:1026D000001BADF80000BDF806002044ADF8060070
:1026E0003146684618F0DEFFB6E7FFE70120B3E7A2
:1026F00010B5B1F90040B2F900309C4200DA23462F
:102700000380B1F90240B2F902309C4200DA23465C
:102710004380B1F90440B2F904309C4200DD234605
:102720008380B1F90610B2F90620914200DC11460F
:10273000C18010BD2DE9FF4F87B01D46DDE914763D
:10274000DDF858908B46022E45D3002F43D001F080
:10275000E3F980460FF060FD00F11004D0F808A006
:10276000D8F80000416A01B188475A4604A8079981
:10277000FFF742FE00282ED06088404202B2208837
:10278000404201B204A80DF0DBFBBDB1D8F8000057
:10279000007A400712D4BDF81400BDF81010401A9A
:1027A000401C01B2002007E02A5C802A01D9FF22E8
:1027B00000E000222A54401C8842F5DBD8F80000D3
:1027C000406958B1CDE90065029704AA51462046F8
:1027D000099B09F049FE0BB0BDE8F08FB9F1000F7D
:1027E0000AD001A8009680E8A00204AA514620461B
:1027F000099B09F015FCEEE7CDE90065029704AAF4
:1028000051462046099B09F0A7FCE4E72DE9FF4F5C
:1028100087B01D46DDE91476DDF858A09146022EFA
:1028200054D3002F52D0014605A8089AFFF7E4FDC3
:1028300000284BD001F070F980460FF0EDFC00F15C
:102840001004D0F808B0D8F80000416A01B18847F8
:10285000BDF814002188401A01B2ADF81410BDF87B
:1028600016006288801AADF81600BDF8180022889C
:10287000801A00B2ADF81800BDF81A206388D21A89
:10288000ADF81A209DB1D8F80020127A52070ED464
:10289000401A401C01B2002007E02A5C802A01D9BE
:1028A000FF2200E000222A54401C8842F5DBD8F8C1
:1028B0000000406968B1CDF800900397CDE901654B
:1028C00005AA59462046089B1CF004F90BB0BDE848
:1028D000F08FBAF1000F0BD002A805AA80E8A0047F
:1028E000CDE9009659462046089B1BF0A7FEEDE770
:1028F000CDF800900397CDE9016505AA5946204619
:10290000089B1BF04BFFE1E7F8B506461BF02AF9E0
:102910000025274C07460095F068606030461BF0A4
:102920000BFA6068006918F051FE6068406908B1F0
:1029300018F04CFE6068C06918F048FE6068006AD4
:1029400018F044FE6068016979B319F0C7F819F00E
:1029500043F86068B0F85411F9B10068007AC00714
:1029600001D003F04DFE60684FF48071343014F0F4
:102970009DFF6068202100F59A7014F097FF606851
:10298000A0F8545138461BF0E7F8009060680068E2
:10299000836913B122680099984714F0C9FD00F0CB
:1029A00033F8BDE8F84000F005B8A0F85451F8BD80
:1029B0005000002070B50A4D002400BFC4EBC406CF
:1029C00055F8260008B114F027FE05EB86001C21FF
:1029D00014F06CFF641CE4B2042CEFD370BD000053
:1029E000C406002007490122496807E04B6883427A
:1029F00002D00B68834200D10A7649690029F5D1DB
:102A000070470000240000207047000004210148A6
:102A100000F02ABEDC0500201C21014800F024BE85
:102A2000F40500202DE9FF5F0446DDE90E0613B929
:102A3000B0F5807F7ED0B6F900504FF0FF376D4281
:102A4000454307EB25252DB22580B6F902C0CCF110
:102A5000000C0CFB00FC07EB2C273FB26780B6F99B
:102A600000C0A1EB0C0141434FF0020C0CEB212103
:102A700009B2A180B6F90280A2EB080242430CEB36
:102A8000222000B2E080002B7ED04FF00A0A93FB98
:102A9000FAF5684200EB800003EB400705F10109FD
:102AA00028B21BF085FA00900FFA89F01BF080FA2B
:102AB00083465A3528B21BF07BFA804609F15A004A
:102AC00000B21BF075FA0146009AC7F10A0000FB3C
:102AD00002F300FB08F00BFB073301FB070193FB3C
:102AE000FAF291FBFAF04FEA601AB4F90010B4F967
:102AF00002000AFB01FCCDF80CC05511378805FB1C
:102B000010C207EBA2220FFA82F905FB01F2BB46C5
:102B1000029277880AFB002107EBA1210BB2B4F9DE
:102B20000410BE460AFB01FC05FB10C20BEBA222FF
:102B300016B200E02FE005FB01F7CDE9007CB4F907
:102B40000680DDF80CC00AFB007005FB18C1DDF83B
:102B500004C0009F05FB18C5029A0AFB087C0AFB0B
:102B600008220BEBA1210EEBAC270EEBA02009B243
:102B70000EEBA2220BEBA5250FFA87FC00B212B2D6
:102B80002DB24F46494500E00EE000DA0F46B5424F
:102B900016DAA84615E000202080491E6080A1803A
:102BA000521EE280BDE8FF9F32882A44228072884C
:102BB0003A44628032881144A180718808444FE011
:102BC000B046474504DA4F46494506DA0F4604E069
:102BD000B54201DA2F4600E0374627804F46494587
:102BE00000DD0F46B54201DDA84600E0B04647458E
:102BF00003DD4D46494505DC01E0B54201DD2946CE
:102C000000E03146A1809A4201DA154600E01D46F7
:102C1000844501DA614600E001468D4205DA9A42B8
:102C200001DA114606E0194604E0844501DA6146FE
:102C300000E0014661809A4201DD114600E019463C
:102C4000844501DD654600E00546A94205DD9A425E
:102C500001DD104604E0184602E0844500DD6046D0
:102C6000E0809FE72DE9FE4F0446D0F800B0B0F9B0
:102C70000800E589081AB4F90A10511AD4E9093292
:102C8000B5F5807F3AD0A589002DA56B05FB00F036
:102C900005FB01F54FEA60104FEA65113CD0266B49
:102CA000E56A06FB00F705FB1177454306FB01507B
:102CB00003EBA72902EBA020B4F904104FEA29275F
:102CC00006128046B9424ADD002F48DBB4F90600FF
:102CD000B04244DD002E42DB94F83400420741D577
:102CE000820704F114001BD401FB067102224D007F
:102CF00092460BEB050114F08FFD21E0266BE56A8F
:102D000006FB00F705FB1177454306FB015003EB7B
:102D1000A70902EBA000CFE703EB00095018CBE7AF
:102D200001FB067101EB41054FF0030A0BEB0501B6
:102D3000022214F071FDE81C584410F8010CA07533
:102D400094F83400C00723D00022FF2110460EF073
:102D500060FE0090BDF80000A18A814218D10020D9
:102D6000BDE8FE8F32B204F118002369CDE90102FB
:102D7000002539B2AA468B4612F012F90090BDF830
:102D80000000A082DDE90102594612F0A1F8D6E761
:102D9000E07C78B1A4F83C90A4F83E80A4F84070A0
:102DA000A4F84260656484F848A02046BDE8FE4F60
:102DB00000F002B80120D3E72DE9F04F044690F867
:102DC0003C10D0F8009090F83E0087B04FF0FF36EE
:102DD000702907DAB4F940203546012A00D50025CC
:102DE00080310DE0902916DDB4F94020B4F90430AB
:102DF0000125521C9A4200DB0025A1F27F114942B5
:102E0000C9B28846702809DAB4F94210012900D500
:102E10000026803010E00025FF21F2E790280DDD2C
:102E2000B4F94210B4F906200126491C914200DB96
:102E30000026A0F27F104042C7B201E00026FF2723
:102E400060690090A07D0590002083468246049032
:102E500094F83400400744D594F84810606C11FB96
:102E600005014944022201A814F0D6FCA08894F878
:102E7000481010FB01F0616C022206FB001149446E
:102E800003A814F0C9FCA18894F8480011FB00F1D4
:102E9000626C06FB012210FB05901118022202A8A9
:102EA00014F0BAFC94F83400800761D594F8480017
:102EB000626C10FB052300EB09010B4413F8013C85
:102EC0000493A38813FB00F306FB0322114411F8BB
:102ED00001BC10FB0500111801EB090010F8010CF2
:102EE00045E0B4F84000B4F94220284401B204F1AE
:102EF00018008146236912F053F80190B4F842009B
:102F0000B4F94010304402B254F8103F484612F071
:102F100047F80390608E2368304402B2208E284424
:102F200001B2484612F03CF8029094F82400103C9C
:102F300080071DD5B4F9422034F8400F284401B26F
:102F4000484611F0C5FF04906088B4F90010304481
:102F500002B2484611F0BCFF83466088304402B29A
:102F600034F84009284401B2484611F0B1FF8246C6
:102F700094F8340042464546800735D5059810FB45
:102F800008F30499C8F1FF0011FB0031C1F30721D8
:102F90001BFB08F61AFB0060C0F3072011FB07F3C8
:102FA000C7F1FF0610FB06331B0AA375022907D8D9
:102FB000022803D8002007B0BDE8F08F002702E008
:102FC000022800D8FF270598022800D8002204987C
:102FD000022800D8FF22BBF1020F00D80025BAF169
:102FE000020F03D8FF2501E0FF20A075EAB1FF2AF8
:102FF00004D0DDE900010EF07DFE0090BDB1FF2D93
:1030000017D0DDE902102A460EF074FE049097B145
:10301000FF2F05D001463A4600980EF06BFE009057
:10302000BDF80000A0820120C5E70198E5E70298FD
:10303000ECE70398EAE7BDF81000F3E72DE9F04765
:103040000446B0F908000A2700026062B4F90A00D9
:103050000002A062B4F90C1091FBF7F5684200EB96
:10306000800001EB4006684205F1010800B21AF049
:103070009FFF8246E84300B21AF09AFF8146C5F1ED
:103080005A0000B21AF094FF0546C8F15A0000B287
:103090001AF08EFFC6F10A0101FB0AF3024609FB92
:1030A0000630694390FBF7F002FB061191FBF7F144
:1030B0004011E06248112063A07C12F017F894F8E8
:1030C000341060F3000184F83410A07C11F0FEFF8E
:1030D00094F8341060F3410184F83410A07C042883
:1030E00024D0052822D0062820D021F0040100BFDA
:1030F00084F8341021682162A16921F0E00160F3B5
:103100000401A08860F39421E08860F35F51A1611D
:10311000E0894FF4001101EB5001B1FBF0F0A06326
:10312000FF20A075208AA082BDE8F08741F004014D
:10313000DEE700002DE9F04115460E460746114C2A
:103140001AF010FD80462B4632463946204612F0D2
:1031500051FB20B10020A062E06950B110E02C21A9
:10316000204614F0A3FB4FF00040A0620020BDE811
:10317000F08140461AF0F0FCE06108B90120E061FE
:103180002046F4E71806002010B51421074800F087
:103190006BFA12F0F5FA40B105490160054941604A
:1031A000054981600549C16010BDFEE700060020A9
:1031B000B151010829550108A15601087D510108A6
:1031C00070B50D4604461021284614F06FFB2068A8
:1031D0000078012804D0022807D0042807D008E08E
:1031E000208A2880608A688003E0E06800E00A2086
:1031F000686020684268002A03D02946BDE8704014
:10320000104770BDFEB5866A0446BEB9A08A218A01
:103210000844A082E08A618A0844E082204609F0DE
:1032200089F9060079D020460BF08CFB0022092199
:10323000304611F05DFB607880076ED4208A10B9AB
:10324000608A002869D00025ADF80450ADF8085018
:1032500094F83C0000F00F000328304616D015F01B
:1032600063FE0746304615F01DFD03460C20009016
:10327000B4F912103A46304608F0AEFDADF8080039
:10328000304615F05FFDC10712D017E015F0E2FDE2
:103290000746304615F07EFD024603200090B4F943
:1032A00010103B46304608F097FDADF80400E7E704
:1032B000BDF90410002901DDADF80450810705D4E3
:1032C000BDF90410002901DAADF80450410705D416
:1032D000BDF90810002901DDADF80850000705D43C
:1032E000BDF90800002801DAADF8085002AA01A9CA
:1032F00020461CF0E2FC0023BDF90820BDF90410B3
:10330000304617F0FFFCA08ABDF804100844A082E4
:10331000E08ABDF808100844E082FEBD2DE9FC5F9C
:103320000446806A5FEA000B71D094F83C00000705
:103330006DD012F0F5FD019000684021457E5846A1
:1033400016F038FD4FF0000818B9A4F81A80A4F858
:103350001880584615F0DAFD8246584615F0DDFD16
:10336000064694F83C004FF0640900F00F000C286A
:1033700002D003284CD09AE0A4F8188056B1B4F9D2
:103380001A50002712F0CCFD00684946407EC0F17B
:10339000640022E0608BC5F1640110FB01F191FB38
:1033A000F9F06083584615F07DFC0546584615F047
:1033B000BBFD02460C200090B4F91A102B4658466B
:1033C00008F00AFD6083024600231EE07A1917B256
:1033D00010FB05F292FBF1F215B2002DF6D1ADF81B
:1033E0000070A4F81A806A46002120461CF065FC93
:1033F0004FF4C042BDF900305142584609F0F3F98C
:10340000BDF800100123084402B200214CE09AE00C
:10341000A4F81A80BAF1000F0AD0B4F918500027A6
:1034200012F07EFD00684946407EC0F1640022E053
:10343000208BC5F1640110FB01F191FBF9F02083B1
:10344000584615F0A7FC0546584615F003FD0346FF
:1034500003200090B4F918102A46584608F0BCFC26
:103460002083014600231EE07A1917B210FB05F2F3
:1034700092FBF1F215B2002DF6D1ADF80070A4F870
:1034800018800022694620461CF017FC4FF4C04209
:10349000BDF900305142584609F01EF9BDF8001040
:1034A0000123084401B20022584617F02BFC208B60
:1034B000002848D1608B002845D1C6B9584615F080
:1034C00033FD0546584615F0EDFB002D06DC0028BF
:1034D0000DDD002D02DA01232A4604E0002806DA79
:1034E0000123404202B20021584617F00BFCBAF10A
:1034F000000F19D1584615F04DFC0546584615F0F9
:10350000A9FC002D07DC00280EDD002D03DA0123C5
:103510000022294605E0002806DA01230022404265
:1035200001B2584617F0EEFB0A215846019A11F0F5
:10353000DFF96078800706D414F83C0F20F00F0004
:10354000207044F8148CBDE8FC9F00007FB50E4647
:10355000040003D10EF04CFE040023D00025FEB180
:10356000ADF80050ADF802500EF05AFE401EADF816
:10357000040020460EF09AFE401EADF806006A4692
:10358000314602A8FEF738FF00280BD02068017AE8
:10359000C90708D0DDE90001C4E90D0101202AE0D6
:1035A000A0F854517FBD02690AB102A990470026D4
:1035B0000BE000BF04EBC601002202A83431FEF785
:1035C00043FF0028EED1761CB6B2B4F85401B042E5
:1035D000F0D880B2202804D204EBC00002A9343015
:1035E00004E0A4F8545104F1340069460CF00CFCDA
:1035F000B4F85401401CA4F8540160681AF0A8FB08
:103600007FBD70B5054600F012F804460CE0214677
:10361000284600F01EF806462146284600F071F8BC
:10362000204613F0F9FF3446002CF0D170BD00287D
:1036300000D04068704700B503460022FFF7F7FF4F
:1036400003E01846521C00F004F80100F9D11046BE
:1036500000BD0068091D4058704700684058704719
:10366000002800D08068704700224260C91C21F009
:10367000030182600160704770B50446006808303D
:1036800013F040FF050013D00146002220461BF036
:10369000F4FC2946204662681BF0E9FC616819B118
:1036A0002A4620461BF0E9FC6560A06800B9A560C9
:1036B000284670BD70B504460068083013F022FF3C
:1036C000050013D00146002220461BF0D0FC2946FD
:1036D0002046A2681BF0D1FCA16819B12A462046F9
:1036E0001BF0C5FCA560606800B96560284670BD28
:1036F00028B1416809B9806808B1002070470120ED
:10370000704770B504000DD0FFF791FF002288428A
:10371000204608D1FFF79DFF6060011E01D0002206
:103720001EE0A26070BDFFF79BFF8842206808443E
:103730000AD10168A16029B12046BDE8704000228D
:103740001BF095BC626070BD05682046FFF781FFE5
:1037500006460246294620461BF089FC2A46314689
:103760002046BDE870401BF088BC10B504460068D8
:1037700082680AB12146904720680068002801D07D
:103780002060F5E710BD8068002801D0B0F9160070
:10379000704700002DE9F047074692B0408C1A9E12
:1037A00040F00400788490463A8499468A463289EB
:1037B000384616F095F90546A7F82090328951460B
:1037C000384616F08DF90446788CA54220F00400A6
:1037D000788403D12904B1EB044F68D0A7F8208086
:1037E00032895146384616F07BF905468046A7F8DF
:1037F0002090514638460AF057F9318900682A4628
:1038000019F0BAF93089602823D147F6FF794D4580
:1038100001D04C451DD1384616F09FFA00EBD07010
:103820004510384616F099FA00EBD0704010C845A4
:1038300006D1691C431C994200DA00E0194688460B
:103840004C4506D1691C421C914201DA6C1C00E017
:1038500014461948FFF710FF05002BD02F60C5E96B
:1038600003843089A8806846C5F808A00BF0E4FE00
:103870001248FF21CDE900501148029011480390F1
:1038800000200790CDE9080130880A9070889DF8E3
:103890003E1040420B90F0680690002060F300015B
:1038A0008DF83E103069059068460BF021FF12B08C
:1038B000BDE8F087FEE700000C060020231A02088E
:1038C000E11B02083D1B020814210148FFF7CCBE92
:1038D0000C0600202DE9F74F002582B093460646DE
:1038E0002C46042743F60F0843F60E090BE100BFF0
:1038F000F06807EBC401415888017CD488B2C1F359
:1039000007414FEA014A039930EA010112D0002130
:1039100030EA0B0010D0002081426CD0F06801AA80
:1039200041F6100150F83400009018F035FF0028DF
:1039300062D103E00121EBE70120EDE701AA41F6A6
:103940001101009818F028FF002873D101AA41F650
:103950001201009818F020FF00286BD101AA41F64F
:103960001301009818F018FF002863D101AA41F64E
:103970001501009818F010FF00285BD101AA41F64C
:103980001401009818F008FFB0BB01AA41F26901C8
:10399000009818F001FF78BB01AA43F20C010098CF
:1039A00018F0FAFE40BB01AA43F20D01009818F08E
:1039B000F3FE08BB01AA41F20101009818F0ECFEE9
:1039C000D0B901AA41F20401009818F0E5FE98B9B7
:1039D00001AA41F20201009818F0DEFE60B901AAC6
:1039E00041F20301009818F0D7FE28B901AA41F26C
:1039F0000501009801E085E01CE018F0CDFEC8B993
:103A000001AA41F20601009818F0C6FE90B901AA79
:103A100041F23201009818F0BFFE58B901AA4146A0
:103A2000009818F0B9FE28B901AA4946009818F084
:103A3000B3FE18B1BAF1000F08D05FE001AA40F65A
:103A40000A01009818F0A8FEF0BB03E0032005B0BF
:103A5000BDE8F08F01AA40F60B01009818F09CFE1B
:103A600090BB01AA4146009818F096FE60BB01AADF
:103A70004946009818F090FE30BB01AA40F63C0180
:103A8000009818F089FEF8B901AA40F63D010098A7
:103A900018F082FEC0B901AA40F63A01009818F069
:103AA0007BFE88B901AA4FF40461009818F074FEF7
:103AB00050B901AA40F64501009818F06DFE18B9FA
:103AC00001AA40F6410100E018E0009818F064FEF9
:103AD000A0B901AA40F64201009818F05DFE68B94D
:103AE00001AA40F64301009818F056FE30B901AA29
:103AF00040F64901009818F04FFE08B1022501E098
:103B000005B90125641C708CC0F3C500A0423FF6C6
:103B1000EFAE28469BE70000014840687047000070
:103B2000500000207047C0F30410072800D9072078
:103B30007047000010B518210348FFF795FD0349B1
:103B40000120087010BD0000B80500208801002089
:103B50002DE9F04190460C460546FCF77EFB0B4FE5
:103B600006462146BA68284690470446BA6828198E
:103B7000414690470146701A03E06218AA5C2A5534
:103B8000641CA042F9D2BDE8F08100009C01002035
:103B90002DE9F041094D90460E466A681C460746DD
:103BA00019469047306020B120686A683844002187
:103BB0009047C8F80000BDE8F08100009C0100209B
:103BC0002DE9F04788B01D46109E924689460400B4
:103BD0000AD02078002808D0B9F1000F04D016F0E0
:103BE000060F10D0002004E0002008B0BDE8F087E8
:103BF000401C215C0A2904D00D2902D00029F7D1EC
:103C0000F3E7401CF1E7B00701D54FF4C0454FF092
:103C100000088DF81480214FCDF8108022E000BFFD
:103C20000498CDF8188028B30021039105AA06ABAB
:103C30000096CDE9013220442B46524649461AF0FF
:103C4000E1F90699691A0DB2B0B1049908440490DB
:103C500021780A290BD00D2909D0205C0A2812D01E
:103C60000D2810D00498205C08B1002DD8DC0498F1
:103C700068B110E00121D8E7049860B97A6804A916
:103C800020469047F3E70498401C0490EFE77A68D9
:103C900004A9204690470498A7E700009C01002053
:103CA0002DE9F041174688460646FCF7D6FA044649
:103CB0003846FCF7D2FA050014D00B4A2C44414692
:103CC000926830469047411903E0621BB25C32555E
:103CD000641EA142F9D930442A463946BDE8F04174
:103CE00013F0A6BDBDE8F0819C01002000230278FE
:103CF000232902D0012A0DD00FE02AB10021012A88
:103D000004D0022A04D008E0012101E0017004E09F
:103D1000017001E0202902D00123184670470221DA
:103D2000F6E72DE9F0410E46804602460021334673
:103D300008461AF0A1FB04460027401C13F0E2FBE2
:103D4000050008D02F5533464246611C1AF094FBFB
:103D50002846BDE8F081FEE72DE9F0471E461446EF
:103D60000D468246DDF8209015E000BF4FEA54086A
:103D700008FB0657394650464A469047002808DD5A
:103D800044F30000C0EB540407EB0605A4F1010462
:103D900001E005DA4446002CE8D12046BDE8F08772
:103DA0003846FBE72DE9FC5F9B460CAB8A46814613
:103DB000DDE9116093E81210DDE90F575FEA8078C2
:103DC0004FF030031AD45EB15FEAC07808D000F03B
:103DD0000C0858EA0C0803D0761E01E00B55641C51
:103DE000BC4204D2202CF9D301E00B55641C5FEADD
:103DF000C07803D0B44201D2202CF6D35FEAC06869
:103E000025D55FEA40580AD44CB1BC4201D0B44237
:103E100005D1641E03D0102D03D1641E04E0102DC3
:103E200002D0022D0AD00EE0850603D4202C1ED22B
:103E3000782506E0202C1AD2582502E0202C16D234
:103E400062250D55641C202C11D20B55641C202CAE
:103E50000DD2BCF1000F01D02D2306E0430701D5A0
:103E60002B2302E0030702D520230B55641CCDE968
:103E700000BAC846154681468B46AA46800714D12B
:103E8000274607E02A46DDE900316D1C2020C446A4
:103E9000E0477F1CB742F5D307E02A466D1C641E3D
:103EA000DDE900311BF80400C047002CF5D15FEAC2
:103EB000897006D409E02A46DDE900316D1C202016
:103EC000C047A5EB0A00B042F5D32846BDE8FC9FE9
:103ED0002DE9F04F8FB099468B46DDE91818DDE9E2
:103EE0001C63DDE91A4792468646002209B923F091
:103EF0001003580507AD00D5C9B1B1FBF4F004FBC0
:103F00001010C0B20A2801D2303009E05FEA836C99
:103F100002D54FF0410C01E04FF0610C60440A38CB
:103F2000B1FBF4F1A854521C09B1202AE5D3CDF815
:103F30000880CDE90563CDE90052CDE903474B4642
:103F4000524659467046FFF72DFF0FB0BDE8F08F7F
:103F50002DE9FF4F8FB01CACDDE9239594E80308F1
:103F600020AC94E8C004002450EA010201D125F0FD
:103F700010056A050DF11C0802D550EA010217D0A0
:103F800032463B46FCF726F9D2B20A2A01D2303239
:103F900006E0AB0601D5412300E061231A440A3A4A
:103FA00008F80420641C50EA010201D0202CE7D359
:103FB000CDE90084CDF808B0CDE90595CDE9036AD7
:103FC0000FAF97E80F00FFF7EDFE13B0BDE8F08FDD
:103FD0009A4200D288547047704738B50024009444
:103FE00018F05AF838BD00002DE9FF4F89B005469A
:103FF0000A9800249246002800D1F84D73E1252844
:1040000004D02246641C53460A99EEE1491C4FF045
:10401000000808460C9101782B2919D004DC2029CE
:1040200019D0232904D119E02D290ED0302909D027
:104030000026C8B2FEF7C0F9B0B10CA8FEF7A5F98A
:1040400006461FE048F001010AE048F0020107E0DF
:1040500048F0040104E048F0080101E048F01001D4
:10406000401C88460C90D6E70C9801782A2909D183
:10407000169940C91691002E02DA48F002087642DD
:10408000401C0C900C984FF0000B01782E2919D190
:10409000401C0C9048F480680078FEF78DF920B140
:1040A0000CA8FEF772F983460CE00C9A10782A28C7
:1040B00008D1169901C91691002800DC0020521C75
:1040C00083460C920C9801786C290AD004DC68298C
:1040D0000FD06A2919D127E0742928D07A2914D160
:1040E00025E0401C0C90017848F480786C291BD0A6
:1040F0000BE0401C0C90017848F08008682904D13E
:1041000048F04001401C88460C900078692822D075
:1041100015DC62281FD00DDC25287AD050281AD053
:1041200058287FF46EAF16E048F40071EAE748F4CF
:104130008071E7E763286DD06428F2D10BE0732823
:1041400069D004DC6F2806D07028EAD103E0752816
:1041500001D07828E5D178280DD058280BD07028C8
:104160000DD050280BD06F280FD062280FD00A2115
:1041700028F010020FE0102158280AD002E0102188
:1041800048F48878502804D006E0082108E002218D
:1041900006E048F020029046692803D0642801D048
:1041A00028F00C085FEA485201D528F00108692878
:1041B0001BD0642819D05FEA885062D5169804ABEA
:1041C000C01D002283E806080292CDE9076820F0AE
:1041D00007005346F0E80212CDE90012169022467D
:1041E00028460A99FFF7B4FE79E05FEA885025D5A2
:1041F000169804AFC01D20F00703F3E802021693DF
:10420000002387E80A08CDE90768002A04DA0121BB
:1042100003E0E5E070E097E00021002302911946F9
:104220001B1A914101DA114603E00021404261EB83
:10423000020153462246CDE90001D1E75FEAC850AA
:1042400004D5169A01CA0FE0404215E05FEA4860C3
:1042500003D5169A12F8040B06E05FEA0860F0D561
:10426000169A32F8040B00B21692CDE9021BCDE982
:104270000468C10F0028E7DD53462246CDE900015E
:1042800029E05FEAC8500CD5CDE9021BCDE90468EE
:1042900016980021534604C8CDE900211690224605
:1042A00019E05FEA486003D5169810F8042B08E07F
:1042B0005FEA0860169803D530F8042B92B200E04C
:1042C00004C816900020CDE90020CDE9021BCDE9FD
:1042D00004685346224628460A99FFF7F9FD04462A
:1042E0000C98401C0C900C99087800287FF487AE3D
:1042F00054457CD222467CE001275FEA887006D5CF
:1043000009E02246641C534620200A99A8473846F3
:104310007F1CB042F5D316982246641C10F804CBDB
:104320001690534660460A99A8475FEA887006D4FB
:10433000D6E72246641C534620200A99A8473846EF
:104340007F1CB042F5D3CBE7169850F8049B16902B
:104350004A46BBF1000001D0014601E04FF0FF31B9
:10436000484600E0401C03780BB1491EFAD2871A78
:104370005FEA485003D558465F4500D307465FEAD9
:10438000887006D511E02246641C534620200A9905
:10439000A84738467F1CB042F5D306E0224609F113
:1043A0000109641C53460A99A84799F8000028B1EE
:1043B0005FEA4851F2D5BBF1010BEFD25FEA88709A
:1043C00006D48DE72246641C534620200A99A8474C
:1043D00038467F1CB042F5D382E708E0D93F000899
:1043E0002246641C534625200A99A84778E7AAF17B
:1043F0000102534600200A99A8470DB02046BDE8A7
:10440000F08F10B502004FF000000CD04B1E194287
:1044100000D0FEE70A44521E9A43B2F5803F02D212
:104420000C2A01D9104610BD0C2010BD08444A1EAC
:10443000401E9043114200D0FEE770472DE9F04145
:104440000F4601210025044641862E460BE01B49FC
:10445000FBF70AFF10B16D1CADB202E0608E401C8C
:104460006086761CB6B257F8260010B10178002994
:10447000EDD1208EA8421ED0A06A002610B113F004
:10448000CBF8A662E06A10B113F0C6F8E662E80065
:1044900013F038F8A06238B1680013F033F8E06226
:1044A00018B1A16A11B102E0FEE7FEE7002569003C
:1044B00013F0FCF92586BDE8F08100003C080108F6
:1044C00010B5084C012020700748FFF7B0F800280D
:1044D000A06803D0BDE8104019F03ABCBDE8104018
:1044E00019F02ABC64010020E805002010B504463C
:1044F00090F83E00616B92B0820707D4A28F3AB168
:10450000A2F57F43FF3B1CD0521EA287A28FC2B9E7
:1045100009B1820715D544222146684613F0E8F810
:1045200021461448FFF7EDF8204613F075F8FFF721
:10453000C7FF0398002802D001466846884712B09A
:1045400010BDA26B5242E2620029F8D0820702D469
:10455000226B5242E2624210521C62F3410084F824
:104560003E00636AE269E3616262800700D4216C05
:10457000A162E4E7E805002070B5304D686819F0E5
:10458000EBFA0646687880F00100687047E000208A
:10459000287094F83E006978C0F380028A4242D0C5
:1045A00061F3820084F83E00E16A8A19030719D496
:1045B000002917DC002A15DBC00709D1216939B1B0
:1045C00020468847E1690144E161616A084460620C
:1045D000A16809B12046884794F83E0040F00800E1
:1045E00084F83E00E06A8019E06216D4A16A88422D
:1045F00000DDE162A169204688470146206A8842C1
:1046000004D0216262680AB120689047D4E90A01A7
:10461000814202DB2046FFF769FF287818B108487D
:10462000FFF705F803E021460548FFF712F80400FC
:10463000ADD119F097FA686070BD000064010020E8
:10464000E805002070B5044640680D4608B1FFF744
:10465000F9FF2268002A04D029462046BDE87040B0
:10466000104770BD10B50446406882080AD04968FA
:1046700021F00301091D08446060204600F042F863
:10468000204610BDFEE74068103120F0030088424C
:1046900001D301207047002070472DE9FC470546F3
:1046A00048680C4620F0030001AA69461AF09BFAFC
:1046B000DDE9007005EBC71101EB80098046D9F8F0
:1046C0003C0060B164B1C4E9020504F10806C460AD
:1046D00030460421FFF7AAFE864202D0FEE7FEE73D
:1046E000FEE7C9F83C400120296900FA07F21143AE
:1046F000296105EB870100FA08F04A6902434A6123
:10470000BDE8FC8710B5044600F087F8046010BDD2
:104710002DE9FC4706464FF000000D0000900746CB
:10472000019042D00C46E9460DF10408802907D3D8
:1047300008461DF06FF9411F01208840401E0444C7
:104740004246494620461AF04EFA009C0A2C2CDAC2
:1047500006EB8400019A40694FF0FF3101FA02F242
:1047600010400CD1641C3069A14008401DD01DF0E0
:1047700049F90446009006EB8000406978B11DF0CD
:1047800041F9034606EBC411019001EB8000C76BB1
:104790005FB1786820F00300A84201D2FEE7FEE78F
:1047A00039463046009A1BF0A3F83846BDE8FC872E
:1047B00010B50446FFF7A6FF416841F002014160D1
:1047C000606840F00100606010BD10B5044600F064
:1047D00024F8416821F002014160606820F0010086
:1047E000606010BD70B506460D46084600F015F82D
:1047F000040010D02079C0070BD0686880080BD067
:104800002146304600F03CF821462846FFF72AFFB3
:104810000546284670BDFEE7FEE7426800F1080144
:1048200022F00300001F0844910800D1FEE7704702
:1048300070B506460C004FF000001ED0F2B1207992
:104840001546C0071BD011462046FFF71CFF78B164
:104850002946204600F025F805462046FFF752FF7E
:104860006868294640F0020068603046FFF715FF8F
:104870002046FFF7AAFF04F1080070BDFEE7FEE73F
:104880007CB5054648680C4620F0030001AA69463D
:104890001AF0A9F9DDE90023214628461BF028F883
:1048A0007CBD2DE9F0410D46044600F10801281FAA
:1048B0000E18606806F1080720F00300401BA0F105
:1048C000040838460421FFF7B1FD874200D0FEE717
:1048D000606820F0030108EB0500001D814200D054
:1048E000FEE7307900F0030040EA0800706020F035
:1048F00003000C2800D2FEE7207900F003002843D3
:1049000060603046FFF754FF3046BDE8F08138B5AF
:10491000044611F005FB054611F037FB30B1218F3D
:104920002046E18615F0D9FC012038BD606A0028D8
:1049300020461ED00FF0ACFC218FE08E81420CD0BF
:104940002087E08E00906A461C2120460FF0D0FFA1
:104950000128EAD1204615F0C0FC284611F021FBC1
:104960000428E1D1204614F04BF9002110F08EFA12
:10497000DAE70FF0F5FDD7E770B50FF0B4FF0546A5
:1049800014F084F9044628460CF012F8014620463B
:10499000BDE87040012218F095BC00002DE9F04FF1
:1049A0000D4687B00446002114F060F860B3294634
:1049B000204600F051F92946204600F099F80021E0
:1049C000204614F060FF05900021204615F01FF8E6
:1049D00004900021204614F02DFE012800D0002074
:1049E00080460021204615F0A3F907460021204605
:1049F00014F09AFE42F2D17906464F450BD1608CF5
:104A0000400508D4012707E007B02846BDE8F04F6D
:104A10001C2112F04BBF0027204614F0A5F8DFF848
:104A200078A0834620460021BAF8022015F058F8F5
:104A3000D5F810C0AB682968CDF800C0CDF80C805F
:104A4000CDE90131C2B239465846059B09F0C6F896
:104A500028834E4504D1608C800501D4012600E0F6
:104A60000026204614F066F8074620460021BAF8D2
:104A7000062015F035F8C2B2686900246B68E96851
:104A80008DE81B0031463846049B09F0A7F868837F
:104A900007B0BDE8F08F0000700000202DE9F04164
:104AA000154607460C4651EA05001ED06CB1384643
:104AB00014F0D0F90646384614F06CF90246384630
:104AC00015F04BF9304410442080002D0DD03846AD
:104AD00014F0E8F80446384614F026FA0246384640
:104AE00014F093F8204410442880BDE8F0810000C1
:104AF0002DE9F34F81B00C46019808F02DFB0646D6
:104B0000019814F031F88246304600F06FFD2061C4
:104B1000400012F023FD20602069400012F01EFDCD
:104B2000002545F69B79A0603AE036F91510DFF8CC
:104B30002081494533D10027DFF818B11FE03946FD
:104B4000019813F093FF5946009015F03AF9A8B96F
:104B5000009808F013FB012810D1009808F004FB1E
:104B6000A8420BD1009815F0F8F84146404501DA0B
:104B7000084602E0009815F0F0F880467F1C019886
:104B800013F086FFB842DAD8B8F1000F03DBA16852
:104B900021F8158003E0A168002021F815006D1CA4
:104BA0002069A842C1D800252F46284645F69C78A2
:104BB0004B4615E036F91010414504DB0D44A5F5D0
:104BC000BE459C3D0BE0994204D1A16831F810101C
:104BD000394403E0A26822F8101039440FB2401C97
:104BE00021698142E6D80021019814F04CFE216928
:104BF000C1F1010200FB02A0C01B00B2002800DAD4
:104C0000002000224FF0FF331146C44611E000BFE0
:104C100036F9117067450BDBA7F5BE479C3F3AB2EA
:104C200010FB02F3B3FBF5F3A76827F811300B462E
:104C3000491C27698F42EBD8002B07DBA91A414397
:104C4000B1FBF5F1401AA16821F81300BDE8FE8F11
:104C500000A0FFFF018001002DE9F84F0C468346BC
:104C600008F020FE064600F0C1FC6061400012F032
:104C700075FC60606069400012F070FC002545F62C
:104C80009B79E0603AE036F91500DFF80C81484581
:104C900033D10027DFF804A11FE03946584613F04E
:104CA000E5FE5146009015F08CF8A8B9009808F080
:104CB0007FFE012810D1009808F070FEA8420BD1A9
:104CC000009813F0A2FF4146404501DA084602E091
:104CD000009813F09AFF80467F1C584613F0D8FEC8
:104CE000B842DAD8B8F1000F03DBE16821F815808B
:104CF00003E0E168002021F815006D1C6069A842FE
:104D0000C1D800273D46384645F69C784A4615E00E
:104D100036F91010414504DB0F44A7F5BE479C3F10
:104D20000BE0914204D1E16831F81010294403E00E
:104D3000E36823F8101029440DB2401C61698142D8
:104D4000E6D80021584614F062FE8146584613F01A
:104D5000F1FE01466069C0F1010209FB0210401B2F
:104D600002B2002A00DA0022002043460FE000BF12
:104D700036F91010994209DBA1F5BE419C3912FBAE
:104D800001F1B1FBF7F1E56825F81010401C6169ED
:104D90008142EDD8BDE8F88F00A0FFFF018001003F
:104DA000C36818472DE9FF4F87B0C878189CC00723
:104DB0000D46002801D0F14800E0F148069001D0EE
:104DC000F04800E0F048049001D1EE4800E0EE48E1
:104DD0004FF0100A4FF00C0ECDF814006088A18837
:104DE0004FF0000BA0EB010001B25A46584627696C
:104DF00012E000BF00EB8006E3680AEB860C13F8B4
:104E00000CC05FEACC7C0BD04FF0080C0CEB860694
:104E10009B5BC91A09B2401C8742EBD8002347E0CC
:104E20000EEB86069B5B1A4412B2F4E703EB830693
:104E3000E7680AEB86000190385CC00737D191FB28
:104E4000F2F00EEB860CCDF800C037F80CC00CFB6E
:104E500000FC0FFA8CF94FF0060C04200CEB860CCA
:104E600000EB860037F90C80385ECC46C84500DC84
:104E7000C446604504DC4046CC46C84500DD60467B
:104E8000484506D0DDF804804FF0010CE34647F8B2
:104E900008C0D4F80CC0082707EB86062CF80600DB
:104EA000E768009EBE5B921B081A12B201B25B1C3F
:104EB00020699842BAD8BBF1000F8FD10021079822
:104EC00014F0B1FB012826D000270020ADF808001F
:104ED000ADF80C0003A902A8CDE900012089B4F9BE
:104EE000022003B2287816991AF05DF9E878384262
:104EF00007D0079813F038FEBDF808100844ADF845
:104F000008000999079813F0B1FD06464FF4FA68B6
:104F10004FF0640B27E10127D7E79C49304614F096
:104F200050FF00287DD10021304614F0E5FBE8B3A6
:104F30004FF000094846216911E000BFE26800EB2C
:104F4000800352F82320B24208D100EB8002E168CE
:104F5000082000EB820031F9009002E0401C814201
:104F6000ECD8E878C007708C02D040F4806001E093
:104F700040F40070708406F114000499824688475A
:104F8000484528D0304615F0A8F9B08AADF80000A1
:104F9000F08AADF80200308BADF80400708BADF8EC
:104FA0000600069A49465046904700E00FE06A46E0
:104FB000232130460FF09CFC304613F067FE32464A
:104FC00022210FF095FC304615F087F903E0708C34
:104FD00020F4C0607084002000906878012810D010
:104FE000022816D1059906F114008847B4F900107B
:104FF000491C21F00101081A00EBD07040F34F006A
:1050000006E0059906F1140088472188081A00B2C5
:105010000090E87838420AD0049906F114008847D5
:1050200000E098E0BDF80810081AADF80800304616
:10503000002143F20C0214F053FD0FFA80F93046C0
:10504000002143F20D0214F04BFD0FFA80FA3046B6
:1050500014F083FE0190304613F0D7FD0146C9F3EA
:10506000413001280ED129F4C04040450ADCB0F59A
:105070007A7F01DDC0F57A70019A504390FBFBF016
:105080000FFA80F9CAF3413001280DD12AF4C0404B
:10509000404509DCB0F57A7F01DDC0F57A70484300
:1050A00090FBFBF00FFA80FAB18A1498F28A411A49
:1050B00001EB0900159900B28A1A02EB0A01EA789D
:1050C00009B2D207002A02D0BDF9082000E0009AF8
:1050D00010440FFA80FA01D0009801E0BDF90800F1
:1050E00008440FFA80F95AEA09001BD0304615F03F
:1050F000F4F8B18A01EB0A00B082318B01EB0A00AF
:105100003083F18A01EB0900F082718B01EB090019
:105110007083304615F0E1F801234A465146304687
:1051200015F078F9E87838420CD1049906F11400AA
:10513000884717990844BDF80C100844BDF80810BA
:10514000084406E0BDF80C1017980844BDF8081094
:10515000081AADF80800E87809AAC0F3800107989A
:1051600008F06DFA0646002E04D0DDE909018842F8
:105170007FF4D3AE0BB0BDE8F08F000073FF0008E2
:1051800069FF00080FFF0008B7FE0008018001005A
:105190002DE9F04F91B00E0005463FD02E832868D0
:1051A00008B112F039FA06EB4600062101EB400087
:1051B00012F0A8F9286040B3022101EB4601014436
:1051C000E960042101EB86010144C5E901010121E7
:1051D0000024012E1AD0F000083012F0BFF98146E9
:1051E00000EB860000F10408B00000B2A346ADF861
:1051F0001000C0F101028010ADF812B00FFA82FA6F
:105200005C46CDF828B00690ABE0FEE7B422027011
:10521000E8680480E8684180A868048011B0BDE8AF
:10522000F08F0027BDF81220BAF1000F07DC032130
:1052300001EB42010AEB01000FFA80FA0CE0BDF825
:1052400010100523521A03EB420202EB0A00491E1A
:105250000FFA80FAADF81010BDF81200401CADF83E
:10526000120004A800F0E9F868B1BDF9100006A921
:10527000821041F827200AA900F0030041F8270016
:105280007F1C042FCEDB042F71D109990698884228
:1052900012D129F8140028F814B0DDE90A010144FC
:1052A000DDE90C201044084469680855696800016C
:1052B0000855641C24B252E00799884219D029F895
:1052C000140028F814B06A680A9810556A6800013A
:1052D0001055641C069A20B2521E29F8102028F896
:1052E00010B0DDE90B120A440D99091D11446A68DA
:1052F0002FE0089929F81400884228F814B0DDE955
:105300000A025946104412D06A6810556A680001B2
:105310001055641C069A20B2521E29F8102028F855
:105320001010DDE90C12114408316A6811E00C9A82
:1053300010446A6810556A6800011055641C069A8A
:1053400020B2521E29F8102028F810100D996A6812
:105350000C3111546A6809011154401C04B20BF15C
:10536000010B04A800F069F800287FF45AAF40F25E
:10537000D32016FB00F109EB4402881232F9022C0B
:10538000824205D108EB440232F9022C82421AD043
:10539000A1EB8021B1F5007F03DC494341F3CF311C
:1053A00006E0C1F58061494341F3CF31C1F10F01FE
:1053B00029F8140028F81400686801556868090184
:1053C0000155641C24B2A01E0EE000BF38F8102066
:1053D00029F8142039F8102028F8142069680A5C8C
:1053E0000A55641C24B2401E0028EFDAEA68002146
:1053F000084611801BE0EA6822F81100AB6839F812
:10540000102023F811200AE0AE6839F9102036F890
:105410001130934200DA1A4626F81120401C38F960
:1054200010208A4201D1A042EEDB491C09B2A04201
:10543000E1DB484612F0DEF8F0E6B0F90210B0F910
:105440000000814201DC012070470020704717B541
:1054500081B0022A03D8BDF8080004B010BDBDF821
:105460000830BDF80400C3F3C401C0F3C4042144F0
:105470001F2900D31F2161F3C7005907890E01EBD3
:10548000533100F0070401EBC40101EB5031ADF8DA
:1054900004003F2900D33F21CC0864F3020061F3EC
:1054A0004F30C3F30421C0F304231944ADF80400C2
:1054B0001F2900D31F2161F30C20ADF80400FF2A3F
:1054C00007D0DDE901010CF083FB0090BDF800007E
:1054D000C3E780B2C1E717B581B0022A03D8BDF88F
:1054E000080004B010BDBDF80830BDF80400C3F3D7
:1054F000C401C0F3C404091B002900DC002161F3CE
:10550000C7005907890E01EB533100F0070401EB86
:10551000C40101EB5031ADF80400002900DC00218A
:10552000CC0864F3020061F34F30C3F30421C0F3ED
:105530000423C91AADF80400002900DC002161F33E
:105540000C20ADF80400FF2A07D0DDE901010CF0C2
:105550003FFB0090BDF80000C3E780B2C1E7000048
:10556000F8B504460FF0BFF9064620460FF092F951
:105570000546304613F08AFB0446252D2AD00A2D15
:1055800027D16946304613F0E5FB304613F0ECFABC
:1055900005460021204614F054F80128BDF900000A
:1055A00005EBD5711CD000EB610000BF90FBF5F05E
:1055B00001B2002900DA0021608D4FF0010288421B
:1055C000204610D017F07EFE00221C2120460FF04E
:1055D0008FF9F8BD618DBDE8F840002217F072BE6A
:1055E000C0EB6100E2E717F06DFEF8BD0146002058
:1055F0004FF4C04200E0401C31F910309342FAD120
:1056000070471CB5044690F8500000F00100884235
:105610002DD094F8500011B140F0010001E020F0CD
:10562000010084F8500004F1440168460AF034FC9B
:10563000606ABDF80010828A1144ADF80010BDF810
:105640000210C08A0844ADF80200606ABDF8041078
:10565000808A0844ADF80400606ABDF80610C08A6C
:105660000844ADF806006946204614F059FE1CBDFA
:1056700008B5084611460CF021F90090BDF800006D
:1056800008BD704770B515468A880B884C88D31AB8
:10569000CA885B1C141B641C13FB04F4074A1060CB
:1056A0004E88CB888A8808883146FCF700F961006B
:1056B0002846BDE87040FCF71FBA0000E401002056
:1056C0002DE9F04FA1B08046054614468B4606A84A
:1056D0000CF0C3FF4FF4A021404613F087FF9DF864
:1056E000211060F382018DF82110A1882088091A09
:1056F000491C09B201EBD1714E103044ADF87C0069
:10570000608800213044ADF87E00404614F04BF82C
:105710008246594609A812F0E9FF4FF4003015906F
:105720002E480A9000200B9006AF05F1300011972B
:105730000590FDF795FF4CE02079032845D1208B9B
:10574000ADF81800208AADF81A006079FD2801D95B
:10575000504602E010FB0AF0000A8DF82000256890
:10576000B5F92030E88B18440090D5E90512A068FF
:1057700011F0B6FE8146B5F92030E88B1844009050
:10578000D5E90512E06811F0ABFE0546608B09AA69
:105790003044ADF85C001FA812901A2119944046BD
:1057A0000FF0A6F8A9B2CDE9001B1FFA89F3029702
:1057B000BDF85C20BDF97E10BDF97C000CF0BDFD8C
:1057C00009AA1B2140460FF093F821460598FDF7E2
:1057D00044FF0400B0D121B0BDE8F08F883B02083F
:1057E0002DE9F74F917A9CB0144602297ED90146E3
:1057F00004A80AF024FBB4F91C00012825DDA07FD1
:10580000FD2822D3208800B3E07FBDF810104008A7
:10581000C0F380021144ADF81010BDF81210C0F3AF
:1058200040000844ADF81200E17FBDF814004908BB
:10583000C1F3C001401AADF81400E17FBDF81600B5
:10584000C1F34001401AADF81600A07AFD2800D33C
:10585000FF208346E07AE18800F00705A0888842AF
:1058600000D1002504A80EF089F95FEA000902D1F1
:10587000208800B9DDB304A90CA81D9AFCF7BCFD73
:1058800000284DD0BDF81400BDF81010401A401C7F
:105890000FFA80F8BDF81600BDF81210401A401C2F
:1058A00001B240461391884500DB0846B4F9006018
:1058B000B6EB600F00DB4610BDF83400BDF83010C9
:1058C000401A401C00B210904FF0FF301B90002097
:1058D0000390002E02DCB9F1000F11D0109811F0E6
:1058E0003DFE0023324604A9039001E018E00CE0DD
:1058F00015A80EF0AFFB002115A80DF063FF1B905B
:105900004FF0000A022D0ED025E0A078012200926F
:10591000CDE901B0002304A962681D98FCF70AFFD5
:105920001FB0BDE8F08F4FEA480011F017FE824625
:1059300000270EE0BDF810004146381A02B220469A
:1059400008F008F902900AEB4700BDF80810018042
:105950007F1C4745EEDBBDF93010BDF93400ADF8D2
:105960001C10ADF82000B9F1000F4AD0BDF932701B
:1059700042E03EB2ADF82260ADF81E605946109A82
:10598000039811F061FFBDF930103246109B039867
:105990000EF0BAF80646012800D1022625B1022DE4
:1059A0000AD0012D14D026E0A078FF210096CDE981
:1059B0000110039B62681AE0A078FF210096CDE9F0
:1059C0000110524607A9039B1D98FCF71FFF12E028
:1059D000BDF812001399381A02B2204608F0BAF83E
:1059E0000246A078FF210096CDE90110039B07A98C
:1059F0001D98FCF79FFE7F1CBDF93600B842B8DA4F
:105A0000EEE0ADF81C10ADF8200000278FE000BFDD
:105A1000BDF81200BDF9321038440FFA80F8BDF815
:105A20001600C01B00B20B90414504DDBDF93610D5
:105A30000B9881427ADB5946109A039811F004FFC3
:105A4000BDF91C104246109B03980EF05DF8BDF99D
:105A500032100F90414531DCADF81E80ADF8228048
:105A600025B1022D0AD0012D14D027E00F98A2787D
:105A7000FF218DE80700039B62681BE00F98A27866
:105A8000FF218DE80700524607A9039B1D98FCF7EC
:105A9000BDFE13E0BDF81210A8EB010002B22046D3
:105AA000139908F057F802460F98A378FF218DE864
:105AB0000B00039B07A91D98FCF73CFEBDF93610AF
:105AC0000B98814232DBADF81E000B98ADF8220036
:105AD00025B1022D0AD0012D14D027E00F98A2780D
