:020000040800F2
:10000000603F0120B1010008F94100087735000880
:10001000F7410008810E0008A95400080000000004
:10002000000000000000000000000000A14A0008DD
:10003000C10F000800000000FB410008A74A0008AB
:10004000CB010008CB010008CB010008CB01000860
:10005000CB010008CB010008CB010008CB01000850
:10006000CB010008CB010008CB010008CB01000840
:10007000CB010008CB010008CB010008CB01000830
:10008000CB010008CB010008CB01000800000000F4
:10009000000000000000000000000000CB0100088C
:1000A000CB010008F94C0008CB010008CB01000887
:1000B000CB010008CB010008CB010008CB010008F0
:1000C000CB010008CB010008CB010008E54800087F
:1000D000CB010008CB010008CB01000800000000A4
:1000E000CB010008CB010008CB0100080000000094
:1000F000000000000000000000000000CB0100082C
:100100000000000069430008CB010008CB01000893
:1001100000000000000000000000000000000000DF
:10012000D50E0008E10E0008ED0E0008F90E0008DB
:10013000CB010008000000000000000000000000EB
:10014000000000000000000000000000CB010008DB
:10015000CB010008050F0008110F0008CB010008B3
:10016000CB010008CB0100080000000000000000E7
:10017000000000000000000000000000000000007F
:1001800000000000CB01000800000000000000009B
:10019000CB010008CB010008DFF810D000F052FBC3
:1001A00000480047B5480208AFF30080603F0120D7
:1001B0000648804706480047FEE7FEE7FEE7FEE701
:1001C000FEE7FEE7FEE7FEE7FEE7FEE73D4B000841
:1001D000990100082DE9F05F0546002092469B46F4
:1001E00088460646814640241BE02846414647464D
:1001F000224600F0ABF953465A46C01A914110D33B
:1002000011461846224600F092F92D1A67EB0108B4
:100210004F4622460120002100F089F917EB000922
:100220004E41201EA4F10104DFDC484631462A4637
:100230004346BDE8F09FD2B201E000F8012B491E11
:10024000FBD270470022F6E710B513460A46044673
:100250001946FFF7F0FF204610BD421C10F8011BA5
:100260000029FBD1801A704710B5002200E0521C13
:10027000835C8C5CA34201D1002BF8D1D8B2E1B2EF
:10028000401A10BD034611F8012B00F8012B002A7B
:10029000F9D1184670472DE9FE4F81EA030404F0B6
:1002A000004421F0004100944FF0000B23F0004384
:1002B00050EA01045ED052EA03045BD0C3F30A544F
:1002C000C1F30A552C44A4F2F3340194A0FB025468
:1002D000C1F3130141F48011C3F3130343F48013FA
:1002E00001FB024400FB034E840A970A44EA81544E
:1002F00047EA8357A4FB076802958D0A05FB07852B
:100300004FEA932C04FB0C542705029D4FEA065834
:1003100047EA1637B5EB08056EEB070C870E920E11
:1003200047EA811742EA8312A7FB0201B6EB0B01F1
:1003300064EB00042B0D43EA0C335E1844EB1C50B5
:10034000DA465146E7FB0201C5F313044FEA0B33CB
:1003500043EA14534FEA0432019C43EA0603A4F132
:100360000C040294009CCDE900B400F045F903B000
:10037000BDE8F08F00200146F9E72DE9F04D81EA54
:10038000030404F0004B21F0004514464FF0000A2E
:1003900023F0004150EA050220D054EA01021DD0AA
:1003A000C5F30A570246C5F31303C1F31300C1F3A3
:1003B0000A5640F4801543F48013A7EB0608101B7F
:1003C000D64608F2FD3873EB050002D308F10108A8
:1003D00001E092185B41B8F1000F03DA00200146FA
:1003E000BDE8F08D00204FF48011064684460EE0F3
:1003F000171B73EB050705D3121B63EB05030643BD
:100400004CEA010C49084FEA300092185B4150EA6F
:100410000107EDD152EA030012D082EA040083EA18
:100420000501084305D0101BAB4106D20122002371
:1004300006E000224FF0004302E06FF0010253108B
:100440001AEB06004CEB085110EB0A0041EB0B01D4
:10045000BDE8F04D00F0C1B80EB540F23341029155
:100460000021CDE900110A460B4600F0C5F803B0A3
:1004700000BDC1F30A5210B5C1F3130140F2FF33BE
:1004800041F480119A4201DA002010BD40F233435A
:100490009A42A2F2334203DC524200F057F810BDF8
:1004A000904010BD00F0004230F000400AD0C10D75
:1004B00001F56071C0F3160042EA0151C20840071D
:1004C0001143704700200146704701F0004330B4EB
:1004D00021F0004150EA010206D00A0DA2F5607237
:1004E000C1F31301002A02DC30BC00207047440F26
:1004F00044EAC104C100E01830BC00EBC25000F077
:1005000035B830B50B46014600202022012409E011
:1005100021FA02F59D4205D303FA02F5491B04FABC
:1005200002F52844151EA2F10102F1DC30BD202A9B
:1005300004DB203A00FA02F1002070479140C2F13A
:10054000200320FA03F3194390407047202A04DB6C
:10055000203A21FA02F00021704721FA02F3D0403C
:10056000C2F1200291400843194670470029A8BFF4
:100570007047401C490008BF20F00100704710B4CC
:10058000B0FA80FC00FA0CF050EA010404BF10BC81
:10059000704749B1CCF1200421FA04F411FA0CF1AE
:1005A00018BF012121430843A3EB0C01CB1D4FEAE7
:1005B00000614FEA102042BF002010BC704700EBE2
:1005C000C35010440029A4BF10BC7047401C490010
:1005D00008BF20F0010010BC704710B5141E73F165
:1005E000000408DA401C41F1000192185B411A43F3
:1005F00001D120F0010010BD2DE9F04D92469B463F
:1006000011B1B1FA81F202E0B0FA80F220329046E4
:10061000FFF78DFF04460F4640EA0A0041EA0B014E
:1006200053465A46084313D0114653EA010019D0E5
:10063000C8F140025046FFF789FF05460E46504676
:1006400059464246FFF773FF084305D0012004E0F6
:1006500020463946BDE8F08D0020054346EAE076A5
:100660002C4337430A986305E40AA0EB08000022F4
:10067000FD0A44EA47540A3002D500200146E9E762
:10068000010510196941DDE9084500196941BDE816
:10069000F04DA2E72DE9FE4F804681EA0300C00F2E
:1006A0000C46009021F0004123F00045B8EB020019
:1006B000A94105D24046214690461C460B460246BB
:1006C00023F00040104347D0270DC7F30A00C3F3BF
:1006D0000A510290401A019040286BDAC3F31300CC
:1006E00040F4801B0098924620B10023D2EB030A0D
:1006F00063EB0B0B01985946C0F140025046FFF7DF
:1007000016FF06460D4650465946019A00F0ACF8D1
:1007100010EB08006141002487EA115284EAE77374
:100720001A4340D0009A62B3019A012A4FEA075255
:1007300015DC001B61EB02014FF0004202EA075298
:10074000CDE90042001C41F5801132462B46FFF7EF
:1007500053FF03B0BDE8F08F40462146F9E7001B88
:1007600061EB0201001C41F5801300185B41201869
:10077000A2F5001747EB030140EAD570B6196D41A9
:1007800011E06D084FEA360645EAC0754FEA075298
:10079000001B61EB0201001C41F5801149084FEA82
:1007A00030000019514132462B4603B0BDE8F04FEE
:1007B000FFF713BF0098012240000023D0EB020294
:1007C00063EBE073009821464FEAE074B8EB000059
:1007D00061EB0401E9E783F000435BE781F000414E
:1007E00058E7C1F30A52C1F3130140F2FF3341F459
:1007F00080119A4202DA00200146704740F23343EA
:100800009A42A2F2334202DC5242FFF79FBEFFF748
:100810008EBE000030B5041E71F1000404DB4FF001
:100820000044404264EB0101141E73F1000405DB37
:100830001C464FF00043524263EB0403994208BF49
:10084000904230BD064C074D06E0E06840F00103E1
:1008500094E8070098471034AC42F6D3FFF7A0FCA9
:10086000ECCB04080CCC0408202A06DBCB17203A7A
:1008700041FA02F043EAE07306E041FA02F3D040A5
:10088000C2F12002914008431946704770B58C1898
:1008900010F8015B15F0070301D110F8013B2A1194
:1008A00006D110F8012B03E010F8016B01F8016B81
:1008B0005B1EF9D12B0705D40023521E0DD401F87D
:1008C000013BFAE710F8013BCB1A921C03E013F846
:1008D000015B01F8015B521EF9D5A142D8D300207B
:1008E00070BD10B50146806B026C12F0500F05D040
:1008F000026CD20626D500F0D7FC10BD016C41F485
:100900000071016401688A6812F0405F17D1027EAD
:10091000AAB9CA6A12F4700F02D08A6852050ED4BE
:100920004A6822F020024A60016C21F4807101645F
:10093000016CC90403D4016C41F00101016400F0B1
:10094000B1FC10BD806BC26CBDE81040084610477A
:1009500010B5806B40210164416C41F00401416499
:1009600000F0A2FC10BD10B5806B00F09CFC10BD27
:10097000464910B54A6822F440324A604A684368E2
:100980001A434A6001684A6822F480724A6001682A
:100990004A68036942EA03224A6001684A6822F011
:1009A00040724A6001684A6883681A434A60016875
:1009B0008A6822F400628A6001688A68C3681A4300
:1009C0008A60816A6FF07062D14201688A6822F0A1
:1009D00070628A6001688A680CD0836A1A438A60F0
:1009E00001688A6822F040528A6001688A68C36A96
:1009F0001A4301E022F040528A6001688A6822F0BE
:100A000002028A6001688A68037E42EA43028A60C1
:100A100090F82010002901684A680FD042F4006263
:100A20004A6001684A6822F460424A6001684A6884
:100A3000174C436A04EB43331A4301E022F400628B
:100A40004A600168CA6A22F47002CA620168CA6A0E
:100A5000838B104C04EB03531A43CA6201688A6803
:100A600022F400728A6001688A6890F8303042EAA5
:100A700043228A6001688A6822F480628A60016881
:100A80008A68406942EA8020886010BD00230140E6
:100A900000E0FFFF0000F0FF7FB504460020029059
:100AA00003901A2064258DF804000095012301AA03
:100AB0006C21206801F04CF90095022302AA6D21F7
:100AC000206801F055F89DF809309DF808209DF840
:100AD00004105CA005F098FB9DF8080000F072FA85
:100AE0009DF804008DF80C009DF80800009520F09A
:100AF0007F008DF80D009DF809008DF80E0003238E
:100B000003AA6C21206801F023F99DF80E309DF8AE
:100B10000D209DF8041055A005F076FB00950123EB
:100B200001AA6C21206801F013F90095022302AAA2
:100B30006D21206801F01CF89DF809309DF808200F
:100B40009DF8041054A005F05FFBBDF808000123D8
:100B500040BAA0810C208DF80400009501AA6C21F8
:100B6000206801F0F5F80095022302AA6D212068A3
:100B700000F0FEFF9DF809309DF808209DF8041054
:100B800051A005F041FB9DF809009DF8041000F00C
:100B9000C00040F016008DF809008DF80C109DF88B
:100BA00008108DF80D108DF80E000095032303AA90
:100BB0006C21206801F0CCF89DF80E309DF80D20D6
:100BC0009DF804104AA005F01FFB0095012301AA1F
:100BD0006C21206801F0BCF80095022302AA6D2167
:100BE000206800F0C5FF9DF809309DF808209DF8A9
:100BF00004104AA005F008FB08208DF804000095B9
:100C0000012301AA6C21206801F0A2F800950223BB
:100C100002AA6D21206800F0ABFF9DF809309DF815
:100C200008209DF8041049A005F0EEFABDF8080070
:100C300040BA608118B1A08908B1012000E002200B
:100C400020727FBD4465627567203A2053746174D9
:100C50007573205245473A253032583A56414C3A3E
:100C600025303258253032582E0D0A004465627501
:100C700067203A2053657420537461747573205251
:100C800045473A253032583A56414C3A2530325889
:100C9000253032582E0D0A004465627567203A20CF
:100CA00041667465722053746174757320524547B0
:100CB0003A253032583A56414C3A25303258253090
:100CC00032582E0D0A0000004465627567203A20F4
:100CD000436F6E666967205245473A253032583A6D
:100CE00056414C3A25303258253032582E0D0A00E4
:100CF0004465627567203A2053657420436F6E66C1
:100D00006967205245473A253032583A56414C3AA5
:100D100025303258253032582E0D0A004465627550
:100D200067203A20416674657220436F6E6669677A
:100D3000205245473A253032583A56414C3A2530F0
:100D40003258253032582E0D0A0000004465627575
:100D500067203A2056657273696F6E205245473A94
:100D6000253032583A56414C3A25303258253032E7
:100D7000582E0D0A000000007047000001490120B4
:100D800088607047A8020020014901204860704730
:100D9000A802002010B5134CDFED130A608800EEA6
:100DA000100A1348B8EE400A20EE200ADFED0F0AC1
:100DB00020EE200AF0EE000A20EE200AF2EE040AED
:100DC00080EE201A84ED011A81886181C08820811B
:100DD0000421084800F0F8FD012800D0002020730D
:100DE00010BD0000581000200000803900000442AF
:100DF000201100200004024002220249024800F0B3
:100E0000CBBA0000581000202407002070B505461A
:100E1000C06800282AD116480188B1F57A7F01D22E
:100E20000A310180134CA08800281FD020786178F7
:100E30008842D5E9000102D202F006FA01E002F090
:100E40005BFA2078401CC0B220706178A27811440F
:100E5000814204D200202070A088401EA08005F1AD
:100E60000C00A968BDE8704003F01BBE70BD000017
:100E7000020000203000002080E80E00C3607047B0
:100E8000FEE710B50023491E06E000EB430464882A
:100E900020F813405B1C1BB28B42F6DB20F81320BA
:100EA00010BD70B50446FF20002231250FE0A35C81
:100EB00058400023060602D585EA400000E04000C5
:100EC0005B1CDBB2C0B2082BF4D3521CD2B28A42F4
:100ED000EDD370BD014800F003BB00006C0700209B
:100EE000014800F0FDBA0000980B0020014800F016
:100EF000F7BA0000BC090020014800F0F1BA000078
:100F000004090020014800F0EBBA0000A40800200A
:100F1000014800F0E5BA0000380B002001681823F2
:100F2000CAB2103AB2FBF3F2054B6FF30901032A80
:100F30009B5CC36500D9091D8165084670470000A8
:100F4000D4C3040810B5014600208B698A6A4FF0AB
:100F5000C07453B1B3F5005F15D072B1012A0CD043
:100F6000022A0AD0032A09D104E01AB1012A06D0C4
:100F7000022A03D1C96AC90100D5012010BDC96A7E
:100F8000A142FAD010BD002AF7D0012AF2D0022ADD
:100F9000F3D0032AF3D010BD30B50468256825F4DA
:100FA00080252560046863608368402B036803D054
:100FB00099600068C26030BD9A600068C16030BD51
:100FC0007047000010B50446C00702D011A005F01C
:100FD0001BF9A00702D518A005F016F9600702D585
:100FE00020A005F011F9200702D528A005F00CF982
:100FF000E00602D52CA005F007F9A00602D533A023
:1010000005F002F9600604D5BDE8104039A005F0EE
:10101000FBB810BD4465627567203A20504F5745B4
:1010200052204F4E204943204E4F20434F4E4649B9
:10103000472E0D0A000000004465627567203A20C3
:101040005643454C4C2048494748205448414E207F
:10105000414C52542E56414C52544D41582E0D0A7B
:10106000000000004465627567203A205643454CF5
:101070004C204C4F57205448414E20414C52542E46
:1010800056414C52544D494E2E0D0A00446562752E
:1010900067203A20564F4C5441474520524553450E
:1010A000542E0D0A000000004465627567203A2046
:1010B000534F43204C4F57205448414E20434F4EEE
:1010C0004649472E415448442E0D0A004465627536
:1010D00067203A20534F43204348414E474520560E
:1010E000414C554520415252495645202525312E27
:1010F0000D0A00004465627567203A20454E414262
:101100004C4520564F4C5441474520524553455479
:1011100020414C41524D2E0D0A0000000278142A45
:1011200008D239B100EB820251600178491C01708C
:10113000012070470020704772B6FEE700F044BC03
:1011400078B50024009490F83C20012A19D001229F
:1011500080F83C200A6807230568092A13D9EE683D
:101160000A3A02EB420293409E43EE600B788A6893
:101170000A3B03EB43039A400368DD682A43DA60C5
:1011800010E0022078BD2E6902EB420293409E439C
:101190002E610B788A6803EB43039A4003681D694C
:1011A0002A431A614A681F23072A13D205686E6B07
:1011B000521E02EB820293409E436E630A8893B2F2
:1011C0000A79521E02EB820293400268556B2B4350
:1011D000536327E005680D2A12D22E6BD21F02EB53
:1011E000820293409E432E630B790A88DB1F92B2E2
:1011F00003EB83039A4003681D6B2A431A6311E0D3
:10120000EE6A0D3A02EB820293409E43EE620B7946
:101210000A880D3B92B203EB83039A400368DD6AB0
:101220002A43DA621B4B0568194A9D420AD10D68B0
:10123000122D07D1556825F400055560556845F411
:101240008005556005689D421DD1134D0B68AB426A
:1012500001D0112B17D1536823F4800353605368D6
:1012600043F4000353600968A9420CD10B490C4AAE
:101270000968B1FBF2F101EB8101490000E0491E70
:1012800000910029FBD180F83C40002078BD00008F
:10129000002301400020014012000010A4020020A1
:1012A00040420F0070477047704770B504004FF020
:1012B000000503D0206C002610B107E0012070BDAE
:1012C000204600F01DF8666484F83C60206CC0067F
:1012D00010D4206C20F4885040F002002064204696
:1012E000FFF746FB6664206C20F0020040F001002E
:1012F000206400E0012584F83C60284670BD0000B1
:1013000070B586B0064614216846FEF79BFF1D495E
:101310003068884234D11C480025016841F480714E
:101320000160006800F48070059017481438016867
:1013300041F0010101600068694600F0010005907C
:101340000C2000900320CDE90105104800F04CFA74
:10135000104C0F48C4E900050015A560C4E903500E
:10136000400060618000A0614011C4E9070520468B
:10137000656200F085F908B1FFF7DEFEB463A6638D
:1013800006B070BD00200140443802400000024019
:10139000106402406C070020F8B5044600200E4699
:1013A000009094F83C10012907D0012184F83C10EA
:1013B00021688B68DB0702D011E00220F8BD8B6842
:1013C00043F001038B603649364B0968B1FBF3F1FA
:1013D00001EB410100E0491E00910029FBD1216889
:1013E0008B68DB0503D58B6823F480738B602168E1
:1013F0008B68DB0749D0236C40F20165AB4343F4B3
:10140000807323644968490505D5216C21F4005196
:1014100041F480512164216CC90404D5616C21F030
:101420000601616400E0606484F83C00A16B1F4821
:101430001D4DC863A16B1E480864A16B1D48C8649C
:1014400021686FF0220008602068416841F08061E7
:1014500041602068816841F4807181602168134691
:1014600032464C31A06B00F075F96868C006206800
:1014700002D01149884210D1816811F0405F0CD12F
:10148000816841F08041816007E0206C40F01000ED
:101490002064606C40F0010060640020F8BD000032
:1014A000A402002040420F0000230140E30800088E
:1014B00067090008510900080020014090F8351024
:1014C000022903D08021416501207047052180F861
:1014D00035100068016821F00101016000207047AB
:1014E0002DE9F84304464FF00009CDF80090634819
:1014F0004FF41651A56D0068B0FBF1F72E6894F813
:101500005C10082000FA01F131420FD021680A680E
:1015100052070BD50A6822F004020A6094F85C10A6
:101520008840A860606D40F00100606594F85C1030
:101530004FF0010808FA01F0304208D021684969EB
:10154000090604D5A860606D40F00200606594F85B
:101550005C1004208840304208D02168096889075F
:1015600004D5A860606D40F00400606594F85C10DC
:1015700010208840304218D021680968090714D526
:10158000A86020680168490304D50068000308D5F5
:10159000A16C07E00168C90503D4016821F00801C6
:1015A0000160216C09B12046884794F85C10202026
:1015B0008840304231D021680968C9062DD5A8601D
:1015C00094F8350005282068016806D0490347D5FE
:1015D000006800031DD4616C1CE021F0160101605D
:1015E0002068416921F080014161206C08B9A06C3C
:1015F00020B12068016821F00801016094F85C10B6
:101600003F208840A86084F8358084F83490216DAC
:101610001FE0E16B09B120468847606D00282BD0A0
:10162000606DC00714D0052084F83500206801687B
:1016300021F0010101600098401C0090B84203D8DD
:1016400020680068C007F6D184F8358084F83490AB
:10165000E16C002910D001B02046BDE8F0430847F6
:101660000168C905D5D4016821F01001016084F832
:10167000358084F83490CCE7BDE8F883A4020020DC
:101680002DE9F041044600F0A9F906465CB10220BC
:1016900084F83500002584F834502068016821F072
:1016A000010101600DE00120BDE8F08100F096F934
:1016B000801B052805D920206065032084F83500AB
:1016C000F2E720680068C007F0D12268116820485E
:1016D0000140D4E901031843D4E9033633431843E6
:1016E00063691843A3691843E3691843236A1843DD
:1016F0000843616A042903D1D4E90B131943084351
:10170000106020684069666A20F0070130460E4389
:10171000012704280CD1A06A0643E06A40B12046A4
:10172000FFF710FC20B14020606584F83570BAE7FF
:10173000206846612046FFF7F1FB94F85C203F21CA
:1017400091408160656584F835700020ACE7000049
:101750003F8010F02DE9F0410446866D90F834008A
:10176000002501280DD0012084F8340094F835704C
:101770000020012F07D084F8340002252846BDE858
:10178000F0810220FBE7022784F83570606520466F
:10179000FFF702FC94F85C103F208840B06020689E
:1017A000016841F016010160206C20B120680168D9
:1017B00041F0080101602068016841F00101016009
:1017C000DCE7000070B5044600F008F90546601C2F
:1017D00002D004480078044400F000F9401BA04205
:1017E000FAD370BD980200202DE9F84FDFF8B8A1B8
:1017F0000022012403254FF00F090AF1040BAAF17E
:10180000040E00BF0B6804FA02F63340B34273D1F2
:101810000F7907F00307012F01D0022F16D1876837
:101820004FEA420805FA08FC27EA0C07D1F80CC079
:101830000CFA08FC4CEA070CC0F808C04768B7432C
:101840000E79C6F3001696403E4346600E79F64385
:10185000B6070DD0C768560005FA06FC27EA0C0744
:10186000D1F808C00CFA06FC4CEA070CC0F80CC012
:101870000E7906F00306022E10D1D60800EB86087A
:10188000D8F8206057074FEAD76C09FA0CF7BE4327
:101890000F6907FA0CF73743C8F8207006684FEA5B
:1018A000420C05FA0CF7BE430F7907F0030707FA5D
:1018B0000CF7374307604E6816F4403F6DD03B4E3F
:1018C000376847F480473760366822F0030706F42C
:1018D00080460096364E07EB060CDCF80868970742
:1018E0003F0F09FA07F826EA0806DFF8C8804045E6
:1018F00003D14FF000081EE04FE0DFF8BC80404508
:1019000002D14FF0010816E0DFF8B080404502D167
:101910004FF002080FE0DFF8A880404502D14FF0F9
:10192000030808E0DFF89C80404502D14FF004082E
:1019300001E04FF0070808FA07F848EA0608CCF873
:101940000888DAF800605746D1F804C09E435FEA81
:10195000CC2C00D51E433E60DBF800605F46D1F81A
:1019600004C09E435FEA8C2C00D51E433E60DEF827
:1019700000607746D1F804C09E435FEA8C3C00D5F6
:101980001E433E60084F083F3E68D1F804C09E43A6
:101990005FEACC3C00D51E433E60521C102AFFF487
:1019A00031AFBDE8F88F0000083C014044380240E8
:1019B00000300140000002400004024000080240E4
:1019C000000C0240001002400069084000D00120D5
:1019D00070470AB1816170470904FBE701488068DC
:1019E000704700009802002070B5040025D094F8DC
:1019F0003D00002520B984F83C50204600F03EFA16
:101A0000242084F83D002068016821F00101016074
:101A10002068016841F4004101602068016821F4F8
:101A20000041016000F092FB4D4A6168914201D88B
:101A30004C4900E04C49884201D2012070BD4B491D
:101A40002368B0FBF1F15E6826F03F060E435E604E
:101A50006368934206D94FF4967359434FF47A73EF
:101A6000B1FBF3F12368491C1E6A26F03F0631439F
:101A700019626168914210D84900401EB0FBF1F232
:101A8000521CC2F30B02042A01D2042022E0B0FB54
:101A9000F1F0401CC0F30B001CE0A268F2B301EBB4
:101AA000C10303EB0116431EB3FBF6F35B1C43F4C7
:101AB00080431B0549D092B301EBC10202EB011137
:101AC000401EB0FBF1F0401CC0F30B0040F480401E
:101AD00040F400402168CA694CF6FF739A431043F2
:101AE000C861D4E9071001432068026822F0C002EF
:101AF00011430160D4E9030101432068826848F280
:101B0000FF339A4311438160D4E9050108432168FA
:101B1000CA6822F0FF021043C86001E00EE016E040
:101B20002068016841F0010101602564202084F8EB
:101B30003D00256384F83E50002070BD01EB410656
:101B4000431EB3FBF6F35B1CB3E70120C2E701EBD6
:101B50004101401EB0FBF1F0401CC0F30B00B7E7A1
:101B6000A086010080841E0000093D0040420F0055
:101B70002DE9F84F1F4690468A460446DDF8289026
:101B8000FFF72CFF054694F83D00202875D1192356
:101B900001226C492046009501F0F0FD0028F5D1A6
:101BA00094F83C00012868D0012084F83C002068AB
:101BB0000168C90703D1016841F001010160206893
:101BC000016821F400610160222084F83D001020AA
:101BD00084F83E0000262664C4F824806785608D62
:101BE00020855948E0622B464A465146204601F07E
:101BF000DBFC002878D1208D544F68B1012814D027
:101C000002282068016816D041F4806101602068D4
:101C100041698069009087E020684169816900918D
:101C2000016841F4007101607EE02068016821F4E0
:101C300080610160F0E721F4806101602068016843
:101C400041F40061E2E7032848D801280AD00228BD
:101C500014D04B46002239462046009501F08EFDF7
:101C6000D8BB27E02A464946204601F006FEA0BB25
:101C700020680069616A08704DE061E04B4600220F
:101C800039462046009501F079FD30BB2068016897
:101C900041F40071016020680069616A0870606A3F
:101CA000401C6062218D491E2185618D491E618520
:101CB00021682EE02068016821F4806101602068BD
:101CC0000069616A0870606A401C6062208D401E75
:101CD0002085608D401E6085D0E705E02A46494694
:101CE000204601F0CAFD10B10120BDE8F88F206840
:101CF0000069616A0870606A401C6062218D491E3B
:101D00002185618D491E618521684A69D243520748
:101D10000AD409690170606A401C6062208D401E0F
:101D20002085608D401E6085208D00288BD120206D
:101D300084F83D0084F83E6084F83C600020D4E7DD
:101D40000220D2E7020010000000FFFF04000100A3
:101D50002DE9F84F1F4690468A460446DDF8289044
:101D6000FFF73CFE054694F83D0020287FD119235B
:101D7000012240492046009501F000FD002876D15F
:101D800094F83C00012872D0012084F83C002068BF
:101D90000168C90703D1016841F0010101602068B1
:101DA000016821F400610160212084F83D001020C9
:101DB00084F83E0000262664C4F824806785608D80
:101DC00020852D48E0622B464A465146204601F0C8
:101DD00061FC90B9206841698069009036E02A462C
:101DE0004946204601F07CFD50B1206C042804D106
:101DF0002068016841F4007101600120BDE8F88F9E
:101E0000606A216800780861606A401C6062618DC8
:101E1000491E6185218D491E89B221852268536939
:101E2000DB435B070BD451B100781061606A401C42
:101E30006062608D401E6085208D401E20852A4690
:101E40004946204601F074FC0028CED1208D0028A0
:101E5000C5D154F83D0B016841F4007101602020A8
:101E600004F81E09E67766770020C7E7FFE702203F
:101E7000C4E70000020010000000FFFF10B586B0AC
:101E8000044614216846FEF7DDF9134920688842AC
:101E900020D11248016841F00201016000686946E2
:101EA00000F002000590C020009012200190012057
:101EB000029003200390042004900948FFF794FC4B
:101EC00006481030016841F400110160006800F418
:101ED0000010059006B010BD00540040303802409C
:101EE0000004024002488168027811448160704712
:101EF000980200200B4810B5016841F400710160A0
:101F0000016841F480610160016841F48071016001
:101F1000032000F06FF8002000F006F800F024F82D
:101F2000002010BD003C024070B50D4D04464FF43A
:101F30007A712878B1FBF0F00A490968B1FBF0F03A
:101F400000F099FE48B9102C07D200222146501EFD
:101F500000F030F800206C6070BD012070BD000002
:101F600098020020A40200200A4808B5016841F444
:101F700080410160006800F4804000900548001F27
:101F8000016841F080510160006800F080500090CD
:101F900008BD000044380240002809DB00F01F02A1
:101FA000012191404009800000F1E020C0F80011BB
:101FB00070470000F0B40E4B1B680C46C3F30223BD
:101FC000C3F10705042D00D90425191D072901D2E5
:101FD000002300E0DB1E012606FA05F1491E214020
:101FE00099409E40761E16403143F0BC04F030B953
:101FF0000CED00E0064900F0070208684FF6FF0309
:10200000184040EA0220034A10430860704700006D
:102010000CED00E00000FA052DE9F0470E46050042
:1020200065D0DFF81481D8F80000F7B200F007009F
:10203000B04207D288F80070D8F8000000F007001E
:10204000B04254D128683D4C810712D5400703D5D2
:10205000206840F4E05020602878000703D520680D
:1020600040F4604020602068A96820F0F000084338
:1020700020602878C0072DD03049686808390128C9
:1020800012D0022813D0032811D00968890700292B
:102090002DDA216821F0030101432160FFF79EFC46
:1020A000814641F2883A0EE009688903EFE7096842
:1020B0008901ECE7FFF792FCA0EB0901514502D939
:1020C0000320BDE8F0872068696800F00C00B0EBE1
:1020D000810FEFD1D8F80010404601F00701B1425E
:1020E00007D90770006800F00700B04201D0012056
:1020F000E7E72878400705D52068E96820F4E05034
:10210000084320602878000706D52068296920F454
:10211000604040EAC100206000F038F82168084AB9
:10212000C1F30311515CC8400649086006480068C5
:10213000FFF7FAFE0020C4E7003C024008380240E6
:10214000DCC30408A40200209C02002004480549C6
:1021500000680968044AC1F38221515CC840704795
:10216000A402002008380240ECC3040804480549D2
:1021700000680968044AC1F34231515CC8407047A5
:10218000A402002008380240ECC30408154810B52A
:10219000006810F00C02144813D01449042A0FD020
:1021A000082A0ED10F4C241F2268236802F03F0238
:1021B0005B0207D52068C0F38810A0FB010106E090
:1021C000084610BD2168C1F38811A1FB000100235E
:1021D000FEF700F82168C1F30141491C4900B0FB3A
:1021E000F1F010BD083802400024F400001BB700D5
:1021F0002DE9F84F04006ED02078DFF84C93C0072B
:10220000A9F104054AD009F104000168C1F3810174
:10221000012908D00068C0F3810002280AD1D9F84A
:102220000000400206D52868800337D56068002882
:10223000E1D033E06068B0F5803F10D0B0F5A02F5A
:10224000286810D020F480302860286820F480208E
:1022500028606068A8B1FFF7C1FB06460DE028685A
:1022600040F48030F4E740F480202860F7E700BFB6
:10227000FFF7B4FB801B642873D828688003F7D568
:102280000CE0FFF7ABFB064605E000BFFFF7A6FB3F
:10229000801B6428F0D828688003F7D42078DFF802
:1022A000AC8280074FF0000A3ED5A748001D0168A8
:1022B00011F00C0F08D00068C0F3810002280BD188
:1022C000D9F80000400207D42868800716D5E068D6
:1022D000012800D112E033E1E068B8B10120C8F86C
:1022E0000000FFF77BFB064605E000BFFFF776FB2B
:1022F000801B0228C0D828688007F7D52868216984
:1023000020F0F80040EAC10028600DE0C8F800A005
:10231000FFF764FB064604E0FFF760FB801B022822
:102320001FD828688007F7D42078000722D5864F69
:1023300087486169703771B101210160FFF74EFB79
:10234000064604E0FFF74AFB801B022809D83868DC
:102350008007F7D50EE0C0F800A0FFF73FFB064668
:1023600005E082E0FFF73AFB801B02287DD8386841
:102370008007F7D42078400768D5DFF8CCB1002774
:102380000BF13C0BDBF80000C0000BD4DBF80010B5
:1023900041F08051CBF80010DBF80000012700F07D
:1023A000805000906B4E3068C00510D4306840F407
:1023B00080703060FFF712FB009005E0FFF70EFB26
:1023C0000099401A022850D83068C005F6D55E4EF4
:1023D000A0686C3601280FD00528306810D020F096
:1023E00001003060306820F004003060A068B8B1AF
:1023F000FFF7F4FA00900FE0306840F00100F4E7D6
:1024000040F004003060F7E7FFF7E8FA0099411A5E
:1024100041F28830814266D830688007F4D50EE0FA
:10242000FFF7DCFA009007E0FFF7D8FA0099411AAD
:1024300041F28830814256D830688007F4D42FB1F9
:10244000DBF8001021F08051CBF80010A069C8B370
:102450003D49091D0968C1F3810102294AD00228BA
:10246000504607D0C8F8600000E03CE0FFF7B6FA3D
:1024700004463BE04746C8F86000FFF7AFFA06465F
:1024800005E000BFFFF7AAFA801B02282BD82868B6
:102490008001F7D4D4E907010843A16A2E4A49080C
:1024A00002EB0141626A41EA8211084394F82C1060
:1024B00040EA0161C9F8001001203866FFF78EFA82
:1024C000044606E03EE000BFFFF788FA001B022842
:1024D00009D828688001F7D534E000BFFFF77EFAFD
:1024E000001B022802D90320BDE8F88F286880016C
:1024F000F4D427E00128F7D0D9F80000E26900F40D
:10250000800191421CD1226A00F03F01914217D113
:1025100047F6C071626A0140B1EB821F10D1A26A16
:102520004FF0FF3300F4403103EB5202B1EB024FA6
:1025300006D194F82C1000F07060B0EB016F01D060
:102540000120D1E70020CFE70438024000004742D5
:10255000800E4742007000400000FFFF10B5FEF7FC
:102560000BFC10BD704770B50446B0F85000002554
:102570000104206801F016FF18B1A16B0143A163AB
:1025800004E00021206801F0EBFE0546C5F343207E
:1025900070BD0000F8B5056B04460068416B090486
:1025A0001BD5290719D5D4E90A56002E14D00027C7
:1025B000206801F0DFFE05F8010B010A05F8011B98
:1025C000010C05F8021B000E361F7F1C05F8010CDC
:1025D000082FEDD3C4E90A56F8BD416B4FF0000651
:1025E000C9054FF0010744D5390281632068C16BEA
:1025F0004CF23A329143C1632068C16A21F0010173
:10260000C16228071DD515F0220F09D0206801F0FE
:10261000E3FE28B1A16B0143A1632046FFF7A2FFAF
:10262000216840F23A50886384F834702663A80722
:1026300003D0204600F0B2F8F8BD204600F0B2F812
:10264000F8BD2806FCD5A80609D5206801F0C4FE0F
:1026500028B1A16B0143A1632046FFF783FFA807C0
:10266000EED12068C16A21F00801C16284F834709B
:10267000E3E7416B490424D5290722D5D4E908565C
:10268000002EDDD05FF0000715F8010B009015F863
:10269000011B361F40EA0120009015F8021B40EA9A
:1026A0000140009015F8011C40EA01600090694665
:1026B000206801F072FE7F1C082FE5D3C4E908569C
:1026C000F8BD416B40F23A221142F9D0416B8907C3
:1026D00003D5A16B41F00201A163416B090703D54A
:1026E000A16B41F00801A163416B890603D5A16B81
:1026F00041F02001A163416BC90603D5A16B41F0F4
:102700001001A163416B890503D5A16B41F008015C
:10271000A16340F23A7181632068C16B40F23A32A2
:102720009143C163206801F057FEA16B0843A06389
:10273000280706D584F8347026632046FFF712FF79
:10274000F8BD2806FCD515F0300F0CD0E16B114810
:102750000865E06BFEF7B2FE0028F1D0E06BBDE843
:10276000F84001F005BFA8070CD0216C0A480865A5
:10277000206CFEF7A3FE0028E2D0206CBDE8F840F4
:1027800001F0D4BEA66384F8347026632046FFF7B8
:10279000E5FEF8BD714500082D45000810B5FEF7AF
:1027A000EDFA10BD10B5FEF7EFFA10BD704700004E
:1027B00038B5016804464A688868C043430606D5B0
:1027C000C30704D1D3435B0601D4216C05E0830722
:1027D00008D4D3431B0605D4616C01B02046BDE884
:1027E00030400847830603D5430601D5C30551D4BD
:1027F000D3439B064ED443060AD494F85130032B9E
:1028000049D0636D43F004036365CB688B68009324
:10281000830609D4636D43F0010363658B680093FD
:102820000B6823F040030B60C00506D4606D40F0D8
:1028300008006065206880680090606D002829D0DD
:102840002068416821F0E0014160012084F85100D6
:10285000900701D4D00722D02068416821F00301FD
:102860004160114DE06C40B10565E06CFEF726FE5D
:1028700018B1606D40F040006065A06C002809D080
:102880000565A06CFEF71AFE002803D0606D40F0CD
:102890004000606538BDC8688868009038BD204633
:1028A000FFF784FF38BD0000F148000870B5040050
:1028B00009D0606A002540B125616561A56294F880
:1028C000510040B10CE0012070BD6068B0F5827F1E
:1028D000F4D0E561F2E784F85050204600F044F867
:1028E000022084F851002068016821F04001016055
:1028F000A088218900F4827001F404410843A18971
:1029000001F400610843217C01F002010843217DAC
:1029100001F001010843218B01F400710843217F7C
:1029200001F03801084394F8201001F080010843B9
:10293000218D01F40051084321680860A069042139
:1029400001EA104094F8241001F0100108432168B6
:1029500048602068C16921F40061C161656501209A
:1029600084F85100002070BD70B586B00646142171
:102970006846FDF767FC24493068884242D1234805
:102980000025016841F480510160006800F4805026
:1029900005901E481438016841F00101016000688B
:1029A000694600F001000590E02000900220CDE98A
:1029B000010503200390052004901548FEF714FF3D
:1029C000154C144820604FF0806060604020C4E9DE
:1029D00002050001C4E904054FF44030A561C4E9D3
:1029E000075020466562FEF74BFE08B1FEF7A4FBD8
:1029F000B464002211462320A663FFF7DBFA2320EC
:102A0000FFF7CAFA06B070BD0030014044380240FA
:102A10000000024040640240BC0900202DE9F84F4C
:102A2000044690F8500000271D46164689460128A6
:102A30000DD04FF0010B84F850B0FEF7CFFF804669
:102A400094F85100BA46012804D0022793E00220EE
:102A5000BDE8F88FB9F1000F73D0002E71D00320BC
:102A600084F85100C4F854A0C4F83090A686E686D5
:102A7000C4F838A0A4F83CA0A4F83EA0C4F844A030
:102A8000C4F840A0A068B0F5004F09D120680168E3
:102A900021F0400101602068016841F4804101603B
:102AA00020680168490603D4016841F040010160D3
:102AB000E068B0F5006F606803D030B3012E24D019
:102AC00041E008B1012E1CD1206B21680088C8604C
:102AD00006E020688168890709D5216B0988C160F3
:102AE000206B801C2063E08E401EE08609E0FEF72C
:102AF00075FFA0EB0800A84202D3681C01D031E0AA
:102B00007DB3E08E0028E4D120E0206B21680078BE
:102B1000087306E020688168890709D5216B097868
:102B20000173206B401C2063E08E401EE0860AE0AB
:102B3000FEF754FFA0EB0800A84203D3681C02D0A4
:102B400010E017E06DB1E08E0028E3D1424629463F
:102B5000204601F01DFF08B120206065A06818B173
:102B600006E0FFE7032706E02068C1688068009060
:102B7000606D00B1012784F851B084F850A0384648
:102B800066E700002DE9F041044690F85000002669
:102B9000012809D0012784F8507094F851000025CD
:102BA000012804D002264EE00220BDE8F08189B160
:102BB00082B1032084F8510065652163A286E28614
:102BC000A56365642564A587E587A068B0F5004F17
:102BD00002D00BE0012636E02068016821F04001B8
:102BE00001602068016841F480410160A16C1848CF
:102BF0000864A16C1748C863A16C1748C864A06C2E
:102C00000565E38E2268216B0C32A06CFEF7A2FDF5
:102C100038B1606D40F010006065012684F8517095
:102C200011E020680168490603D4016841F04001C1
:102C300001602068416841F02001416020684168DE
:102C400041F00201416084F850503046ADE7000089
:102C5000234900082D49000801490008034988421A
:102C600003D10348006814F0BBBE7047640900201C
:102C700070010020704710B5401EB0F1807F01D375
:102C8000012010BD4FF0E02460610F21601703F0B8
:102C9000DFFA0020A06107202061002010BD7047EE
:102CA0007047000070B590F83C20012A2CD0012418
:102CB00080F83C40022280F83D2003685A689D68F5
:102CC00022F070060A6832435A60104B02689A423A
:102CD0000ED0B2F1804F0BD00D4B9A4208D00D4B65
:102CE0009A4205D00C4B9A4202D00C4B9A4204D126
:102CF000496825F080031943916080F83D40002128
:102D000080F83C10084670BD022070BD00000140F4
:102D10000004004000080040000C0040004001405A
:102D200010B5040003D094F83D0010B107E0012075
:102D300010BD002084F83C00204600F01FF802205F
:102D400084F83D00211D206801F0DCFF012084F89B
:102D5000460084F83E0084F83F0084F8400084F880
:102D6000410084F8420084F8430084F8440084F869
:102D7000450084F83D00002010BD000008B5016842
:102D80001748814212D11748016841F001010160E2
:102D90000068002200F00100009011461920FFF7A2
:102DA00009F9BDE808401920FFF7F6B80D480E4AAA
:102DB000001F914207D1016841F0020101600068E3
:102DC00000F0020009E0094A914207D1016841F090
:102DD00008010160006800F00800009008BD0000D4
:102DE000000001404438024000040040000C004054
:102DF00090F83D10012901D001207047022180F890
:102E00003D100168CA6842F00102CA6000680E49BC
:102E100088420ED0B0F1804F0BD00C49884208D0C8
:102E20000B49884205D00B49884202D00A498842A2
:102E300004D1816801F00701062903D0016841F03F
:102E400001010160002070470000014000040040C3
:102E500000080040000C00400040014070B50446EE
:102E600090F83C000025012817D0012684F83C602A
:102E7000022084F83D002068826822F0770222F464
:102E80007F4282600868502838D00DDC20284FD05F
:102E900005DC90B3102811D14AE0022070BD302823
:102EA00046D040280AD13BE060282FD070280DD0B2
:102EB000B0F5805F03D0B0F5005F12D0012584F833
:102EC0003D60002084F83C00284670BDCB68D1E905
:102ED0000121206801F06FFF2068816841F07701CF
:102EE00009E0CB68D1E90121206801F064FF206886
:102EF000816841F480418160E1E719E0CA6849686E
:102F0000206802F00DF85021206806E0CA68496880
:102F1000206802F016F86021206801F056FFCEE725
:102F2000CA684968206801F0FBFF40212068F4E787
:102F3000226801461046F0E7704770B50446006805
:102F400001694FF00005C943890715D4C168C94319
:102F5000890711D4E91E016101202077206880696A
:102F60008007204602D0FFF7E7FF04E000F0D6F824
:102F7000204600F068F9257720680169C9434907B0
:102F800017D4C168C943490713D46FF00401016124
:102F9000022020772068806910F4407F204602D00C
:102FA000FFF7CAFF04E000F0B9F8204600F04BF943
:102FB000257720680169C943090716D4C168C94348
:102FC000090712D46FF008010161042020772068FE
:102FD000C0698007204602D0FFF7AEFF04E000F092
:102FE0009DF8204600F02FF9257720680169C94334
:102FF000C90617D4C168C943C90613D46FF01001BC
:103000000161082020772068C06910F4407F2046C5
:1030100002D0FFF791FF04E000F080F8204600F0B6
:1030200012F9257720680169C943C90708D1C16829
:10303000C943C90704D1891E0161204600F094F9F3
:1030400020680169C943090609D4C168C943090652
:1030500005D46FF0800101612046FFF720FE206853
:103060000169C943490609D4C168C943490605D461
:103070006FF040010161204600F088F92068016985
:10308000C94389060BD4C168C943890607D46FF0C8
:10309000200101612046BDE87040FFF701BE70BD10
:1030A00010B586B0044614216846FDF7CBF82368B6
:1030B000154C0021154A0220A3420FD1136843F09A
:1030C00002031360126802F0020205920090CDE93B
:1030D0000101CDE9031069460D4811E00D4CA342F2
:1030E00010D1136843F001031360126802F001026B
:1030F00005920090CDE90101CDE90310694606482B
:10310000FEF772FB06B010BD0004004030380240EC
:1031100000040240000C004000000240704770B5FF
:10312000044690F83C0000260D4601280FD00120EF
:1031300084F83C006AB1042A1DD0082A2FD00C2A3A
:103140003FD00126002084F83C00304670BD0220AC
:1031500070BD206801F042FE2068816941F00801DD
:1031600081612068816921F00401816120688169A1
:103170002A69114311E0206801F058FE2068816936
:1031800041F4006181612068816921F4806181617D
:10319000206881692A6941EA02218161D2E72068B9
:1031A00001F070FE2068C16941F00801C16120682A
:1031B000C16921F00401C1612068C1692A69114314
:1031C00011E0206801F08AFE2068C16941F40061C5
:1031D000C1612068C16921F48061C1612068C16951
:1031E0002A6941EA0221C161ACE710B5040003D0AD
:1031F00094F83D0010B107E0012010BD002084F8D4
:103200003C00204600F01EF8022084F83D00211DFD
:10321000206801F077FD012084F8460084F83E0024
:1032200084F83F0084F8400084F8410084F84200AC
:1032300084F8430084F8440084F8450084F83D0095
:10324000002010BD7047704710B50446022249B1F6
:1032500004290ED0082913D094F84100012816D073
:10326000012010BD94F83E000128F9D184F83E20D9
:103270000FE094F83F000128F2D184F83F2008E0E5
:1032800094F840000128EBD184F8402001E084F854
:1032900041200122206801F081FD12492068884206
:1032A00003D1426C42F400424264206888420ED04E
:1032B000B0F1804F0BD00C49884208D00B498842AE
:1032C00005D00B49884202D00A49884204D181685E
:1032D00001F00701062903D0016841F001010160F6
:1032E000002010BD00000140000400400008004024
:1032F000000C00400040014030B504460D46006817
:10330000002201F04BFD174B41F2111120688A1089
:10331000984209D1036A0B4206D1036A134203D1D2
:10332000436C23F4004343642068036A0B4206D1D4
:10333000016A114203D1016821F0010101600120FD
:103340003DB1042D08D0082D09D084F8410000209B
:1033500030BD84F83E00FAE784F83F00F7E784F8D0
:103360004000F4E700000140064910B5884207D14B
:10337000054801F0B3FEBDE81040012020F082BBFB
:1033800010BD00001C0A0020F80B0020704770B52B
:10339000040004D094F83D00002510B106E001209F
:1033A00070BD84F83C50204600F022F8242084F8B8
:1033B0003D002068C16821F40051C160204601F041
:1033C0009DFE2068016921F49041016120684169F6
:1033D00021F02A0141612068C16841F40051C160B7
:1033E0002564202084F83D0084F83E00002070BD54
:1033F0002DE9F04186B0064614216846FCF722FF0D
:103400002B49306888424FD12A480024016841F096
:1034100020010160006800F0200005902548143864
:10342000016841F0040101600068694600F0040091
:103430000590C02000900220CDE9010403200390F4
:10344000082004901C48FEF7CFF91D4D1B484FF093
:103450002067E5E8020740204FF48068A5E81101E5
:10346000174845F81449AC61EC612C626C62FEF7B8
:1034700007F908B1FDF760FE7563AE63104D0F48A4
:10348000603590382860C5E90174C5E903486C616E
:10349000AC61EC612C6228466C62FEF7F1F808B171
:1034A000FDF74AFEB563AE6306B0BDE8F0810000EB
:1034B000001401404438024000080240B864024051
:1034C000380B00202DE9F843044690F83D001F46D4
:1034D00016460D4620284CD1C5B1BEB194F83C002B
:1034E000012846D0012084F83C004FF00008C4F8C1
:1034F0004080212084F83D00FEF770FAA6848146C2
:10350000E684A068B0F5805F03D004E00120BDE848
:10351000F883206928B12E465FF0000584F83C80CE
:103520000EE00026FAE78021204601F06DFEA0B9EA
:10353000AEB116F8010B21684860E08C401EE084B3
:10354000E08C4B464FF0000200970028EBD14FF083
:103550004001204601F058FE30B10320D7E735F88E
:10356000020BC0F30800E6E7202084F83D000020AD
:10357000CDE70220CBE7FEE701684A69D243520556
:103580000FD46FF480624A61002140F8301F20227E
:1035900042738173026942F00402026101730120E7
:1035A00070470020704700002DE9F84F0446C06ABC
:1035B0001E4693460D4621680A6842F480620A60FE
:1035C000082807D0012805D010F5803F02D0206BD5
:1035D000112804D12068016841F4807101604FF026
:1035E00001195B46002249462046009600F0C6F8C5
:1035F0004FF4007840B120680068C00501D5C4F8D8
:1036000040800320BDE8F88F2069DFF884A0B0F582
:10361000804F0FD00620216800EAD51747F0F00050
:10362000086133465A460AF10601204600F0DAF8EE
:1036300058BB03E0E8B240F001001CE02168E8B2AA
:10364000086133465A465146204600F0CBF8E0B9AF
:103650002068416981690091016841F480710160CD
:103660005B46002249462046009600F087F8002875
:10367000C1D147F0F1002168086133465A465146EE
:10368000204600F0AFF80028BCD00120BAE70000C7
:1036900002000100F8B50446C06A1E460D461746F2
:1036A000082807D0012805D010F5803F02D0206BF4
:1036B000122804D12068016841F48071016013462A
:1036C00000224FF001112046009600F057F840B15B
:1036D00020680068C00502D54FF400702064032004
:1036E000F8BD2069B0F5804F0ED00620216800EAB1
:1036F000D51040F0F000086133463A460B492046A9
:1037000000F070F878B902E005F0FE0000E0E8B2E1
:1037100021680861054933463A46891F204600F072
:1037200061F80028DCD00120F8BD0000080001008D
:1037300070B516460D4604460DE02046FFF71CFF07
:1037400008B1012070BD681C05D0FEF747F9801B49
:10375000A84207D835B120684069C0434007ECD47F
:10376000002070BD002044F8300F20216173A07349
:10377000216941F0200121612073E2E72DE9F04742
:103780001E4690460D460446C1F30747DDF82090DB
:1037900008E0701C06D0FEF721F9A0EB0900B0424A
:1037A0000FD876B12068012F18D0806925EA000073
:1037B0000004000C14D000214145EAD00020BDE8EF
:1037C000F087002044F8300F20216173A073216935
:1037D00041F02001216120730120F0E74069E5E715
:1037E0000121E9E72DE9F0479A4691460E46044645
:1037F00000254FF02008C1F3074725E02068406905
:10380000C043400514D42068016841F40071016090
:1038100021686FF480604861256384F83D8084F8F6
:103820003E50206C40F00400206484F83C501FE0BF
:10383000B9F1FF3F08D0FEF7D1F8A0EB0A014945E6
:103840000CD8B9F1000F09D02068012F13D080697E
:1038500026EA00000004000C0BD0CFE744F8305FEC
:1038600084F80D80A573206940F020002061257345
:103870000120BDE8F0874069EAE72DE9F041002525
:1038800090460E460446202717E04069C043C00614
:103890000CD454F8301B6FF01000486144F81059F4
:1038A0006777A577206A2062257717E0FEF796F8FC
:1038B000A0EB0800B04208D83EB120684169C94376
:1038C0004906E2D40020BDE8F08144F8305F677318
:1038D000A573206940F02000206125730120F2E7E4
:1038E00070B516460D4604460DE02046FFF744FE2F
:1038F00008B1012070BD681C05D0FEF76FF8801B71
:10390000A84207D835B120684069C0430006ECD40E
:10391000002070BD002044F8300F20216173A07397
:10392000216941F0200121612073E2E710B5029C7A
:103930000160828083718460C46010BD10B504464C
:10394000C068002810D1A07960B10022A271A188BE
:103950002068FEF73EF804F10C00A168BDE81040B5
:1039600001F09FB80122F1E710BD2DE9F0410446B6
:103970001D4616460F462A2000F004F9204600F0A6
:10398000F7F8304600F0F4F82B2000F0FBF838464A
:1039900000F0EEF8284600F0EBF8BDE8F0412C20EE
:1039A00000F0F0B810B5714C002210212046FEF74F
:1039B00010F86420FDF706FF012210212046FEF7D3
:1039C00008F86420FDF7FEFE6420FDF7FBFE1120E1
:1039D00000F0D8F87820FDF7F5FE362000F0D2F898
:1039E000002000F0E3F83A2000F0CCF8552000F079
:1039F000DDF8B22000F0C6F81F2000F0D7F81F2035
:103A000000F0D4F8002000F0D1F8332000F0CEF818
:103A1000332000F0CBF8B72000F0B4F8352000F0E8
:103A2000C5F8BB2000F0AEF82B2000F0BFF8C02096
:103A300000F0A8F82C2000F0B9F8C22000F0A2F89D
:103A4000012000F0B3F8C32000F09CF80F2000F034
:103A5000ADF8C42000F096F8202000F0A7F8C620AA
:103A600000F090F8132000F0A1F8D02000F08AF8C0
:103A7000A42000F09BF8A12000F098F8D62000F0D8
:103A800081F8A12000F092F8E02000F07BF8F0200F
:103A900000F08CF8042000F089F8072000F086F888
:103AA000042000F083F8042000F080F8042000F0E7
:103AB0007DF8252000F07AF8332000F077F83C20DC
:103AC00000F074F8362000F071F8142000F06EF861
:103AD000122000F06BF8292000F068F8302000F088
:103AE00065F8E12000F04EF8F02000F05FF80220C9
:103AF00000F05CF8042000F059F8052000F056F8BA
:103B0000052000F053F8212000F050F8252000F0A7
:103B10004DF8322000F04AF83B2000F047F83820FA
:103B200000F044F8122000F041F8142000F03EF8B4
:103B3000272000F03BF8312000F038F8E42000F0B6
:103B400021F81D2000F032F8002000F02FF80020AE
:103B500000F02CF8212000F015F8292000F012F8D0
:103B6000BDE810402C2000F00DB800000008024015
:103B700010B50446000A00F019F8E0B2BDE81040A4
:103B800000F014B870B5084C05460022012120460B
:103B9000FDF71FFF284600F009F82046BDE87040F9
:103BA00001221146FDF715BF0004024001B54FF494
:103BB000FA73012269460248FEF730FF08BD000093
:103BC0006409002070B50D460446012211460548DF
:103BD000FDF7FFFEAAB22146BDE870400248FEF79D
:103BE000D1BF0000000402406409002010B500228B
:103BF00003781DE000EB820464688C4216D100EB70
:103C000082030021596003785B1E037006E000BF49
:103C100000EB8203521C9C68D2B25C600378934232
:103C2000F6D800EB82004160012010BD521CD2B2D8
:103C30009342DFD8002010BD026000228280C28043
:103C400002728281428101614161062101767047E1
:103C500070B50446406980BB207E09250326801F7D
:103C6000072830D2DFE800F004132A151C2F2600A5
:103C70002046FCF711FF207A012802D0022803D049
:103C800021E0257626721EE0082020761BE02576AE
:103C900019E06421204600F0F5FAA0800A20F4E73C
:103CA0006421204600F01AFBE0800C2020760520DD
:103CB000207208E0FDF76EF8E3E709E006202076C1
:103CC00004A002F0A1FA04F11400216900F0E9FE59
:103CD000207A70BD4465627567203A206572726F04
:103CE000723A4D4158313730343820B2BBD4DACF34
:103CF000DF0D0A007FB500211B4800910191029160
:103D0000184A0391026001244FF440320461C0E973
:103D10000121047680F82010144AC0E90A21022506
:103D2000C561C16080F830404461FDF7BEFA08B15A
:103D3000FDF702FA07200095CDE9014069460A48DF
:103D4000FDF7FEF908B1FDF7F7F90320CDE900050D
:103D500069460548FDF7F4F9002801D0FDF7ECF9B4
:103D60007FBD000000200140240700200100000F5B
:103D70001D4808B5016841F4800101600068002217
:103D800000F48000009011463820FEF713F9382027
:103D9000FEF702F9002211463920FEF70BF939200F
:103DA000FEF7FAF8002211463A20FEF703F93A200E
:103DB000FEF7F2F8002211463B20FEF7FBF83B200D
:103DC000FEF7EAF8002211464520FEF7F3F84520F9
:103DD000FEF7E2F8002211464620FEF7EBF8BDE8B8
:103DE00008404620FEF7D8B8303802402DE9F043AD
:103DF00087B014216846FCF725FA3648002401688C
:103E000041F080010160016801F0800105910168C5
:103E100041F004010160016801F0040105910168AD
:103E200041F001010160016801F0010105910168A3
:103E300041F002010160016801F002010591016891
:103E400041F0080101600068234F00F00800059070
:103E5000002211213846FDF7BCFDDFF880800022EA
:103E600010214046FDF7B5FDDFF8749000220121D6
:103E70004846FDF7AEFD0E2001258DE8310069466C
:103E80004046FDF7B1FC11200326CDE90005CDE940
:103E9000024669463846FDF7A7FC1020CDE900052B
:103EA000CDE9024669464046FDF79EFC0396009523
:103EB000CDE9015469464846FDF796FC0420CDE95A
:103EC0000004694648460294FDF78EFC07B0BDE841
:103ED000F083000030380240000002400008024039
:103EE000000402400D4810B50B4901600C494160C7
:103EF00000214FF480428160C0E903124161816179
:103F0000C1610162FDF770FD002803D0BDE81040DB
:103F1000FDF712B910BD000000540040CC0700208E
:103F2000A0860100104810B50E4901604FF482715F
:103F30004160002102228160C0E903120122426136
:103F40005202C0E906210162416281620A21C16216
:103F5000FEF7ACFC002803D0BDE81040FDF7ECB83C
:103F600010BD0000003001406409002010B586B08B
:103F70000024184800940194029403940494144972
:103F8000059401606321C0E9011440F2E731C0E902
:103F900003148021C0E90541FEF7C2FE08B1FDF718
:103FA000CBF84FF48050009069460A48FEF756FF60
:103FB00008B1FDF7C1F8049404A906480594FEF77A
:103FC00071FE002801D0FDF7B7F806B010BD000063
:103FD000000001401C0A002010B58EB00024079498
:103FE000089409940A940B941C2168460C94FCF7DD
:103FF00029F91F481D4901600521C0E90114642108
:10400000C0E9031480218161FEF78AFE08B1FDF743
:1040100093F84FF48050079007A91548FEF71EFF4C
:1040200008B1FDF789F81248FFF7DFF808B1FDF78E
:1040300083F80B940BA90E480C94FEF733FE08B1DD
:10404000FDF77AF8602000903220CDE901040C22BF
:10405000694607480494FFF762F808B1FDF76CF869
:104060000348FFF71DF80EB010BD0000000400402B
:10407000640A002010B58EB00024079408940994B7
:104080000A940B941C2168460C94FCF7DBF820483A
:104090001E4901600A21C0E9011440F6C411C0E9BB
:1040A000031480218161FEF73BFE08B1FDF744F85F
:1040B0004FF48050079007A91548FEF7CFFE08B1CE
:1040C000FDF73AF81248FFF790F808B1FDF734F819
:1040D0000B940BA90E480C94FEF7E4FD08B1FDF714
:1040E0002BF86020009040F2E240CDE90104042268
:1040F000694607480494FFF712F808B1FDF71CF869
:104100000348FEF7CDFF0EB010BD0000000C0040CC
:10411000AC0A00200C4810B50A4901604FF4E131A7
:104120004160002181600C22C160C0E904128161FC
:10413000C161FFF72CF9002803D0BDE81040FCF75F
:10414000FBBF10BD00140140F40A00202DE9FF411F
:1041500004460020019002900390100A8DF804009C
:104160000A9E8DF805204FF47A771D460097884601
:10417000022301AA2068FDF7EBFD40B90097334602
:104180002A4641462068FDF7F3FC002800D00120B4
:1041900004B0BDE8F08138B54FF47A74009400693A
:1041A000FDF7E6FC002800D0012038BD2DE9FF41D5
:1041B00000240194160A0A9D8DF804600294039469
:1041C0008DF8052045B101AA04E01E5D1719641C95
:1041D000BE70E4B2AC42F8D34FF47A720092AD1CD8
:1041E000EBB2006901AAFDF7B3FD002800D0012061
:1041F00004B0BDE8F081FEE7FEE7704710B500238C
:104200000C4A052811D2DFE800F00305080C120063
:10421000142003E05020507006E0962050709370F8
:1042200003E00520507002209070918010BD537003
:10423000F5E70000300000207CB5044610A064259E
:1042400000680323CDE9005001AA6C212068FDF726
:104250007FFD6420FDF7B6FA06208DF804000020EB
:104260008DF805009DF80600009540F060008DF87F
:104270000600032301AA6C212068FDF769FD7CBDBF
:10428000FE540000F8B50C4613490546042008709A
:1042900000940A4601236C212868FDF759FD40F27D
:1042A0004D1640B90C4A00940223921C6D212868D7
:1042B000FDF75EFC08B13046F8BD0748801C417828
:1042C000007801EB0020C0F30720642800D96420A7
:1042D0000149091F0880F8BD3A000020F8B50C46D6
:1042E0001A4905460220087000940A4601236C21F1
:1042F0002868FDF72DFD40F24D1640B9134A009491
:104300000223921C6D212868FDF732FC08B130466B
:10431000F8BD0E480D4C801C241F4178007801EB3D
:10432000002080B2FCF798F89FED091B53EC112B8D
:10433000FBF7B1FF9FED081B53EC112BFCF71DF8A9
:10434000FCF797F880B26080F8BD00003A000020CA
:1043500000000000008853400000000000408F4033
:1043600008444069704700000148FEF713B9000097
:1043700020080020D0F8800070470A688260D1E9E8
:1043800001231A43D1E903310B43C1681A436FF388
:104390000B011143C160002070470968C0F880100C
:1043A0000020704710B585B004460D20CDE90010FF
:1043B00040200290002003904FF4806004906946F2
:1043C0002046FFF7DAFF41F288320D21204600F047
:1043D0001DF805B010BD000010B585B004460021E1
:1043E0000C20CDE900104020CDE90201000104902D
:1043F00069462046FFF7C1FF034A0C21204600F022
:1044000005F805B010BD000000E1F505454B10B5FD
:104410001B684FF4FA54B3FBF4F353435B1E02D210
:104420004FF0004010BD426B12F0450FF6D0120560
:10443000F4D4426B520703D504218163084610BDB2
:10444000426BD20702D00121816305E0C52282635D
:104450000269D2B28A4201D0012010BD0021FFF7CB
:104460007FFF3149084201D1002010BD002802DA47
:104470004FF0007010BD410001D5402010BD8100FB
:1044800001D5802010BDC10002D54FF4807010BD51
:10449000010102D54FF4007010BD410102D54FF467
:1044A000806010BDC10102D54FF4006010BD010253
:1044B00002D54FF4805010BD410202D54FF4005098
:1044C00010BD810202D54FF4804010BDC10202D55B
:1044D0004FF4004010BD410302D54FF4003010BD31
:1044E000810302D54FF4802010BDC10302D54FF4E3
:1044F000002010BD010402D54FF4801010BD41040E
:1045000002D54FF4001010BD810402D54FF4800095
:1045100010BD000702D54FF4000010BD4FF48030ED
:1045200010BD0000A402002008E0FFFD10B5846B60
:1045300040F23A50216888632046FEF714F80121C2
:1045400084F8341000212163062801D0052805D104
:104550002068FFF741FFA16B0843A063A06B002810
:10456000204602D0FDF7FEFF10BDFDF7F7FF10BD9E
:1045700010B5846B40F23A50216888632046FDF7FD
:10458000F2FF012184F8341000212163062801D0B4
:10459000052805D12068FFF71FFFA16B0843A06322
:1045A000A06B0028204602D0FDF7DCFF10BDFDF710
:1045B000D5FF10BDFEB50446002001900290E16ACF
:1045C00000294BD194F830100B260327891F04F1E2
:1045D0002C05092942D2DFE801F005189F269F42E9
:1045E0006E8A9C00204600F09DF8207F012802D0B2
:1045F000022805D007E0494801F0A4FD072000E0AB
:10460000082084F830000A2150E00090002342F690
:104610000E02B2212046FFF7C9FD092084F83000C0
:104620004FF4AF7142E0032301AAB2212046FFF705
:10463000B2FD60B9022101A8FCF733FC9DF8061019
:10464000884204D1BDF8040040BAE0832777642192
:104650002846A16200F025FA84F830605CE0304E14
:10466000B088010A8DF804108DF80500022101A818
:10467000FCF717FC8DF80600F0888DF80800010A99
:104680008DF8071002210DF10700FCF70AFC8DF8E8
:1046900009000620009001AB42F20F62B2212046D1
:1046A000FFF784FD0C2084F830001E212846A1620B
:1046B00000F0F7F930E0032301AAB2212046FFF70A
:1046C0006AFD58B9022101A8FCF7EBFB9DF8061022
:1046D000884203D1BDF8040040BA60610121284638
:1046E000A16200F0DEF90D2084F8300014E004F13E
:1046F00018020A48616901F037FD4FF47A712846C3
:10470000A16200F0CEF90E2084F830000520207759
:1047100002E084F830602777207FFEBDA0100020E3
:104720002810002030B587B00446142101A8FBF7FB
:1047300089FD00202346009043F28262B221184690
:10474000FFF734FD28B1022020770820E08307B06E
:1047500030BD092301AAB2212046FFF71CFD002825
:10476000F5D1022101A8FCF79CFB9DF806108842B8
:10477000EDD101AD0221E81CFCF793FB9DF8091077
:104780008842E4D10221A81DFCF78BFB9DF80C1098
:104790008842DCD1BDF807009DF80A1040BA000439
:1047A00040EA01209DF80B100843C117C4E9080135
:1047B000012020770720C9E770B50DF1100C9CE8A7
:1047C000700001608280836084810021C0E90461FF
:1047D00081610177C18385620621C56280F830104E
:1047E00070BD2DE9FF410446002001900290A169AF
:1047F000002963D1227F0C26092503210527921F5A
:10480000072A56D2DFE802F0041D55235550530005
:104810000091039003AB4FF22D3288212046FFF721
:1048200095FC022678B9022103A8FCF73AFB9DF813
:104830000E10884207D1BDF80C00012140BA6082F9
:104840002174257735E026740820207731E0062092
:10485000009001AB42F6104288212046FFF776FC1B
:10486000022101A8FCF71DFB9DF80610884203D128
:10487000BDF8040040BAA08002210DF10700FCF74A
:1048800010FB9DF80910884203D1BDF8070040BA1B
:10489000E080A08804F1080122F032FEE08843F2B3
:1048A000D4014843400BE0602677277401E0257768
:1048B000217404F11800616900F0F3F8207C04B061
:1048C000BDE8F081DDE90121016000218180C18026
:1048D0008160C16001744182426106218261017779
:1048E000704700000148FDF763BF00006409002025
:1048F00010B5806B0021C187C186FDF757FF10BD41
:1049000010B5806B01684A6822F003024A60416D6D
:1049100041F010014165012180F85110FDF746FF7B
:1049200010BD10B5806BFEF7A5F910BD38B5054672
:10493000846BFDF753F8024628680068C00523D44D
:104940002068416821F0200141602068416821F021
:10495000020141606421204600F01AF818B1606D30
:1049600040F020006065A068002118B92068C26886
:1049700080680090E186012084F85100606D18B1D4
:104980002046FDF713FF38BD2046FEF767F938BD16
:1049900038B504461248134B0068B0FBF3F04FF4EF
:1049A0007A73584300906068B0F5827F0DD10B4652
:1049B000009200228021204600F016F870B1606D50
:1049C00040F020006065032038BD009830B1401EE3
:1049D000009020688068C0430006F6D5002038BDEE
:1049E000A402002000366E012DE9F8431E469146D0
:1049F00088460446089DFCF7F1FF401B351AFCF77A
:104A0000EDFF074625480068C0F3CB30684338E027
:104A1000701C37D0FCF7E2FFC01BA84203D215B1CF
:104A2000009860B32CE02068416821F0E00141600B
:104A30006068B0F5827F0BD1A068B0F5004F02D05E
:104A4000B0F5806F04D12068016821F04001016059
:104A5000A06AB0F5005F09D12068016821F4005117
:104A600001602068016841F400510160012084F870
:104A70005100002084F850000320BDE8F883002591
:104A8000401E00902068816838EA010004D00021AF
:104A90004945BDD10020F0E70121F9E7A40200203B
:104AA000704701607047FDF71DBA000030B593B044
:104AB00030216846FBF7C6FB14210CA8FBF7C2FBAC
:104AC0001C480025016841F080510160006800F039
:104AD000805011901848016841F44041016000681D
:104AE000022400F440401190012000900004019045
:104AF0008001CDE90640062008906420CDE9090434
:104B000005200B906846FDF773FB08B172B6FEE70F
:104B10000CA90F2081E831004FF48050CDE90F053A
:104B200003210CA8FDF778FA002801D072B6FEE741
:104B300013B030BD403802400070004002480168A8
:104B400041F470010160704788ED00E070B53D4CA4
:104B500086B0012210212046FCF73BFF40F2DE30F8
:104B600000900023012221463748FEF7DFFE364938
:104B700036480C31FCF7D2FA0A200022CDE9032096
:104B80000223334904208DE80B000B4608223148EC
:104B900000F0E9F92F492D482031FCF7BFFA0A232C
:104BA00004222D492D48FCF767F92C4927480C3180
:104BB000FCF7B4FA2A4C402561200095294ECDE936
:104BC00001043346802219462748FFF77BFE264919
:104BD0001E481831FCF7A2FA66200095CDE90104C1
:104BE0003346802219462148FFF7E6FD1F49174842
:104BF0002C31FCF793FA224660211D48FFF71CF880
:104C00001B48FFF719FB1A4910481431FCF786FAC4
:104C100018490E48FCF782FA17490C48FCF77EFA4F
:104C200016490A48FCF77AFA1548FEF7E1F800F051
:104C300085FFFCF7E1F813496420A1F8840306B06E
:104C400070BD000000000240F00F0020F80B0020B3
:104C50000008024000100020AC0A0020481000208C
:104C6000CC0700200004024028100020681000201B
:104C7000201100200C00002010000020E80F002070
:104C80001C0A00204C0C002010B51548FEF756FEFB
:104C90001FF02CFD01F020F81248FCF7B7F800F0E7
:104CA00001FD00F0EDFA104C207840B10F48FFF7FD
:104CB00081FC052802D100206080207010BD0C48C6
:104CC000FEF7C6FF0528F9D10A48FFF78AFD052837
:104CD000F4D16088B0F57A7FF0D30120EDE70000D1
:104CE000F00F002048100020000000206810002075
:104CF00020110020281000200148FEF71EB90000F6
:104D00001C0A0020F0B502681D4B1E4C9F031E4D6F
:104D10001E4E984207D0B84205D0A04203D0A84208
:104D200001D0B04204D122F0700C4A6842EA0C0271
:104D3000984210D0B8420ED0A0420CD0A8420AD05F
:104D4000B04208D0124CA04205D0124CA04202D072
:104D5000114CA04203D122F44074CA6822434C692A
:104D600022F08002224302608A68C2620A6882627C
:104D7000984201D10969016301214161F0BD000040
:104D8000000001400004004000080040000C00400A
:104D900000400140004401400048014010B501F0CE
:104DA0001F030121046A99408C430462016A9A40FE
:104DB0001143016210BD10B5846842EA032224F455
:104DC0007F440A432243826010BD826822F0700251
:104DD0000A4342F0070181607047000030B5026A63
:104DE00022F001020262026A4368846924F07305BA
:104DF0000C682C4322F002058A682A430A4DA84217
:104E00000BD122F00805CA6823F440732A434D6988
:104E100022F004021D438B692B434360846149687F
:104E20004163026230BD00000000014030B5026AFB
:104E300022F010020262026A436884690D6824F459
:104E4000E64444EA05248D6822F0200242EA051275
:104E50000B4DA8420ED1CD6822F0800242EA051225
:104E60004D6923F4406343EA85038D6922F04002D3
:104E700043EA85034360846149688163026230BD0F
:104E80000000014030B5026A22F480720262036AB7
:104E90004268C46923F4007324F073050C682C4342
:104EA0008D6843EA05230C4DA8420ED1CD6823F44A
:104EB000006343EA05234D6922F4405242EA051299
:104EC0008D6923F4806342EA05124260C461496837
:104ED000C163036230BD00000000014030B5026ACA
:104EE00022F480520262046A4268C3690D6823F4A6
:104EF000E64343EA05238D6824F4005444EA05346C
:104F0000064DA84204D14D6922F4804242EA85123E
:104F10004260C36149680164046230BD0000014021
:104F200010B5036A046A24F001040462846924F061
:104F3000F00444EA021423F00A020A438461026284
:104F400010BD10B5036A23F0100303628369046A7D
:104F500023F4704343EA023224F0A00343EA011130
:104F60008261016210BDF0B50DF1140E9EE8F010E3
:104F7000016082808360848105618682C775C0F884
:104F80001CC00021C0F820C00176F0BD70B50446F9
:104F9000006A002869D10A2104F12000FFF781FD91
:104FA000A18A2069FCF7CAF8A075A1882068FCF7DF
:104FB000C5F8A071A189A068FCF7C0F8A0730646E7
:104FC000A37D01224048002163B1A3790225B3B13A
:104FD00003230EB38688EEB3642E47D2022E45D348
:104FE000227654E001818188491C89B28180E27572
:104FF00064291BD30178C9B90270042034E001810F
:105000004188491C89B24180E57564290ED3017835
:1050100061B90270052027E00181C188491C89B26D
:10502000C180E375642901D30178D9B12748007E96
:10503000042835D02649274C052838D0062814D115
:10504000086815F0EFFF2468A0420ED1204611F049
:105050001FF900E00AE0411C01222046BDE8704033
:1050600011F06DB902700620207670BD42882AB119
:10507000642A03D2022A01D3257608E0C2882AB125
:10508000642A03D2022A01D3237600E02176028922
:10509000521C028181804180C1800170E17570BD28
:1050A000BDE87040002210210B48FCF792BC086854
:1050B00015F0B8FF2468A042F1D1204611F0E8F8BD
:1050C0000122411EC9E7000020000020001000203E
:1050D00068010020940200200000024010B503780F
:1050E000002108E000EB8102546822680AB1521ED8
:1050F0002260491CC9B29942F4D310BD70B5044670
:1051000000680169E26821F440511143016121699D
:10511000A068E26908436169114308432168CA68CD
:1051200049F20C639A430243CA6020684169A2694C
:1051300021F440711143416131492068884202D015
:105140003049884202D1FDF711F801E0FCF7FEFF7B
:10515000E2690023192164253226B2F5004F626806
:1051600028D0A0FB0101930F9200FBF733F8014612
:10517000B0FBF5F06FF01802504301EB800006EB36
:105180000010B0FBF5F000F0F002B1FBF5F002EB1F
:105190000012B1FBF5F06FF01803584301EB8000EB
:1051A00006EB0010B0FBF5F000F00F002168104492
:1051B000886070BDA0FB010192185B41FBF70AF803
:1051C0000146B0FBF5F00201B1FBF5F06FF01803FA
:1051D000584301EB800006EBC000B0FBF5F000F097
:1051E000F80002EB4002B1FBF5F0584301EB800000
:1051F00006EBC000B0FBF5F000F00700D6E70000BA
:1052000000100140001401402DE9F0419846174676
:105210000E460446069D27E0681C25D02DB1FCF7FC
:10522000DDFBA0EB0800A8421ED920680C3050E836
:10523000001F21F4D07140E80012002AF5D1206847
:10524000143050E8001F21F0010140E80012002A4C
:10525000F5D1202084F83D0084F83E00002084F839
:105260003C000320BDE8F0812068006836EA0000B9
:1052700004D00020B842CFD00020F3E70120F9E7A6
:105280002DE9F05F774CD4F89C0300287ED1764856
:1052900076490025027C4FF0010A022A09D00A7FD4
:1052A000022A06D0724A127A022A02D084F800A09A
:1052B00000E0257083684FF47A7293FBF2F3636029
:1052C000C06890FBF2F0A060486920618869E060E6
:1052D0006848006810F0DCFF6749C4F8A0034A780A
:1052E000904210D04870642801D9642005E0052858
:1052F00002D9D4F8A00302E00520C4F8A0035F4956
:10530000C0F1640008605E4800681DF051F9B4F80F
:1053100084130646B1425FD0A4F8846378215948CB
:10532000FAF790FF4F4878211430FAF78BFF782175
:105330005548FAF787FFDFF854B1554FDBF80010F6
:10534000386811F0E1FB5348DFF84C810168D8F868
:10535000000011F0D9FB5148DFF844910168D9F8F9
:10536000000011F0D1FB84F874530820C4F8905366
:105370001CF02AFC01460022386811F079F8CBF8BD
:10538000000008201CF020FC014600E067E000223D
:10539000D8F8000011F06CF83E49086008201CF0B5
:1053A00013FC01460022D9F8000011F061F83B49D6
:1053B00008600121386811F07DFD0121D8F8000056
:1053C00011F078FD0121D9F8000011F073FD700093
:1053D00084F88303072E03D094F8830320B10FE0F1
:1053E000182084F883030BE0B4F89403401C80B2C7
:1053F000A4F89403142803D3A4F8945384F882A344
:10540000D4F88C03401CC4F88C03B0F5167F20D36D
:10541000C4F88C5394F89703401CC0B284F89703E7
:105420003C2806D384F8975394F89603401C84F8DC
:105430009603D4F89003401CC4F8900394F88313A7
:105440004A08B0FBF2F302FB130010B909B184F86B
:1054500082A3BDE8F05F64211248FFF722BBBDE8DC
:10546000F09F00004C0C0020281000206810002045
:105470002011002094020020000000204004004081
:105480007C020020800D0020A00E002014000020CF
:10549000C401002018000020F00100201C000020A2
:1054A00004020020E80F0020FEE700002DE9F04F85
:1054B00093B0774C00208DF81C0094F882130029DB
:1054C0007ED084F88203204600F27636B51D94F82B
:1054D00074132A1F0392921D0492121F0F92828846
:1054E00000F51573019300F59A7300F5607B143095
:1054F000684FDFF8A481DFF8A49112B202930690FE
:1055000078296BD204EB41000DF11C0A828294F8D9
:105510007413208904EB41013346A1F8340194F857
:105520007413A08904EB41012A46A1F8540294F8AF
:105530007403401CC1B284F87413CDF800A006981F
:105540001FF0A6F8DDE90203CDF800A094F874136B
:10555000049A1FF09DF8CDF800A094F874135A46F1
:105560000F9B01981FF094F8A0884D4D02B2386847
:10557000296911F0AFFB2089696902B2D8F80000EF
:1055800011F0A8FBA0894E4602B2A969D9F8000023
:1055900011F0A0FB94F87403782856D1069A296973
:1055A000386811F03BFB029A6969D8F8000011F0E5
:1055B00035FB019AA969306811F030FB002100E049
:1055C00063E0386811F076FC0021D8F8000011F093
:1055D00071FC0021306811F06DFC36E07821FBF79A
:1055E00050FC2089782102B20298FBF74AFCA0897E
:1055F000782102B20198FBF744FC0DF11C0ACDF8AA
:1056000000A094F8741333462A4606981FF040F819
:10561000DDE90203CDF800A094F87413049A1FF09A
:1056200037F8CDF800A094F874135A460F9B0198F0
:105630001FF02EF8386811F065FAD8F8000011F064
:1056400061FAD9F8000011F05DFA9DF81C000128FC
:105650001BD1B4F97C33B4F97623002104F27634FB
:10566000386811F0D5FBB4F90830B4F902200021F4
:10567000D8F8000011F0CCFBB4F90A30B4F90420DA
:105680000021D9F8000011F0C3FB13B0BDE8F08F82
:105690004C0C0020C4010020F00100200402002076
:1056A000040000202DE9F04F2DED028B95B0EC4861
:1056B00011AC6FF07F470EC884E80E0007C80EAB30
:1056C00083E80700384611F0D3FCDFF89883D8F858
:1056D0000C0000287ED1E44E30897468FAF7BCFED5
:1056E0009FEDE21B53EC112BFAF747FEFAF7EDFEA4
:1056F00005462046FAF7D6FE41EC100BDDA153EC2F
:10570000102B684600F090FDDC486946006817F0F1
:105710008DFF2846FAF7C6FE41EC100BD5A153ECDD
:10572000102B684600F080FDD5486946006817F0E8
:105730007DFFD44890ED020AB8EEC01ADFEDD20A20
:1057400081EE200A90ED031AB8EEC11A81EE208A8C
:1057500010EE100AFAF7A6FE41EC100BCBA153ECA9
:10576000102B684600F060FDCA486946006817F0D3
:105770005DFFC9486946006817F058FFC748694689
:10578000006817F053FF18EE100AFAF78BFE41EC91
:10579000100BBEA153EC102B684600F045FDC0482D
:1057A0006946006817F042FFBE486946006817F076
:1057B0003DFFBD486946006817F038FFBB4CBCA1EF
:1057C0006846A26900F030FDBA486946006817F0E3
:1057D0002DFF00E014E1B8486946006817F026FF85
:1057E000B6486946006817F021FFB1A168466269B2
:1057F00000F01AFDB2486946006817F017FF728979
:10580000B8F80400AF4C4546824270D0AA80A8A1E7
:10581000684600F009FDAC486946006817F006FFCD
:1058200070895A2810D9384611F022FC0D90BDF825
:105830003400E880384611F01BFC01460022206845
:105840001CF07BF8A1A14DE04B2810D9384611F08F
:105850000FFC0D90BDF83400E880384611F008FCCC
:105860000146002220681CF068F899A13AE032282D
:1058700010D9384611F0FCFB0D90BDF83400E880DB
:10588000384611F0F5FB0146002220681CF055F85F
:1058900090A127E0192811D98F4F384611F0E8FB65
:1058A0000D90BDF83400E880384611F0E1FB014668
:1058B000002220681CF041F888A113E00A2814D9BE
:1058C0004FF47F07384611F0D3FB0D90BDF834003C
:1058D000E880384611F0CCFB0146002220681CF01D
:1058E0002CF87FA1206817F0A1FEFF202870307BE4
:1058F0002978884210D0287030B14FF47F4011F0E1
:10590000B7FB0146002204E0E888ADF834000D99A9
:10591000002220681CF011F8724C7348217801298C
:1059200074D00EA9006817F081FE94F8973394F8AC
:1059300096236EA1684600F077FC6F4869460068C0
:1059400017F074FE94F883036C4F6D4D6D4EDFF8C5
:10595000B881DFF8B891DFF8B8A1DFF8B8B1002856
:105960004FF0000254D06CA1684600F05DFC69461F
:10597000386817F05BFE6946286817F057FE6946DD
:10598000306817F053FE94F8830363A14208684619
:1059900000F04AFC6946D8F8000017F047FE694657
:1059A000D9F8000017F042FE6946DAF8000017F057
:1059B0003DFE94F8832358A1684600F035FC694603
:1059C000DBF8000017F032FE55486946006817F012
:1059D0002DFE54486946006817F028FE52A168461B
:1059E000D4F8982300F020FC51486946006817F06D
:1059F0001DFEFFF75BFD1B48C7210C30FFF751F878
:105A000015B0BDEC028BBDE8F08FFFE711A989E767
:105A100048A1684600F008FC6946386817F006FEA1
:105A20006946286817F002FE6946306817F0FEFDE7
:105A3000022240A1684600F0F7FB6946D8F8000052
:105A400017F0F4FD6946D9F8000017F0EFFD69463C
:105A5000DAF8000017F0EAFD042236A1ACE70000F6
:105A6000C09602080400002058100020000000002A
:105A700000408F40252E326620560000580200203C
:105A8000540200202810002000007A44252E3166A0
:105A900020000000A8010020CC0100204C020020C2
:105AA000B4010020E8010020480200206810002016
:105AB00025640000BC0100200C02002040020020F0
:105AC000440200209C01002050020020EF89800049
:105AD000EF898100EF89820000D7FF00EF89830002
