:020000040800F2
:10000000803F0120B1010008294C00086B3F000827
:10001000274C00082D0F000875680008000000003C
:100020000000000000000000000000006D5E0008FD
:100030006D100008000000002B4C0008735E0008E3
:10004000CB010008CB010008CB010008CB01000860
:10005000CB010008CB010008CB010008CB01000850
:10006000CB010008CB010008CB010008CB01000840
:10007000CB010008CB010008CB010008CB01000830
:10008000CB010008CB010008CB01000800000000F4
:10009000000000000000000000000000CB0100088C
:1000A000CB010008C5600008CB010008CB010008A7
:1000B000CB010008CB010008CB010008CB010008F0
:1000C000CB010008CB010008CB010008B15C00089F
:1000D000CB010008CB010008CB01000800000000A4
:1000E000CB010008CB010008CB0100080000000094
:1000F000000000000000000000000000CB0100082C
:1001000000000000C54D0008CB010008CB0100082D
:1001100000000000000000000000000000000000DF
:10012000810F00088D0F0008990F0008A50F000827
:10013000CB010008000000000000000000000000EB
:10014000000000000000000000000000CB010008DB
:10015000CB010008B10F0008BD0F0008CB0100085B
:10016000CB010008CB0100080000000000000000E7
:10017000000000000000000000000000000000007F
:1001800000000000CB01000800000000000000009B
:10019000CB010008CB010008DFF810D000F052FBC3
:1001A00000480047DD5D0208AFF30080803F01207A
:1001B0000648804706480047FEE7FEE7FEE7FEE701
:1001C000FEE7FEE7FEE7FEE7FEE7FEE7095F000861
:1001D000990100082DE9F05F0546002092469B46F4
:1001E00088460646814640241BE02846414647464D
:1001F000224600F0ABF953465A46C01A914110D33B
:1002000011461846224600F092F92D1A67EB0108B4
:100210004F4622460120002100F089F917EB000922
:100220004E41201EA4F10104DFDC484631462A4637
:100230004346BDE8F09FD2B201E000F8012B491E11
:10024000FBD270470022F6E710B513460A46044673
:100250001946FFF7F0FF204610BD421C10F8011BA5
:100260000029FBD1801A704710B5002200E0521C13
:10027000835C8C5CA34201D1002BF8D1D8B2E1B2EF
:10028000401A10BD034611F8012B00F8012B002A7B
:10029000F9D1184670472DE9FE4F81EA030404F0B6
:1002A000004421F0004100944FF0000B23F0004384
:1002B00050EA01045ED052EA03045BD0C3F30A544F
:1002C000C1F30A552C44A4F2F3340194A0FB025468
:1002D000C1F3130141F48011C3F3130343F48013FA
:1002E00001FB024400FB034E840A970A44EA81544E
:1002F00047EA8357A4FB076802958D0A05FB07852B
:100300004FEA932C04FB0C542705029D4FEA065834
:1003100047EA1637B5EB08056EEB070C870E920E11
:1003200047EA811742EA8312A7FB0201B6EB0B01F1
:1003300064EB00042B0D43EA0C335E1844EB1C50B5
:10034000DA465146E7FB0201C5F313044FEA0B33CB
:1003500043EA14534FEA0432019C43EA0603A4F132
:100360000C040294009CCDE900B400F045F903B000
:10037000BDE8F08F00200146F9E72DE9F04D81EA54
:10038000030404F0004B21F0004514464FF0000A2E
:1003900023F0004150EA050220D054EA01021DD0AA
:1003A000C5F30A570246C5F31303C1F31300C1F3A3
:1003B0000A5640F4801543F48013A7EB0608101B7F
:1003C000D64608F2FD3873EB050002D308F10108A8
:1003D00001E092185B41B8F1000F03DA00200146FA
:1003E000BDE8F08D00204FF48011064684460EE0F3
:1003F000171B73EB050705D3121B63EB05030643BD
:100400004CEA010C49084FEA300092185B4150EA6F
:100410000107EDD152EA030012D082EA040083EA18
:100420000501084305D0101BAB4106D20122002371
:1004300006E000224FF0004302E06FF0010253108B
:100440001AEB06004CEB085110EB0A0041EB0B01D4
:10045000BDE8F04D00F0C1B80EB540F23341029155
:100460000021CDE900110A460B4600F0C5F803B0A3
:1004700000BDC1F30A5210B5C1F3130140F2FF33BE
:1004800041F480119A4201DA002010BD40F233435A
:100490009A42A2F2334203DC524200F057F810BDF8
:1004A000904010BD00F0004230F000400AD0C10D75
:1004B00001F56071C0F3160042EA0151C20840071D
:1004C0001143704700200146704701F0004330B4EB
:1004D00021F0004150EA010206D00A0DA2F5607237
:1004E000C1F31301002A02DC30BC00207047440F26
:1004F00044EAC104C100E01830BC00EBC25000F077
:1005000035B830B50B46014600202022012409E011
:1005100021FA02F59D4205D303FA02F5491B04FABC
:1005200002F52844151EA2F10102F1DC30BD202A9B
:1005300004DB203A00FA02F1002070479140C2F13A
:10054000200320FA03F3194390407047202A04DB6C
:10055000203A21FA02F00021704721FA02F3D0403C
:10056000C2F1200291400843194670470029A8BFF4
:100570007047401C490008BF20F00100704710B4CC
:10058000B0FA80FC00FA0CF050EA010404BF10BC81
:10059000704749B1CCF1200421FA04F411FA0CF1AE
:1005A00018BF012121430843A3EB0C01CB1D4FEAE7
:1005B00000614FEA102042BF002010BC704700EBE2
:1005C000C35010440029A4BF10BC7047401C490010
:1005D00008BF20F0010010BC704710B5141E73F165
:1005E000000408DA401C41F1000192185B411A43F3
:1005F00001D120F0010010BD2DE9F04D92469B463F
:1006000011B1B1FA81F202E0B0FA80F220329046E4
:10061000FFF78DFF04460F4640EA0A0041EA0B014E
:1006200053465A46084313D0114653EA010019D0E5
:10063000C8F140025046FFF789FF05460E46504676
:1006400059464246FFF773FF084305D0012004E0F6
:1006500020463946BDE8F08D0020054346EAE076A5
:100660002C4337430A986305E40AA0EB08000022F4
:10067000FD0A44EA47540A3002D500200146E9E762
:10068000010510196941DDE9084500196941BDE816
:10069000F04DA2E72DE9FE4F804681EA0300C00F2E
:1006A0000C46009021F0004123F00045B8EB020019
:1006B000A94105D24046214690461C460B460246BB
:1006C00023F00040104347D0270DC7F30A00C3F3BF
:1006D0000A510290401A019040286BDAC3F31300CC
:1006E00040F4801B0098924620B10023D2EB030A0D
:1006F00063EB0B0B01985946C0F140025046FFF7DF
:1007000016FF06460D4650465946019A00F0ACF8D1
:1007100010EB08006141002487EA115284EAE77374
:100720001A4340D0009A62B3019A012A4FEA075255
:1007300015DC001B61EB02014FF0004202EA075298
:10074000CDE90042001C41F5801132462B46FFF7EF
:1007500053FF03B0BDE8F08F40462146F9E7001B88
:1007600061EB0201001C41F5801300185B41201869
:10077000A2F5001747EB030140EAD570B6196D41A9
:1007800011E06D084FEA360645EAC0754FEA075298
:10079000001B61EB0201001C41F5801149084FEA82
:1007A00030000019514132462B4603B0BDE8F04FEE
:1007B000FFF713BF0098012240000023D0EB020294
:1007C00063EBE073009821464FEAE074B8EB000059
:1007D00061EB0401E9E783F000435BE781F000414E
:1007E00058E7C1F30A52C1F3130140F2FF3341F459
:1007F00080119A4202DA00200146704740F23343EA
:100800009A42A2F2334202DC5242FFF79FBEFFF748
:100810008EBE000030B5041E71F1000404DB4FF001
:100820000044404264EB0101141E73F1000405DB37
:100830001C464FF00043524263EB0403994208BF49
:10084000904230BD064C074D06E0E06840F00103E1
:1008500094E8070098471034AC42F6D3FFF7A0FCA9
:1008600034E1040854E10408202A06DBCB17203ABF
:1008700041FA02F043EAE07306E041FA02F3D040A5
:10088000C2F12002914008431946704770B58C1898
:1008900010F8015B15F0070301D110F8013B2A1194
:1008A00006D110F8012B03E010F8016B01F8016B81
:1008B0005B1EF9D12B0705D40023521E0DD401F87D
:1008C000013BFAE710F8013BCB1A921C03E013F846
:1008D000015B01F8015B521EF9D5A142D8D300207B
:1008E00070BD10B50146806B026C12F0500F05D040
:1008F000026CD20626D500F019FE10BD016C41F441
:100900000071016401688A6812F0405F17D1027EAD
:10091000AAB9CA6A12F4700F02D08A6852050ED4BE
:100920004A6822F020024A60016C21F4807101645F
:10093000016CC90403D4016C41F00101016400F0B1
:10094000F3FD10BD806BC26CBDE810400846104737
:1009500010B5806B40210164416C41F00401416499
:1009600000F0E4FD10BD10B5806B00F0DEFD10BDA1
:10097000464910B54A6822F440324A604A684368E2
:100980001A434A6001684A6822F480724A6001682A
:100990004A68036942EA03224A6001684A6822F011
:1009A00040724A6001684A6883681A434A60016875
:1009B0008A6822F400628A6001688A68C3681A4300
:1009C0008A60816A6FF07062D14201688A6822F0A1
:1009D00070628A6001688A680CD0836A1A438A60F0
:1009E00001688A6822F040528A6001688A68C36A96
:1009F0001A4301E022F040528A6001688A6822F0BE
:100A000002028A6001688A68037E42EA43028A60C1
:100A100090F82010002901684A680FD042F4006263
:100A20004A6001684A6822F460424A6001684A6884
:100A3000174C436A04EB43331A4301E022F400628B
:100A40004A600168CA6A22F47002CA620168CA6A0E
:100A5000838B104C04EB03531A43CA6201688A6803
:100A600022F400728A6001688A6890F8303042EAA5
:100A700043228A6001688A6822F480628A60016881
:100A80008A68406942EA8020886010BD00230140E6
:100A900000E0FFFF0000F0FF7FB504460020029059
:100AA00003901A2064258DF804000095012301AA03
:100AB0006C21206801F090FA0095022302AA6D21B2
:100AC000206801F099F99DF809309DF808209DF8FB
:100AD00004105CA006F07EFD9DF8080000F0C8FA46
:100AE0009DF804008DF80C009DF80800009520F09A
:100AF0007F008DF80D009DF809008DF80E0003238E
:100B000003AA6C21206801F067FA9DF80E309DF869
:100B10000D209DF8041055A006F05CFD0095012302
:100B200001AA6C21206801F057FA0095022302AA5D
:100B30006D21206801F060F99DF809309DF80820CA
:100B40009DF8041054A006F045FDBDF808000123EF
:100B500040BAA0810C208DF80400009501AA6C21F8
:100B6000206801F039FA0095022302AA6D2120685D
:100B700001F042F99DF809309DF808209DF8041015
:100B800051A006F027FD9DF809009DF8041000F023
:100B9000C00040F016008DF809008DF80C109DF88B
:100BA00008108DF80D108DF80E000095032303AA90
:100BB0006C21206801F010FA9DF80E309DF80D2090
:100BC0009DF804104AA006F005FD0095012301AA36
:100BD0006C21206801F000FA0095022302AA6D2121
:100BE000206801F009F99DF809309DF808209DF86A
:100BF00004104AA006F0EEFC08208DF804000095D1
:100C0000012301AA6C21206801F0E6F90095022376
:100C100002AA6D21206801F0EFF89DF809309DF8D7
:100C200008209DF8041049A006F0D4FCBDF8080087
:100C300040BA608118B1A08908B1012000E002200B
:100C400020727FBD4465627567203A2053746174D9
:100C50007573205245473A253032583A56414C3A3E
:100C600025303258253032582E0D0A004465627501
:100C700067203A2053657420537461747573205251
:100C800045473A253032583A56414C3A2530325889
:100C9000253032582E0D0A004465627567203A20CF
:100CA00041667465722053746174757320524547B0
:100CB0003A253032583A56414C3A25303258253090
:100CC00032582E0D0A0000004465627567203A20F4
:100CD000436F6E666967205245473A253032583A6D
:100CE00056414C3A25303258253032582E0D0A00E4
:100CF0004465627567203A2053657420436F6E66C1
:100D00006967205245473A253032583A56414C3AA5
:100D100025303258253032582E0D0A004465627550
:100D200067203A20416674657220436F6E6669677A
:100D3000205245473A253032583A56414C3A2530F0
:100D40003258253032582E0D0A0000004465627575
:100D500067203A2056657273696F6E205245473A94
:100D6000253032583A56414C3A25303258253032E7
:100D7000582E0D0A00000000012070477047000047
:100D80000146014801F08CBE4008002010B504481F
:100D900001F098FE042801D0012010BD002010BDF4
:100DA0004008002010B500F015F8012801D00120FE
:100DB00010BD074801F0A0FF040006D14FF4006108
:100DC000034801F013FD00B10124204610BD0000CE
:100DD0004008002008B501208DF80000FFF7CCFF87
:100DE00010B900208DF800009DF8000008BD00003B
:100DF000134610B50A4601460024034802F0A6F83F
:100E000000B10124204610BD400800200149012006
:100E100088607047C0020020134610B50A4601469C
:100E20000024034802F02CF900B10124204610BD33
:100E3000400800200149012048607047C00200209E
:100E400010B5134CDFED130A608800EE100A13484A
:100E5000B8EE400A20EE200ADFED0F0A20EE200A4D
:100E6000F0EE000A20EE200AF2EE040A80EE201ACC
:100E700084ED011A81886181C0882081042108489D
:100E800000F0E6FE012800D00020207310BD000015
:100E9000781000200000803900000442401100203A
:100EA0000004024002220249024800F0B7BB0000E1
:100EB000781000204407002070B50546C06800285F
:100EC0002AD116480188B1F57A7F01D20A31018012
:100ED000134CA08800281FD0207861788842D5E97B
:100EE000000102D202F0AAFE01E002F0FFFE20782B
:100EF000401CC0B220706178A2781144814204D2B3
:100F000000202070A088401EA08005F10C00A96878
:100F1000BDE8704004F0ABBF70BD000018000020B9
:100F20004800002080E80E00C3607047FEE710B55F
:100F30000023491E06E000EB4304648820F81340B8
:100F40005B1C1BB28B42F6DB20F8132010BD70B582
:100F50000446FF20002231250FE0A35C5840002307
:100F6000060602D585EA400000E040005B1CDBB2CB
:100F7000C0B2082BF4D3521CD2B28A42EDD370BD5A
:100F8000014800F0F1BB00008C070020014800F090
:100F9000EBBB0000B80B0020014800F0E5BB0000EF
:100FA000DC090020014800F0DFBB0000240900201C
:100FB000014800F0D9BB0000C4080020014800F03F
:100FC000D3BB0000580B002001681823CAB2103AA6
:100FD000B2FBF3F2054B6FF30901032A9B5CC36577
:100FE00000D9091D816508467047000008D904082A
:100FF00010B5014600208B698A6A4FF0C07453B166
:10100000B3F5005F15D072B1012A0CD0022A0AD0C4
:10101000032A09D104E01AB1012A06D0022A03D119
:10102000C96AC90100D5012010BDC96AA142FAD020
:1010300010BD002AF7D0012AF2D0022AF3D0032AE9
:10104000F3D010BD30B50468256825F480252560EF
:10105000046863608368402B036803D0996000686C
:10106000C26030BD9A600068C16030BD704700004A
:1010700010B50446C00702D011A006F0ABFAA007D5
:1010800002D518A006F0A6FA600702D520A006F047
:10109000A1FA200702D528A006F09CFAE00602D5A6
:1010A0002CA006F097FAA00602D533A006F092FA1B
:1010B000600604D5BDE8104039A006F08BBA10BD1B
:1010C0004465627567203A20504F574552204F4E75
:1010D000204943204E4F20434F4E4649472E0D0A8C
:1010E000000000004465627567203A205643454C75
:1010F0004C2048494748205448414E20414C5254C6
:101100002E56414C52544D41582E0D0A00000000FD
:101110004465627567203A205643454C4C204C4F3D
:1011200057205448414E20414C52542E56414C5267
:10113000544D494E2E0D0A004465627567203A20D1
:10114000564F4C544147452052455345542E0D0AA5
:10115000000000004465627567203A20534F432029
:101160004C4F57205448414E20434F4E4649472E3E
:10117000415448442E0D0A004465627567203A20A8
:10118000534F43204348414E47452056414C554517
:1011900020415252495645202525312E0D0A000086
:1011A0004465627567203A20454E41424C452056C1
:1011B0004F4C5441474520524553455420414C41E2
:1011C000524D2E0D0A0000000278142A08D239B1BF
:1011D00000EB820251600178491C017001207047C8
:1011E0000020704772B6FEE7002200F001B8000050
:1011F00030B50E4B054601205C7A002C14D1587A8C
:101200001C54587A03EB800045605D7A03F10800B6
:101210002A54587A421C5A72303008703A2048706A
:101220002F208870CC70002030BD0000702F01206E
:1012300070B520A006F0CEF9012229A1294811F0AD
:10124000AFF9294C011E207004D028A006F0C2F985
:1012500072B6FEE72DA006F0BDF9334A33A0111F88
:1012600010F0EEFF207080B131A006F0B3F92E49E6
:101270000A22091D364811F0BFF92070011E13D053
:10128000BDE8704033A006F0A5B9274D2D1F686852
:10129000820A2868810A37A006F09CF928683F492D
:1012A000800AC1F89803E2E7BDE870403CA006F070
:1012B00091B900004465627567203A200D0A202A22
:1012C0002A2A2A2A2A204661744673204578616DAD
:1012D000706C65202A2A2A2A2A2A0D0A0D0A000083
:1012E00050000000E0020020CC020020446562753E
:1012F00067203A20206D6F756E74206572726F7270
:10130000203A202564200D0A000000004465627523
:1013100067203A20206D6F756E7420737563657356
:1013200073212121200D0A0004000020303A000022
:101330004465627567203A2020676574667265654A
:10134000206572726F72212121200D0A00000000B9
:10135000140500204465627567203A20206F70658F
:101360006E2066696C65206572726F72203A202566
:10137000640D0A004465627567203A2020746F741A
:10138000616C203A202564204D422C6672656520F0
:101390003A202564204D4220200D0A006C0C0020CC
:1013A0004465627567203A20206F70656E2066691B
:1013B0006C6520737563657373212121200D0A000C
:1013C00000F046BC78B50024009490F83C20012A37
:1013D00019D0012280F83C200A6807230568092AF1
:1013E00013D9EE680A3A02EB420293409E43EE6044
:1013F0000B788A680A3B03EB43039A400368DD6875
:101400002A43DA6010E0022078BD2E6902EB420226
:1014100093409E432E610B788A6803EB43039A4006
:1014200003681D692A431A614A681F23072A13D2D9
:1014300005686E6B521E02EB820293409E436E6300
:101440000A8893B20A79521E02EB82029340026824
:10145000556B2B43536327E005680D2A12D22E6B80
:10146000D21F02EB820293409E432E630B790A88BF
:10147000DB1F92B203EB83039A4003681D6B2A4380
:101480001A6311E0EE6A0D3A02EB820293409E432A
:10149000EE620B790A880D3B92B203EB83039A400C
:1014A0000368DD6A2A43DA621B4B0568194A9D42CC
:1014B0000AD10D68122D07D1556825F40005556035
:1014C000556845F48005556005689D421DD1134D52
:1014D0000B68AB4201D0112B17D1536823F4800362
:1014E0005360536843F4000353600968A9420CD168
:1014F0000B490C4A0968B1FBF2F101EB810149008B
:1015000000E0491E00910029FBD180F83C400020FA
:1015100078BD0000002301400020014012000010AF
:10152000BC02002040420F0070477047704770B502
:1015300004004FF0000503D0206C002610B107E036
:10154000012070BD204600F01DF8666484F83C6000
:10155000206CC00610D4206C20F4885040F00200AB
:1015600020642046FFF704FA6664206C20F0020035
:1015700040F00100206400E0012584F83C6028462A
:1015800070BD000070B586B0064614216846FEF7AF
:1015900059FE1D493068884234D11C480025016835
:1015A00041F480710160006800F480700590174874
:1015B0001438016841F0010101600068694600F0DB
:1015C000010005900C2000900320CDE90105104892
:1015D00000F04EFA104C0F48C4E900050015A56054
:1015E000C4E90350400060618000A0614011C4E97B
:1015F00007052046656200F087F908B1FFF7F2FDA4
:10160000B463A66306B070BD0020014044380240B8
:1016100000000240106402408C070020F8B5044628
:1016200000200E46009094F83C10012907D00121BB
:1016300084F83C1021688B68DB0702D011E002209F
:10164000F8BD8B6843F001038B603649364B09685F
:10165000B1FBF3F101EB410100E0491E00910029CB
:10166000FBD121688B68DB0503D58B6823F480737D
:101670008B6021688B68DB0749D0236C40F20165E1
:10168000AB4343F4807323644968490505D5216C55
:1016900021F4005141F480512164216CC90404D526
:1016A000616C21F00601616400E0606484F83C0034
:1016B000A16B1F481D4DC863A16B1E480864A16B38
:1016C0001D48C86421686FF02200086020684168E6
:1016D00041F0806141602068816841F480718160DF
:1016E0002168134632464C31A06B00F077F96868E8
:1016F000C006206802D01149884210D1816811F0DB
:10170000405F0CD1816841F08041816007E0206C2E
:1017100040F010002064606C40F001006064002024
:10172000F8BD0000BC02002040420F000023014031
:10173000E30800086709000851090008002001407B
:1017400090F83510022903D08021416501207047AF
:10175000052180F835100068016821F00101016061
:1017600000207047406D70472DE9F84304464FF064
:101770000009CDF8009063484FF41651A56D00683C
:10178000B0FBF1F72E6894F85C10082000FA01F124
:1017900031420FD021680A6852070BD50A6822F03F
:1017A00004020A6094F85C108840A860606D40F004
:1017B0000100606594F85C104FF0010808FA01F030
:1017C000304208D021684969090604D5A860606DD7
:1017D00040F00200606594F85C10042088403042BC
:1017E00008D021680968890704D5A860606D40F0B9
:1017F0000400606594F85C1010208840304218D0D6
:1018000021680968090714D5A860206801684903A0
:1018100004D50068000308D5A16C07E00168C9057C
:1018200003D4016821F008010160216C09B1204650
:10183000884794F85C1020208840304231D02168DD
:101840000968C9062DD5A86094F8350005282068D8
:10185000016806D0490347D5006800031DD4616CB8
:101860001CE021F0160101602068416921F080012F
:101870004161206C08B9A06C20B12068016821F09A
:101880000801016094F85C103F208840A86084F84B
:10189000358084F83490216D1FE0E16B09B120465A
:1018A0008847606D00282BD0606DC00714D00520DC
:1018B00084F835002068016821F00101016000987A
:1018C000401C0090B84203D820680068C007F6D1D9
:1018D00084F8358084F83490E16C002910D001B090
:1018E0002046BDE8F04308470168C905D5D4016822
:1018F00021F01001016084F8358084F83490CCE741
:10190000BDE8F883BC0200202DE9F041044600F058
:10191000A9F906465CB1022084F83500002584F858
:1019200034502068016821F0010101600DE00120C0
:10193000BDE8F08100F096F9801B052805D920202C
:101940006065032084F83500F2E720680068C0076E
:10195000F0D12268116820480140D4E901031843FE
:10196000D4E903363343184363691843A369184322
:10197000E3691843236A18430843616A042903D1C1
:10198000D4E90B1319430843106020684069666A64
:1019900020F0070130460E43012704280CD1A06A2D
:1019A0000643E06A40B12046FFF722FB20B1402009
:1019B000606584F83570BAE7206846612046FFF715
:1019C00003FB94F85C203F2191408160656584F8B9
:1019D00035700020ACE700003F8010F02DE9F041A9
:1019E0000446866D90F83400002501280DD00120B2
:1019F00084F8340094F835700020012F07D084F863
:101A0000340002252846BDE8F0810220FBE70227CA
:101A100084F8357060652046FFF714FB94F85C107D
:101A20003F208840B0602068016841F016010160E5
:101A3000206C20B12068016841F008010160206835
:101A4000016841F001010160DCE7000070B5044667
:101A500000F008F90546601C02D0044800780444F0
:101A600000F000F9401BA042FAD370BDB002002084
:101A70002DE9F84FDFF8B8A10022012403254FF02B
:101A80000F090AF1040BAAF1040E00BF0B6804FA57
:101A900002F63340B34273D10F7907F00307012FE9
:101AA00001D0022F16D187684FEA420805FA08FCD8
:101AB00027EA0C07D1F80CC00CFA08FC4CEA070C1A
:101AC000C0F808C04768B7430E79C6F300169640C1
:101AD0003E4346600E79F643B6070DD0C768560000
:101AE00005FA06FC27EA0C07D1F808C00CFA06FC38
:101AF0004CEA070CC0F80CC00E7906F00306022E63
:101B000010D1D60800EB8608D8F8206057074FEAB6
:101B1000D76C09FA0CF7BE430F6907FA0CF7374385
:101B2000C8F8207006684FEA420C05FA0CF7BE436D
:101B30000F7907F0030707FA0CF7374307604E6881
:101B400016F4403F6DD03B4E376847F4804737600E
:101B5000366822F0030706F480460096364E07EBFF
:101B6000060CDCF8086897073F0F09FA07F826EA21
:101B70000806DFF8C880404503D14FF000081EE09A
:101B80004FE0DFF8BC80404502D14FF0010816E07D
:101B9000DFF8B080404502D14FF002080FE0DFF8D7
:101BA000A880404502D14FF0030808E0DFF89C8090
:101BB000404502D14FF0040801E04FF0070808FA51
:101BC00007F848EA0608CCF80888DAF800605746B3
:101BD000D1F804C09E435FEACC2C00D51E433E6082
:101BE000DBF800605F46D1F804C09E435FEA8C2CAE
:101BF00000D51E433E60DEF800607746D1F804C091
:101C00009E435FEA8C3C00D51E433E60084F083F70
:101C10003E68D1F804C09E435FEACC3C00D51E4329
:101C20003E60521C102AFFF431AFBDE8F88F00006F
:101C3000083C0140443802400030014000000240AE
:101C40000004024000080240000C02400010024064
:101C50000069084000D0012070470AB181617047D7
:101C60000904FBE70148806870470000B0020020CB
:101C700070B5040025D094F83D00002520B984F803
:101C80003C50204600F03EFA242084F83D002068B5
:101C9000016821F0010101602068016841F4004100
:101CA00001602068016821F40041016000F092FBAE
:101CB0004D4A6168914201D84C4900E04C49884244
:101CC00001D2012070BD4B492368B0FBF1F15E6881
:101CD00026F03F060E435E606368934206D94FF4D8
:101CE000967359434FF47A73B1FBF3F12368491C9F
:101CF0001E6A26F03F06314319626168914210D88E
:101D00004900401EB0FBF1F2521CC2F30B02042A40
:101D100001D2042022E0B0FBF1F0401CC0F30B0024
:101D20001CE0A268F2B301EBC10303EB0116431EF2
:101D3000B3FBF6F35B1C43F480431B0549D092B31D
:101D400001EBC10202EB0111401EB0FBF1F0401C9F
:101D5000C0F30B0040F4804040F400402168CA69A1
:101D60004CF6FF739A431043C861D4E9071001434E
:101D70002068026822F0C00211430160D4E9030127
:101D800001432068826848F2FF339A43114381601F
:101D9000D4E9050108432168CA6822F0FF02104314
:101DA000C86001E00EE016E02068016841F0010122
:101DB00001602564202084F83D00256384F83E50AE
:101DC000002070BD01EB4106431EB3FBF6F35B1C24
:101DD000B3E70120C2E701EB4101401EB0FBF1F087
:101DE000401CC0F30B00B7E7A086010080841E00F2
:101DF00000093D0040420F002DE9F84F1F46904674
:101E00008A460446DDF82890FFF72CFF054694F833
:101E10003D00202875D1192301226C4920460095E8
:101E200002F0A6F90028F5D194F83C00012868D00A
:101E3000012084F83C0020680168C90703D10168CB
:101E400041F0010101602068016821F40061016036
:101E5000222084F83D00102084F83E0000262664ED
:101E6000C4F824806785608D20855948E0622B4640
:101E70004A465146204602F091F8002878D1208D3C
:101E8000544F68B1012814D002282068016816D088
:101E900041F480610160206841698069009087E0B9
:101EA0002068416981690091016841F40071016015
:101EB0007EE02068016821F480610160F0E721F490
:101EC000806101602068016841F40061E2E7032855
:101ED00048D801280AD0022814D04B46002239469F
:101EE0002046009502F044F9D8BB27E02A4649462F
:101EF000204602F0BCF9A0BB20680069616A087046
:101F00004DE061E04B46002239462046009502F044
:101F10002FF930BB2068016841F40071016020682E
:101F20000069616A0870606A401C6062218D491E08
:101F30002185618D491E618521682EE02068016838
:101F400021F48061016020680069616A0870606A3C
:101F5000401C6062208D401E2085608D401E608583
:101F6000D0E705E02A464946204602F080F910B144
:101F70000120BDE8F88F20680069616A0870606A16
:101F8000401C6062218D491E2185618D491E61853D
:101F900021684A69D24352070AD409690170606A0C
:101FA000401C6062208D401E2085608D401E608533
:101FB000208D00288BD1202084F83D0084F83E60DD
:101FC00084F83C600020D4E70220D2E70200100031
:101FD0000000FFFF040001002DE9F84F1F46904666
:101FE0008A460446DDF82890FFF73CFE054694F843
:101FF0003D0020287FD11923012240492046009529
:1020000002F0B6F8002876D194F83C00012872D08E
:10201000012084F83C0020680168C90703D10168E9
:1020200041F0010101602068016821F40061016054
:10203000212084F83D00102084F83E00002626640C
:10204000C4F824806785608D20852D48E0622B468A
:102050004A465146204602F017F890B92068416977
:102060008069009036E02A464946204602F032F95F
:1020700050B1206C042804D12068016841F400713B
:1020800001600120BDE8F88F606A2168007808616E
:10209000606A401C6062618D491E6185218D491E08
:1020A00089B2218522685369DB435B070BD451B1A8
:1020B00000781061606A401C6062608D401E60851F
:1020C000208D401E20852A464946204602F02AF8E7
:1020D0000028CED1208D0028C5D154F83D0B0168D1
:1020E00041F400710160202004F81E09E67766774C
:1020F0000020C7E7FFE70220C4E70000020010004D
:102100000000FFFF10B586B0044614216846FEF7B4
:1021100099F813492068884220D11248016841F09B
:10212000020101600068694600F002000590C020CD
:1021300000901220019001200290032003900420BF
:1021400004900948FFF794FC06481030016841F4F8
:1021500000110160006800F40010059006B010BD89
:1021600000540040303802400004024002488168B8
:102170000278114481607047B00200200B4810B50E
:10218000016841F400710160016841F480610160FF
:10219000016841F480710160032000F06FF80020B5
:1021A00000F006F800F024F8002010BD003C0240CA
:1021B00070B50D4D04464FF47A712878B1FBF0F0FC
:1021C0000A490968B1FBF0F001F04FFA48B9102C48
:1021D00007D200222146501E00F030F800206C602B
:1021E00070BD012070BD0000B0020020BC020020C4
:1021F0000A4808B5016841F480410160006800F4B4
:10220000804000900548001F016841F08051016046
:10221000006800F08050009008BD00004438024083
:10222000002809DB00F01F020121914040098000D5
:1022300000F1E020C0F8001170470000F0B40E4B30
:102240001B680C46C3F30223C3F10705042D00D914
:102250000425191D072901D2002300E0DB1E0126F9
:1022600006FA05F1491E214099409E40761E16400F
:102270003143F0BC05F0D2B90CED00E0064900F0A6
:10228000070208684FF6FF03184040EA0220034A9D
:1022900010430860704700000CED00E00000FA05F4
:1022A0002DE9F0470E46050065D0DFF81481D8F817
:1022B0000000F7B200F00700B04207D288F80070C3
:1022C000D8F8000000F00700B04254D128683D4C17
:1022D000810712D5400703D5206840F4E050206004
:1022E0002878000703D5206840F46040206020680B
:1022F000A96820F0F000084320602878C0072DD09E
:10230000304968680839012812D0022813D0032800
:1023100011D00968890700292DDA216821F003010D
:1023200001432160FFF79EFC814641F2883A0EE0AE
:1023300009688903EFE709688901ECE7FFF792FC78
:10234000A0EB0901514502D90320BDE8F0872068C0
:10235000696800F00C00B0EB810FEFD1D8F80010E5
:10236000404601F00701B14207D90770006800F04C
:102370000700B04201D00120E7E72878400705D5E3
:102380002068E96820F4E0500843206028780007BE
:1023900006D52068296920F4604040EAC100206029
:1023A00000F038F82168084AC1F30311515CC840B5
:1023B0000649086006480068FFF7FAFE0020C4E7F7
:1023C000003C02400838024010D90408BC0200203A
:1023D000B40200200448054900680968044AC1F3B2
:1023E0008221515CC8407047BC020020083802407E
:1023F00020D904080448054900680968044AC1F363
:102400004231515CC8407047BC020020083802408D
:1024100020D90408154810B5006810F00C021448C3
:1024200013D01449042A0FD0082A0ED10F4C241FB0
:102430002268236802F03F025B0207D52068C0F3E0
:102440008810A0FB010106E0084610BD2168C1F319
:102450008811A1FB00010023FDF7BCFE2168C1F338
:102460000141491C4900B0FBF1F010BD08380240A1
:102470000024F400001BB7002DE9F84F04006ED0D3
:102480002078DFF84C93C007A9F104054AD009F180
:1024900004000168C1F38101012908D00068C0F37C
:1024A000810002280AD1D9F80000400206D5286828
:1024B000800337D560680028E1D033E06068B0F56C
:1024C000803F10D0B0F5A02F286810D020F48030C5
:1024D0002860286820F4802028606068A8B1FFF791
:1024E000C1FB06460DE0286840F48030F4E740F474
:1024F00080202860F7E700BFFFF7B4FB801B64284B
:1025000073D828688003F7D50CE0FFF7ABFB0646CD
:1025100005E000BFFFF7A6FB801B6428F0D8286801
:102520008003F7D42078DFF8AC8280074FF0000AF0
:102530003ED5A748001D016811F00C0F08D00068B7
:10254000C0F3810002280BD1D9F80000400207D463
:102550002868800716D5E068012800D112E033E131
:10256000E068B8B10120C8F80000FFF77BFB064621
:1025700005E000BFFFF776FB801B0228C0D8286863
:102580008007F7D52868216920F0F80040EAC100EB
:1025900028600DE0C8F800A0FFF764FB064604E0E1
:1025A000FFF760FB801B02281FD828688007F7D43C
:1025B0002078000722D5864F87486169703771B14E
:1025C00001210160FFF74EFB064604E0FFF74AFBDE
:1025D000801B022809D838688007F7D50EE0C0F8BC
:1025E00000A0FFF73FFB064605E082E0FFF73AFB5D
:1025F000801B02287DD838688007F7D420784007F0
:1026000068D5DFF8CCB100270BF13C0BDBF80000FC
:10261000C0000BD4DBF8001041F08051CBF8001063
:10262000DBF80000012700F0805000906B4E30680E
:10263000C00510D4306840F480703060FFF712FBA2
:10264000009005E0FFF70EFB0099401A022850D8D1
:102650003068C005F6D55E4EA0686C3601280FD0F4
:102660000528306810D020F001003060306820F07C
:1026700004003060A068B8B1FFF7F4FA00900FE0F2
:10268000306840F00100F4E740F004003060F7E704
:10269000FFF7E8FA0099411A41F28830814266D882
:1026A00030688007F4D50EE0FFF7DCFA009007E011
:1026B000FFF7D8FA0099411A41F28830814256D882
:1026C00030688007F4D42FB1DBF8001021F080517E
:1026D000CBF80010A069C8B33D49091D0968C1F3D2
:1026E000810102294AD00228504607D0C8F860006C
:1026F00000E03CE0FFF7B6FA04463BE04746C8F886
:102700006000FFF7AFFA064605E000BFFFF7AAFA40
:10271000801B02282BD828688001F7D4D4E9070150
:102720000843A16A2E4A490802EB0141626A41EA64
:102730008211084394F82C1040EA0161C9F8001096
:1027400001203866FFF78EFA044606E03EE000BF3F
:10275000FFF788FA001B022809D828688001F7D5FE
:1027600034E000BFFFF77EFA001B022802D90320E5
:10277000BDE8F88F28688001F4D427E00128F7D05D
:10278000D9F80000E26900F4800191421CD1226A6C
:1027900000F03F01914217D147F6C071626A0140D3
:1027A000B1EB821F10D1A26A4FF0FF3300F4403129
:1027B00003EB5202B1EB024F06D194F82C1000F05B
:1027C0007060B0EB016F01D00120D1E70020CFE7AE
:1027D0000438024000004742800E4742007000402B
:1027E0000000FFFF10B5FEF7C9FA10BD2DE9FE434A
:1027F0000446002603200D4684F83400606C03284C
:102800005ED0B5F5805F5BD04FF4006700204FF0DD
:102810008068BD421FD18146009001900021206850
:1028200002F0CCFA800113D46946204602F0BAFEC9
:1028300007000DD10198400334D5B4F850000104CD
:10284000206802F0F3FA070002D10221206823E099
:10285000A06B384328E01DB1A06B40F0006023E07E
:102860008146009001900021206802F0A7FA8001C3
:10287000EED46946204602F095FE0700E8D10198A3
:10288000C0030FD5B4F850000104206802F0CEFA5E
:102890000700DDD10021206802F015FB0700D7D129
:1028A0004F46D5E74746D3E7A063A06B144F4FF0E0
:1028B000010848B12068876384F8348001260EE05F
:1028C000A06B40F08050EFE7211DD4E9050C0EC944
:1028D000CDE90050CDF808C0206802F079FA4FF435
:1028E0000071206802F0D6FA28B121688F63A16BCD
:1028F0000143A163012684F834803046BDE8FE839D
:10290000FF05400070470000F0B5426E920F0A705C
:10291000426EC2F383624A70426EC2F301628A70F1
:10292000426E120CCA70B0F86420120A0A7190F854
:1029300064204A71826E120DCA80826EC2F3034215
:102940000A72B0F86820C2F3C0324A72B0F8682048
:10295000C2F380328A72B0F86820C2F34032CA7281
:10296000B0F86820C2F300320A7300264E73426C3E
:102970004FF40075012462B1012A3AD00268474938
:102980009163816B41F08051816380F83440012074
:10299000F0BDB0F86820C36E9205120D42EA937242
:1029A0000A61C26EC2F3C2620A75C26EC2F30262EB
:1029B0004A75C26EC2F342528A75C26EC2F3824237
:1029C000CA75C26EC2F3C2320A760A69521C4265E7
:1029D0000B7E03F007039B1C9A4042650B7A03F0C1
:1029E0000F0704FA07F383655B0A5A43C0E917250A
:1029F0000EE090F86820C36E9206920A42EA1342F3
:102A00000A610A69521C92024265C0E916520566C3
:102A100030F86C2FC2F3803201F8192F0288C2F30C
:102A2000C6124A70027802F07F028A704268D20FA2
:102A3000CA704268C2F341720A714268C2F382628C
:102A40004A714268C2F383528A714268C2F34052AB
:102A5000CA710E724268C2F300424A728288C2F39F
:102A6000C0328A728288C2F38032CA728288C2F30C
:102A700040320A738288C2F300324A738288C2F3FA
:102A800081228A738288C2F30122CA730079C0F35B
:102A9000460008744C740020F0BD0000FF054000A3
:102AA000426C0A60826C4A60C26C8A60026DCA60C5
:102AB000426D0A61826D4A61C26D8A61006EC861B1
:102AC0000020704770B50446B0F85000002501049E
:102AD000206802F0E0FA18B1A16B0143A16304E0A1
:102AE0000021206802F06AF90546C5F3432070BD55
:102AF000F8B5056B04460068416B09041BD529072E
:102B000019D5D4E90A56002E14D00027206802F007
:102B100075F905F8010B010A05F8011B010C05F810
:102B2000021B000E361F7F1C05F8010C082FEDD389
:102B3000C4E90A56F8BD416B4FF00006C9054FF0D5
:102B4000010744D5390281632068C16B4CF23A32E7
:102B50009143C1632068C16A21F00101C162280765
:102B60001DD515F0220F09D0206802F0C5FA28B152
:102B7000A16B0143A1632046FFF7C4FE216840F228
:102B80003A50886384F834702663A80703D020463F
:102B900000F06EFAF8BD204600F06EFAF8BD280687
:102BA000FCD5A80609D5206802F0A6FA28B1A16BC9
:102BB0000143A1632046FFF7A5FEA807EED12068D8
:102BC000C16A21F00801C16284F83470E3E7416B07
:102BD000490424D5290722D5D4E90856002EDDD092
:102BE0005FF0000715F8010B009015F8011B361F68
:102BF00040EA0120009015F8021B40EA01400090D5
:102C000015F8011C40EA016000906946206802F056
:102C100008F97F1C082FE5D3C4E90856F8BD416BBD
:102C200040F23A221142F9D0416B890703D5A16BDA
:102C300041F00201A163416B090703D5A16B41F08B
:102C40000801A163416B890603D5A16B41F0200106
:102C5000A163416BC90603D5A16B41F01001A163CB
:102C6000416B890503D5A16B41F00801A16340F2D6
:102C70003A7181632068C16B40F23A329143C1637B
:102C8000206802F039FAA16B0843A063280706D533
:102C900084F8347026632046FFF734FEF8BD28061A
:102CA000FCD515F0300F0CD0E16B11480865E06BD6
:102CB000FEF746FD0028F1D0E06BBDE8F84002F0D9
:102CC0004FBCA8070CD0216C0A480865206CFEF7A1
:102CD00037FD0028E2D0206CBDE8F84002F017BCB8
:102CE000A66384F8347026632046FFF77BFDF8BDA9
:102CF000615500080F55000870B504000ED094F817
:102D00003400002518B92577204600F04FF803203D
:102D100084F83400204600F00BF808B1012070BDA3
:102D2000A5632563012084F83400002070BD0000F5
:102D3000FEB50025044676200095CDE901502946D0
:102D40000B460A46206802F043F848BB154E46F889
:102D5000A05F206802F04EF8012535600220FEF7E2
:102D600075FE204602F002FD30B100BF84F83450F9
:102D7000A16B0143A16313E0204602F080FC002810
:102D8000F4D14FF40071206802F084F8002808D0D4
:102D9000226805499163A16B0143A16384F8345013
:102DA0000120FEBD00802542FF0540002DE9F04FC7
:102DB00087B0054614216846FDF744FA5B49286848
:102DC00088427DD15A480068594940F40060086043
:102DD000086800F4006005905548143800685449AC
:102DE00040F0020014390860086800F00200059005
:102DF000086840F004000860086800F004000590CE
:102E0000086840F001000860086800F001000590C3
:102E10000846006840F0080008600868022400F0D6
:102E2000080005904FF40040CDE9000402AA0020FC
:102E300003260C2782E8C10069463E48FEF718FECB
:102E40004FF43060CDE9000402AA002082E8C100FE
:102E500069463948FEF70CFE2002CDE9000402AABB
:102E6000002082E8C10069463448FEF701FE02AA4C
:102E7000002082E8C1004FF00408CDE900846946D3
:102E80002F48FEF7F5FD304C2E484FF00069C4E99D
:102E9000000900204FF4806AA060C4E9030A4FF4DF
:102EA0008050606180004FF0200BC4E9060B0020C9
:102EB0002062C4E909864FF40006B710204600E0FE
:102EC00030E0C4E90B67FEF71FFD08B1FEF78AF991
:102ED0002C64A5631C4C1B4860344838C4E90009C5
:102EE0004020A06000204FF48051E060C4E904A1BC
:102EF000C4E9080804F12802032082E8C10089001F
:102F0000C4E9061B2046FEF7FFFC08B1FEF76AF98C
:102F1000EC63002211463120A563FFF78FF93120C1
:102F2000FFF77EF907B0BDE8F08F0000002C0140EC
:102F30004438024000040240000802400000024001
:102F4000000C0240A0640240C40800202DE9F047B4
:102F500086B01F460446154639B194F8340001285E
:102F600007D0022006B0BDE8F087A06B40F00060FB
:102F700008E00020A063E36DEA199A4204D9A06B2F
:102F800040F00070A06369E0032284F834202268D6
:102F90008146D0622268D36B40F22A363343D36332
:102FA000236C2F4ADA63236C2E4ADA64226C106594
:102FB000226C9060206C0068026822F0C0020260FF
:102FC00020680A46266C4FEA472800F180014FEA44
:102FD00098033046FEF702FDDFF88CA0012670B1A1
:102FE0002068C16B21F49571C1632168C1F838A0D4
:102FF000A06B40F08040A06384F834602EE01B4852
:103000000660606C012800D06D024FF0FF30CDE902
:1030100000089020029002200596CDE90309694638
:10302000206801F0B5FE012F06D9822020632946D1
:10303000206801F0A1FF05E0812020632946206877
:1030400001F0B3FF00288DD02268C2F838A0A16B30
:103050000143A16384F83460C4F83090012081E713
:10306000CD54000869540008FF0540008C852542B6
:1030700010B5FDF7CBFE10BD10B5FDF7DBFE10BDA2
:103080002DE9F04F5FEA010B87B01E46044611465A
:1030900007D094F83400012807D0022007B0BDE81B
:1030A000F08FA06B40F0006008E00025A563E26DA2
:1030B0008819904204D9A06B40F00070A06356E0DC
:1030C000032084F834002068C5622068C26B40F297
:1030D0001A2942EA0902C263E26B2D48D063E26B0F
:1030E0002C48D064E06B0565606C012800D0490273
:1030F0004FF09008012E05D9A0202063206802F02F
:1031000015F804E0C4F83080206802F028F8DFF8F1
:1031100088A0012730B12268C2F838A0A16B014312
:10312000A16321E01D480760E16B40208860E06BEF
:103130000068016821F0C00141F04001016022688F
:103140007602B30859468032E06BFEF747FC80B147
:103150002068C16B21EA0901C1632168C1F838A068
:10316000A06B40F08040A06384F834702563012098
:1031700094E74FF0FF30CDE90006CDE90285CDE9B7
:1031800004576946206801F003FE002086E700002E
:103190005355000869540008FF0540008C852542FE
:1031A0007047000038B5016804464A688868C04323
:1031B000430606D5C30704D1D3435B0601D4216C73
:1031C00005E0830708D4D3431B0605D4616C01B026
:1031D0002046BDE830400847830603D5430601D5A5
:1031E000C30551D4D3439B064ED443060AD494F866
:1031F0005130032B49D0636D43F004036365CB6802
:103200008B680093830609D4636D43F00103636503
:103210008B6800930B6823F040030B60C00506D455
:10322000606D40F008006065206880680090606D07
:10323000002829D02068416821F0E0014160012088
:1032400084F85100900701D4D00722D0206841684B
:1032500021F003014160114DE06C40B10565E06C67
:10326000FEF76EFA18B1606D40F040006065A06C2A
:10327000002809D00565A06CFEF762FA002803D08B
:10328000606D40F04000606538BDC8688868009097
:1032900038BD2046FFF784FF38BD0000BD5C000844
:1032A00070B5040009D0606A002540B125616561F0
:1032B000A56294F8510040B10CE0012070BD606837
:1032C000B0F5827FF4D0E561F2E784F850502046F3
:1032D00000F044F8022084F851002068016821F0D1
:1032E00040010160A088218900F4827001F404414A
:1032F0000843A18901F400610843217C01F0020127
:103300000843217D01F001010843218B01F4007184
:103310000843217F01F03801084394F8201001F0A0
:1033200080010843218D01F40051084321680860A1
:10333000A069042101EA104094F8241001F0100162
:103340000843216848602068C16921F40061C161B7
:103350006565012084F85100002070BD70B586B00D
:10336000064614216846FCF76DFF24493068884200
:1033700042D123480025016841F480510160006872
:1033800000F4805005901E481438016841F0010196
:1033900001600068694600F001000590E02000909F
:1033A0000220CDE901050320039005200490154873
:1033B000FEF75EFB154C144820604FF080606060A3
:1033C0004020C4E902050001C4E904054FF440307F
:1033D000A561C4E9075020466562FEF795FA08B179
:1033E000FDF700FFB464002211462320A663FEF718
:1033F00025FF2320FEF714FF06B070BD003001400A
:10340000443802400000024040640240DC090020D1
:103410002DE9F84F044690F8500000271D46164647
:10342000894601280DD04FF0010B84F850B0FEF70B
:1034300019FC804694F85100BA46012804D00227AE
:1034400093E00220BDE8F88FB9F1000F73D0002E91
:1034500071D0032084F85100C4F854A0C4F830900F
:10346000A686E686C4F838A0A4F83CA0A4F83EA03E
:10347000C4F844A0C4F840A0A068B0F5004F09D13A
:103480002068016821F0400101602068016841F472
:103490008041016020680168490603D4016841F059
:1034A00040010160E068B0F5006F606803D030B3A0
:1034B000012E24D041E008B1012E1CD1206B2168DF
:1034C0000088C86006E020688168890709D5216BFB
:1034D0000988C160206B801C2063E08E401EE0865E
:1034E00009E0FEF7BFFBA0EB0800A84202D3681C6E
:1034F00001D031E07DB3E08E0028E4D120E0206BE4
:1035000021680078087306E020688168890709D57A
:10351000216B09780173206B401C2063E08E401EF4
:10352000E0860AE0FEF79EFBA0EB0800A84203D36A
:10353000681C02D010E017E06DB1E08E0028E3D1E6
:1035400042462946204602F009FC08B12020606569
:10355000A06818B106E0FFE7032706E02068C1680D
:1035600080680090606D00B1012784F851B084F844
:1035700050A0384666E700002DE9F041044690F877
:1035800050000026012809D0012784F8507094F8D3
:1035900051000025012804D002264EE00220BDE89B
:1035A000F08189B182B1032084F8510065652163FF
:1035B000A286E286A56365642564A587E587A06881
:1035C000B0F5004F02D00BE0012636E0206801681C
:1035D00021F0400101602068016841F480410160F0
:1035E000A16C18480864A16C1748C863A16C1748FF
:1035F000C864A06C0565E38E2268216B0C32A06C58
:10360000FEF7ECF938B1606D40F0100060650126FE
:1036100084F8517011E020680168490603D40168FC
:1036200041F0400101602068416841F020014160A3
:103630002068416841F00201416084F850503046F2
:10364000ADE70000EF5C0008F95C0008CD5C000805
:103650000349884203D10348006815F055BC704700
:103660008409002088010020704710B5401EB0F189
:10367000807F01D3012010BD4FF0E02460610F2155
:10368000601703F0CBFF0020A0610720206100201D
:1036900010BD70477047000070B590F83C20012ABB
:1036A0002CD0012480F83C40022280F83D200368A1
:1036B0005A689D6822F070060A6832435A60104BBF
:1036C00002689A420ED0B2F1804F0BD00D4B9A4255
:1036D00008D00D4B9A4205D00C4B9A4202D00C4BAD
:1036E0009A4204D1496825F080031943916080F81B
:1036F0003D40002180F83C10084670BD022070BD9E
:10370000000001400004004000080040000C0040A0
:103710000040014010B5040003D094F83D0010B102
:1037200007E0012010BD002084F83C00204600F096
:103730001FF8022084F83D00211D206802F0C8FC1B
:10374000012084F8460084F83E0084F83F0084F8A5
:10375000400084F8410084F8420084F8430084F873
:10376000440084F8450084F83D00002010BD0000AE
:1037700008B501681748814212D11748016841F025
:10378000010101600068002200F001000090114674
:103790001920FEF753FDBDE808401920FEF740BD93
:1037A0000D480E4A001F914207D1016841F0020105
:1037B0000160006800F0020009E0094A914207D167
:1037C000016841F008010160006800F00800009005
:1037D00008BD0000000001404438024000040040E1
:1037E000000C004090F83D10012901D001207047E5
:1037F000022180F83D100168CA6842F00102CA60E7
:1038000000680E4988420ED0B0F1804F0BD00C49B1
:10381000884208D00B49884205D00B49884202D023
:103820000A49884204D1816801F00701062903D0C2
:10383000016841F001010160002070470000014073
:103840000004004000080040000C0040004001401F
:1038500070B5044690F83C000025012817D00126D9
:1038600084F83C60022084F83D002068826822F0E1
:10387000770222F47F4282600868502838D00DDC3D
:1038800020284FD005DC90B3102811D14AE0022047
:1038900070BD302846D040280AD13BE060282FD0A8
:1038A00070280DD0B0F5805F03D0B0F5005F12D066
:1038B000012584F83D60002084F83C00284670BD56
:1038C000CB68D1E90121206802F05BFC20688168A7
:1038D00041F0770109E0CB68D1E90121206802F0CD
:1038E00050FC2068816841F480418160E1E719E083
:1038F000CA684968206802F0F9FC5021206806E097
:10390000CA684968206802F002FD6021206802F060
:1039100042FCCEE7CA684968206802F0E7FC402113
:103920002068F4E7226801461046F0E7704770B55A
:103930000446006801694FF00005C943890715D4A2
:10394000C168C943890711D4E91E016101202077AC
:10395000206880698007204602D0FFF7E7FF04E077
:1039600000F0D6F8204600F068F925772068016954
:10397000C943490717D4C168C943490713D46FF035
:1039800004010161022020772068806910F4407FE3
:10399000204602D0FFF7CAFF04E000F0B9F8204645
:1039A00000F04BF9257720680169C943090716D44F
:1039B000C168C943090712D46FF0080101610420EE
:1039C00020772068C0698007204602D0FFF7AEFF4D
:1039D00004E000F09DF8204600F02FF925772068DC
:1039E0000169C943C90617D4C168C943C90613D4BC
:1039F0006FF010010161082020772068C06910F481
:103A0000407F204602D0FFF791FF04E000F080F8ED
:103A1000204600F012F9257720680169C943C907DB
:103A200008D1C168C943C90704D1891E0161204674
:103A300000F094F920680169C943090609D4C168F6
:103A4000C943090605D46FF0800101612046FFF7E4
:103A500020FE20680169C943490609D4C168C943E9
:103A6000490605D46FF040010161204600F088F955
:103A700020680169C94389060BD4C168C943890616
:103A800007D46FF0200101612046BDE87040FFF7C8
:103A900001BE70BD10B586B0044614216846FCF71F
:103AA000D1FB2368154C0021154A0220A3420FD1F7
:103AB000136843F002031360126802F002020592D9
:103AC0000090CDE90101CDE9031069460D4811E0F0
:103AD0000D4CA34210D1136843F001031360126828
:103AE00002F0010205920090CDE90101CDE9031039
:103AF00069460648FDF7BCFF06B010BD0004004053
:103B00003038024000040240000C00400000024037
:103B1000704770B5044690F83C0000260D46012819
:103B20000FD0012084F83C006AB1042A1DD0082A75
:103B30002FD00C2A3FD00126002084F83C003046CC
:103B400070BD022070BD206802F02EFB20688169E4
:103B500041F0080181612068816921F004018161DF
:103B6000206881692A69114311E0206802F044FB52
:103B70002068816941F4006181612068816921F4D4
:103B800080618161206881692A6941EA022181613D
:103B9000D2E7206802F05CFB2068C16941F00801AF
:103BA000C1612068C16921F00401C1612068C16957
:103BB0002A69114311E0206802F076FB2068C16990
:103BC00041F40061C1612068C16921F48061C16173
:103BD0002068C1692A6941EA0221C161ACE710B5D8
:103BE000040003D094F83D0010B107E0012010BD9F
:103BF000002084F83C00204600F01EF8022084F8E3
:103C00003D00211D206802F063FA012084F846007F
:103C100084F83E0084F83F0084F8400084F84100B6
:103C200084F8420084F8430084F8440084F8450096
:103C300084F83D00002010BD7047704710B5044661
:103C4000022249B104290ED0082913D094F841006A
:103C5000012816D0012010BD94F83E000128F9D1AA
:103C600084F83E200FE094F83F000128F2D184F858
:103C70003F2008E094F840000128EBD184F8402070
:103C800001E084F841200122206802F06DFA124917
:103C90002068884203D1426C42F4004242642068AA
:103CA00088420ED0B0F1804F0BD00C49884208D02A
:103CB0000B49884205D00B49884202D00A49884204
:103CC00004D1816801F00701062903D0016841F0A1
:103CD00001010160002010BD00000140000400400F
:103CE00000080040000C00400040014030B5044690
:103CF0000D460068002202F037FA174B41F211110D
:103D000020688A10984209D1036A0B4206D1036ADF
:103D1000134203D1436C23F4004343642068036AD5
:103D20000B4206D1016A114203D1016821F0010161
:103D3000016001203DB1042D08D0082D09D084F880
:103D40004100002030BD84F83E00FAE784F83F00CF
:103D5000F7E784F84000F4E700000140064910B599
:103D6000884207D1054802F09FFBBDE810400120C2
:103D700021F01CB910BD00003C0A0020180C0020E6
:103D8000704770B5040004D094F83D00002510B1D0
:103D900006E0012070BD84F83C50204600F022F877
:103DA000242084F83D002068C16821F40051C160DE
:103DB000204602F089FB2068016921F490410161ED
:103DC0002068416921F02A0141612068C16841F4FD
:103DD0000051C1602564202084F83D0084F83E0035
:103DE000002070BD2DE9F04186B0064614216846DA
:103DF000FCF728FA2B49306888424FD12A48002422
:103E0000016841F020010160006800F02000059089
:103E100025481438016841F00401016000686946D2
:103E200000F004000590C02000900220CDE90104BC
:103E300003200390082004901C48FDF719FE1D4D37
:103E40001B484FF02067E5E8020740204FF48068E8
:103E5000A5E81101174845F81449AC61EC612C62E2
:103E60006C62FDF751FD08B1FDF7BCF97563AE63F7
:103E7000104D0F48603590382860C5E90174C5E9D8
:103E800003486C61AC61EC612C6228466C62FDF702
:103E90003BFD08B1FDF7A6F9B563AE6306B0BDE81A
:103EA000F081000000140140443802400008024044
:103EB000B8640240580B00202DE9F843044690F8FE
:103EC0003D001F4616460D4620284CD1C5B1BEB157
:103ED00094F83C00012846D0012084F83C004FF0C3
:103EE0000008C4F84080212084F83D00FDF7BAFEA8
:103EF000A6848146E684A068B0F5805F03D004E024
:103F00000120BDE8F883206928B12E465FF0000546
:103F100084F83C800EE00026FAE78021204602F07B
:103F200059FBA0B9AEB116F8010B21684860E08CCE
:103F3000401EE084E08C4B464FF0000200970028C2
:103F4000EBD14FF04001204602F044FB30B103209A
:103F5000D7E735F8020BC0F30800E6E7202084F825
:103F60003D000020CDE70220CBE7FEE701684A696B
:103F7000D24352050FD46FF480624A61002140F8A9
:103F8000301F202242738173026942F004020261F1
:103F90000173012070470020704700002DE9F84FA1
:103FA0000446C06A1E4693460D4621680A6842F4DC
:103FB00080620A60082807D0012805D010F5803FEC
:103FC00002D0206B112804D12068016841F480716F
:103FD00001604FF001195B460022494620460096D9
:103FE00000F0C6F84FF4007840B120680068C005C2
:103FF00001D5C4F840800320BDE8F88F2069DFF8C0
:1040000084A0B0F5804F0FD00620216800EAD517B4
:1040100047F0F000086133465A460AF1060120468F
:1040200000F0DAF858BB03E0E8B240F001001CE011
:104030002168E8B2086133465A465146204600F0EE
:10404000CBF8E0B92068416981690091016841F4C9
:10405000807101605B46002249462046009600F0D0
:1040600087F80028C1D147F0F10021680861334684
:104070005A465146204600F0AFF80028BCD0012037
:10408000BAE7000002000100F8B50446C06A1E4607
:104090000D461746082807D0012805D010F5803FA7
:1040A00002D0206B122804D12068016841F480718D
:1040B0000160134600224FF001112046009600F0E7
:1040C00057F840B120680068C00502D54FF4007071
:1040D00020640320F8BD2069B0F5804F0ED0062083
:1040E000216800EAD51040F0F000086133463A46F6
:1040F0000B49204600F070F878B902E005F0FE00A8
:1041000000E0E8B221680861054933463A46891F54
:10411000204600F061F80028DCD00120F8BD000046
:104120000800010070B516460D4604460DE0204615
:10413000FFF71CFF08B1012070BD681C05D0FDF71A
:1041400091FD801BA84207D835B120684069C04363
:104150004007ECD4002070BD002044F8300F20212F
:104160006173A073216941F0200121612073E2E7AE
:104170002DE9F0471E4690460D460446C1F3074719
:10418000DDF8209008E0701C06D0FDF76BFDA0EB79
:104190000900B0420FD876B12068012F18D080698D
:1041A00025EA00000004000C14D000214145EAD0AB
:1041B0000020BDE8F087002044F8300F2021617313
:1041C000A073216941F02001216120730120F0E7F3
:1041D0004069E5E70121E9E72DE9F0479A46914674
:1041E0000E46044600254FF02008C1F3074725E09E
:1041F00020684069C043400514D42068016841F438
:104200000071016021686FF480604861256384F863
:104210003D8084F83E50206C40F00400206484F817
:104220003C501FE0B9F1FF3F08D0FDF71BFDA0EBAC
:104230000A0149450CD8B9F1000F09D02068012FB7
:1042400013D0806926EA00000004000C0BD0CFE7F1
:1042500044F8305F84F80D80A573206940F0200099
:10426000206125730120BDE8F0874069EAE72DE968
:10427000F041002590460E460446202717E040698D
:10428000C043C0060CD454F8301B6FF010004861D6
:1042900044F810596777A577206A2062257717E0E0
:1042A000FDF7E0FCA0EB0800B04208D83EB1206862
:1042B0004169C9434906E2D40020BDE8F08144F8D1
:1042C000305F6773A573206940F02000206125737B
:1042D0000120F2E770B516460D4604460DE0204673
:1042E000FFF744FE08B1012070BD681C05D0FDF742
:1042F000B9FC801BA84207D835B120684069C0438B
:104300000006ECD4002070BD002044F8300F2021BE
:104310006173A073216941F0200121612073E2E7FC
:1043200010B5029C0160828083718460C46010BDFE
:1043300010B50446C068002810D1A07960B10022F1
:10434000A271A1882068FDF788FC04F10C00A16827
:10435000BDE8104001F08BBD0122F1E710BD2DE951
:10436000F04104461D4616460F462A2000F004F987
:10437000204600F0F7F8304600F0F4F82B2000F06B
:10438000FBF8384600F0EEF8284600F0EBF8BDE800
:10439000F0412C2000F0F0B810B5714C0022102133
:1043A0002046FDF75AFC6420FDF750FB0122102146
:1043B0002046FDF752FC6420FDF748FB6420FDF722
:1043C00045FB112000F0D8F87820FDF73FFB3620A0
:1043D00000F0D2F8002000F0E3F83A2000F0CCF82A
:1043E000552000F0DDF8B22000F0C6F81F2000F0E4
:1043F000D7F81F2000F0D4F8002000F0D1F83320C7
:1044000000F0CEF8332000F0CBF8B72000F0B4F87D
:10441000352000F0C5F8BB2000F0AEF82B2000F0EE
:10442000BFF8C02000F0A8F82C2000F0B9F8C22096
:1044300000F0A2F8012000F0B3F8C32000F09CF8CF
:104440000F2000F0ADF8C42000F096F8202000F016
:10445000A7F8C62000F090F8132000F0A1F8D020B3
:1044600000F08AF8A42000F09BF8A12000F098F852
:10447000D62000F081F8A12000F092F8E02000F0B2
:104480007BF8F02000F08CF8042000F089F8072079
:1044900000F086F8042000F083F8042000F080F893
:1044A000042000F07DF8252000F07AF8332000F099
:1044B00077F83C2000F074F8362000F071F81420F2
:1044C00000F06EF8122000F06BF8292000F068F878
:1044D000302000F065F8E12000F04EF8F02000F008
:1044E0005FF8022000F05CF8042000F059F8052085
:1044F00000F056F8052000F053F8212000F050F8A5
:10450000252000F04DF8322000F04AF83B2000F062
:1045100047F8382000F044F8122000F041F8142049
:1045200000F03EF8272000F03BF8312000F038F88A
:10453000E42000F021F81D2000F032F8002000F007
:104540002FF8002000F02CF8212000F015F8292089
:1045500000F012F8BDE810402C2000F00DB800006B
:104560000008024010B50446000A00F019F8E0B255
:10457000BDE8104000F014B870B5084C05460022A4
:1045800001212046FDF769FB284600F009F8204686
:10459000BDE8704001221146FDF75FBB00040240F8
:1045A00001B54FF4FA73012269460248FEF730FF65
:1045B00008BD00008409002070B50D4604460122A4
:1045C00011460548FDF749FBAAB22146BDE87040F7
:1045D0000248FEF7D1BF0000000402408409002019
:1045E00010B5002203781DE000EB820464688C4261
:1045F00016D100EB82030021596003785B1E037023
:1046000006E000BF00EB8203521C9C68D2B25C60E3
:1046100003789342F6D800EB82004160012010BD80
:10462000521CD2B29342DFD8002010BD026000229B
:104630008280C280027282814281016141610621D1
:104640000176704770B50446406980BB207E09251D
:104650000326801F072830D2DFE800F004132A1554
:104660001C2F26002046FCF717FA207A012802D0DA
:10467000022803D021E0257626721EE0082020764D
:104680001BE0257619E06421204600F013FBA08092
:104690000A20F4E76421204600F038FBE0800C207B
:1046A00020760520207208E0FCF7CAFBE3E709E06A
:1046B0000620207604A002F08DFF04F11400216989
:1046C00001F0D5FB207A70BD4465627567203A2001
:1046D0006572726F723A4D4158313730343820B2BA
:1046E000BBD4DACFDF0D0A007FB500211B48009153
:1046F00001910291184A0391026001244FF4403263
:104700000461C0E90121047680F82010144AC0E950
:104710000A210225C561C16080F830404461FCF780
:1047200006FF08B1FCF75EFD07200095CDE90140CA
:1047300069460A48FCF746FE08B1FCF753FD032022
:10474000CDE9000569460548FCF73CFE002801D08C
:10475000FCF748FD7FBD0000002001404407002019
:104760000100000F1D4808B5016841F48001016097
:104770000068002200F48000009011463820FDF708
:104780005DFD3820FDF74CFD002211463920FDF774
:1047900055FD3920FDF744FD002211463A20FDF772
:1047A0004DFD3A20FDF73CFD002211463B20FDF770
:1047B00045FD3B20FDF734FD002211464520FDF765
:1047C0003DFD4520FDF72CFD002211464620FDF75A
:1047D00035FDBDE808404620FDF722BD30380240D7
:1047E00010B504490448FCF7FFFC0249491E087053
:1047F00010BD0000CD02002028D904082DE9F043A7
:1048000087B014216846FBF71DFD36480024016877
:1048100041F080010160016801F0800105910168AB
:1048200041F004010160016801F004010591016893
:1048300041F001010160016801F001010591016889
:1048400041F002010160016801F002010591016877
:1048500041F0080101600068234F00F00800059056
:10486000002211213846FDF7F8F9DFF88080002298
:1048700010214046FDF7F1F9DFF874900022012184
:104880004846FDF7EAF90E2001258DE8310069461A
:104890004046FDF7EDF811200326CDE90005CDE9EE
:1048A000024669463846FDF7E3F81020CDE90005D9
:1048B000CDE9024669464046FDF7DAF803960095D1
:1048C000CDE9015469464846FDF7D2F80420CDE908
:1048D0000004694648460294FDF7CAF807B0BDE8EF
:1048E000F08300003038024000000240000802401F
:1048F000000402400D4810B50B4901600C494160AD
:1049000000214FF480428160C0E90312416181615E
:10491000C1610162FDF7ACF9002803D0BDE8104089
:10492000FCF760BC10BD000000540040EC07002004
:10493000A0860100064805490160002141608160B0
:10494000C16001614161816170470000002C01403C
:1049500040080020104810B50E4901604FF48271E4
:104960004160002102228160C0E9031201224261FC
:104970005202C0E906210162416281620A21C162DC
:10498000FEF78EFC002803D0BDE81040FCF72ABCDF
:1049900010BD0000003001408409002010B586B031
:1049A0000024184800940194029403940494144938
:1049B000059401606321C0E9011440F2E731C0E9C8
:1049C00003148021C0E90541FEF7A4FE08B1FCF7FD
:1049D00009FC4FF48050009069460A48FEF738FF02
:1049E00008B1FCF7FFFB049404A906480594FEF700
:1049F00053FE002801D0FCF7F5FB06B010BD000007
:104A0000000001403C0A002010B58EB0002407943D
:104A1000089409940A940B941C2168460C94FBF7A3
:104A200011FC1F481D4901600521C0E901146421E2
:104A3000C0E9031480218161FEF76CFE08B1FCF728
:104A4000D1FB4FF48050079007A91548FEF700FFEF
:104A500008B1FCF7C7FB1248FFF7C1F808B1FCF733
:104A6000C1FB0B940BA90E480C94FEF715FE08B180
:104A7000FCF7B8FB602000903220CDE901040C2245
:104A8000694607480494FFF744F808B1FCF7AAFB0D
:104A90000348FEF7FFFF0EB010BD00000004004009
:104AA000840A002010B58EB000240794089409945D
:104AB0000A940B941C2168460C94FBF7C3FB204816
:104AC0001E4901600A21C0E9011440F6C411C0E981
:104AD000031480218161FEF71DFE08B1FCF782FB03
:104AE0004FF48050079007A91548FEF7B1FE08B1B2
:104AF000FCF778FB1248FFF772F808B1FCF772FB7D
:104B00000B940BA90E480C94FEF7C6FD08B1FCF7F8
:104B100069FB6020009040F2E240CDE901040422EC
:104B2000694607480494FEF7F4FF08B1FCF75AFB06
:104B30000348FEF7AFFF0EB010BD0000000C0040B0
:104B4000CC0A00200C4810B50A4901604FF4E1314D
:104B50004160002181600C22C160C0E904128161C2
:104B6000C161FFF70EF9002803D0BDE81040FCF743
:104B700039BB10BD00140140140B00202DE9FF418A
:104B800004460020019002900390100A8DF8040062
:104B90000A9E8DF805204FF47A771D4600978846C7
:104BA000022301AA2068FDF717FA40B9009733469F
:104BB0002A4641462068FDF71FF9002800D0012051
:104BC00004B0BDE8F08138B54FF47A740094006900
:104BD000FDF712F9002800D0012038BD2DE9FF4172
:104BE00000240194160A0A9D8DF80460029403942F
:104BF0008DF8052045B101AA04E01E5D1719641C5B
:104C0000BE70E4B2AC42F8D34FF47A720092AD1C9D
:104C1000EBB2006901AAFDF7DFF9002800D00120FE
:104C200004B0BDE8F081FEE7FEE7704710B5002351
:104C30000C4A052811D2DFE800F00305080C120029
:104C4000142003E05020507006E0962050709370BE
:104C500003E00520507002209070918010BD5370C9
:104C6000F5E70000480000207CB5044610A064254C
:104C700000680323CDE9005001AA6C212068FDF7EC
:104C8000ABF96420FCF7E2FE06208DF8040000205A
:104C90008DF805009DF80600009540F060008DF845
:104CA0000600032301AA6C212068FDF795F97CBD5D
:104CB000FE540000F8B50C46134905460420087060
:104CC00000940A4601236C212868FDF785F940F21B
:104CD0004D1640B90C4A00940223921C6D2128689D
:104CE000FDF78AF808B13046F8BD0748801C4178C6
:104CF000007801EB0020C0F30720642800D964206D
:104D00000149091F0880F8BD52000020F8B50C4683
:104D10001A4905460220087000940A4601236C21B6
:104D20002868FDF759F940F24D1640B9134A00942E
:104D30000223921C6D212868FDF75EF808B1304609
:104D4000F8BD0E480D4C801C241F4178007801EB03
:104D5000002080B2FBF780FB9FED091B53EC112B69
:104D6000FBF799FA9FED081B53EC112BFBF705FBA2
:104D7000FBF77FFB80B26080F8BD0000520000208E
:104D800000000000008853400000000000408F40F9
:104D90000A6842624A688262D1E902231A43D1E971
:104DA00004310B43C16A1A4321F0F7011143C16278
:104DB00000207047006800F0030070470844406915
:104DC000704700000148FDF793BE00004008002036
:104DD00070B50DF1100C11439CE87000234319438A
:104DE00029434268314347F6FF639A430A434260CE
:104DF000002070BD0321016000207047D0F88000C2
:104E000070470A688260D1E901231A43D1E903316E
:104E10000B43C1681A436FF30B011143C1600020BB
:104E200070470968C0F880100020704710B585B041
:104E300004463720CDE90010402002900020039066
:104E40004FF48060049069462046FFF7DAFF41F294
:104E500088323721204600F09BF905B010BD0000D4
:104E600010B504460A4885B001432920CDE9001059
:104E700040200290002003904FF480600490694627
:104E80002046FFF7BEFF204600F03AFA05B010BDFD
:104E90000000108010B585B004461020CDE9001048
:104EA00040200290002003904FF4806004906946F7
:104EB0002046FFF7A6FF41F288321021204600F07D
:104EC00067F905B010BD10B585B004460620CDE9E0
:104ED000001040200290002003904FF48060049066
:104EE00069462046FFF78DFF41F2883206212046B1
:104EF00000F04EF905B010BD30B585B00024054670
:104F0000009401944FF480600294CDE90340694617
:104F10002846FFF776FF0B484FF4FA510068B0FBC4
:104F2000F1F041F288314843401E03D24FF0004077
:104F300005B030BD696B0906F6D5C520A8632046CB
:104F4000F6E70000BC02002010B585B004464FF41F
:104F5000D57000900820019040200290002003901E
:104F60004FF48060049069462046FFF74AFF2046D0
:104F700000F02CFA05B010BD10B585B00446122023
:104F8000CDE9001040200290002003904FF4806093
:104F9000049069462046FFF734FF41F2883212211F
:104FA000204600F0F5F805B010BD10B585B00446F8
:104FB0001120CDE9001040200290002003904FF412
:104FC0008060049069462046FFF71BFF41F288325B
:104FD0001121204600F0DCF805B010BD10B585B0F9
:104FE00004460720CDE900204020029000200390D5
:104FF0004FF48060049069462046FFF702FF41F2BB
:1050000088320721204600F0C3F805B010BD10B566
:1050100085B0044600210220CDE90010C020CDE972
:1050200002014FF48060049069462046FFF7E9FED4
:10503000204600F03DF905B010BD10B585B004461E
:105040000920CDE90010C0200290002003904FF409
:105050008060049069462046FFF7D3FE204600F0AA
:1050600027F905B010BD10B585B0044600213320E6
:10507000CDE900104020CDE902010001049069460D
:105080002046FFF7BEFE41F288323321204600F071
:105090007FF805B010BD10B585B004460D20CDE9F0
:1050A000001040200290002003904FF48060049094
:1050B00069462046FFF7A5FE41F288320D212046C1
:1050C00000F066F805B010BD30B585B00C46054659
:1050D00000210320CDE900104020CDE902010001AC
:1050E000049069462846FFF78CFE22460321284695
:1050F00000F028F905B030BD10B585B00446002198
:105100000C20CDE900104020CDE9020100010490FF
:1051100069462046FFF775FE034A0C21204600F041
:1051200037F805B010BD000000E1F50510B585B0F9
:1051300004461920CDE90010402002900020039081
:105140004FF48060049069462046FFF75AFE41F212
:1051500088321921204600F01BF805B010BD10B5AB
:1051600085B004461820CDE90010402002900020B0
:1051700003904FF48060049069462046FFF741FE9B
:1051800041F288321821204600F002F805B010BD27
:10519000454B10B51B684FF4FA54B3FBF4F353437B
:1051A0005B1E02D24FF0004010BD426B12F0450F63
:1051B000F6D01205F4D4426B520703D50421816363
:1051C000084610BD426BD20702D00121816305E081
:1051D000C52282630269D2B28A4201D0012010BD89
:1051E0000021FFF7EBFD3149084201D1002010BD3D
:1051F000002802DA4FF0007010BD410001D54020B8
:1052000010BD810001D5802010BDC10002D54FF432
:10521000807010BD010102D54FF4007010BD410136
:1052200002D54FF4806010BDC10102D54FF400607B
:1052300010BD010202D54FF4805010BD410202D5CD
:105240004FF4005010BD810202D54FF4804010BDD4
:10525000C10202D54FF4004010BD410302D54FF406
:10526000003010BD810302D54FF4802010BDC10372
:1052700002D54FF4002010BD010402D54FF4801078
:1052800010BD410402D54FF4001010BD810402D5B9
:105290004FF4800010BD000702D54FF4000010BD90
:1052A0004FF4803010BD0000BC02002008E0FFFD7C
:1052B00012494FF4FA520968B1FBF2F141F2883217
:1052C0005143491E02D24FF000407047426B12F02A
:1052D000450FF6D01205F4D4416B490703D50421DC
:1052E000816308467047416BC90703D00121816380
:1052F00008467047C521816300207047BC0200202A
:105300000F494FF4FA520968B1FBF2F141F28832C9
:105310005143491E02D24FF000407047426B12F0D9
:10532000450FF6D01205F4D4416B490703D504218B
:10533000816308467047C5218163002070470000E3
:10534000BC02002030B5204B4FF4FA541B68B3FB6D
:10535000F4F341F2883463435B1E02D24FF0004005
:1053600030BD446B14F0450FF6D02405F4D4436BE4
:105370005B0703D504218163084630BD436BDB071F
:1053800002D00121816303E00369DBB28B4201D0CB
:10539000012030BDC52181630021FFF70FFD10F40E
:1053A000604F04D0410406D54FF4005030BD000CCE
:1053B0001080002030BD000402D54FF4805030BD75
:1053C0004FF4803030BD0000BC02002014494FF47F
:1053D000FA520968B1FBF2F141F288325143491E99
:1053E00002D24FF000407047426B12F0450FF6D0EA
:1053F0001205F4D4416B490703D5042181630846A3
:105400007047416BC90703D001218163084670478B
:10541000416B490601D5402181630020704700009F
:10542000BC02002010B5064C01202070FBF7AEFC3A
:1054300018B9207820F001002070207810BD0000FD
:10544000C002002070B50546FCF70CFC044603E0E2
:10545000FBF79CFC002806D0FCF704FC001BA842CC
:10546000F6D34FF0FF3070BD10B5846BFCF77AF9BE
:10547000022828D0206C416DE06B406D012901D0DD
:1054800001281DD12168104888632068C16B21F470
:105490009D71C163A06B40F08040A0632046FDF782
:1054A00011FB062801D0052805D12068FFF724FE4E
:1054B000A16B0843A063012084F83400002020631E
:1054C0002046FDF71FFA10BDFF05400010B5846BA4
:1054D000206B822809D12068FFF70EFE28B1A16B4E
:1054E0000143A1632046FDF70DFA2068C16A21F04F
:1054F0000801C162216840F23A508863012084F8B3
:105500003400002020632046FDF7B2FD10BD10B529
:10551000846B40F23A50216888632046FDF7D2FA46
:10552000012184F8341000212163062801D00528C8
:1055300005D12068FFF7E0FDA16B0843A063A06BD5
:105540000028204602D0FDF7DDF910BDFDF74AF92D
:1055500010BD806B0068C16B41F48071C1637047FE
:1055600010B5846B40F23A50216888632046FDF7FD
:10557000A9FA012184F8341000212163062801D002
:10558000052805D12068FFF7B7FDA16B0843A0638C
:10559000A06B0028204602D0FDF7B4F910BDFDF73E
:1055A00021F910BD2DE9F04788B00D460446FCF7FF
:1055B00059FB00268246009601963746082120684E
:1055C000FFF768FC002829D1B4F8500001042068D6
:1055D000FFF72CFC002821D1401E4FF00808CDE930
:1055E000020830204FF00209CDE904090120CDE97D
:1055F000067002A92068FFF7CBFB2068FFF733FD98
:1056000000280BD16F462068416B11F02A0F08D09B
:10561000416B09071AD5C0F83880082008B0BDE8EA
:10562000F087416B890205D5FFF7E8FB47F82600B4
:10563000761C02E0416B8904EAD5FCF713FBA0EB72
:105640000A00401CDFD14FF00040E7E7416B8907BB
:1056500003D5C0F838900220E0E7416B890603D5F6
:10566000202181630846D9E740F23A5181630198CD
:1056700000BA2860009800BA68600020CEE710B534
:1056800090B004460120ADF838002068FFF792FB87
:10569000002854D0606C032842D02068FFF7B7FC84
:1056A00000284AD100212068FFF788FB60670421A9
:1056B0002068FFF783FBA06708212068FFF77EFBC7
:1056C000E0670C212068FFF779FBC4F88000606C6C
:1056D000032825D00EA92068FFF7F6FC00282CD15E
:1056E000606C03281CD0BDF83800206501042068D8
:1056F000FFF7A3FC002820D100212068FFF75EFB04
:10570000606604212068FFF759FBA0660821206825
:10571000FFF754FBE0660C212068FFF74FFB206782
:1057200004212068FFF74AFB000DE06403A920462E
:10573000FDF7EAF830B14FF0805010B010BD4FF0D7
:105740008060FAE7B4F85000002302042068FFF7F5
:1057500045FC0028F1D104F1100007C88DE80700CE
:1057600094E80F00FFF734FB0020E6E72DE9F84F3F
:105770000026044600963546B0460068FFF7BCFB9D
:10578000002827D12068FFF7DFFB4FF0805B4FF048
:1057900001094FF6FF7748B1A6642068FFF7ACFB1C
:1057A000002817D1A06C012802D020E0C4F848904E
:1057B00000212068FFF73AFB58B918E00021206863
:1057C000FFF734FB002805D151462068FFF748FB5E
:1057D00010B15846BDE8F88F00212068FFF7EEFAB7
:1057E00005464FEAD0780098401C009002E0DFF8B0
:1057F0002CA00098B84202D2B8F1000FDED0009879
:10580000B84202D34FF08070E4E7680002D5C4F8D4
:10581000449000E066640020DCE70000000010C156
:1058200070B50546FBF7BEFA034C18B92846FFF7DA
:10583000F9FD2070207870BDC002002010B512481C
:1058400088B014460078C00702D0032008B010BD0D
:10585000C1B1012905D0022908D003290CD00420A8
:10586000F4E76846FBF78CFA06980AE06846FBF70F
:1058700087FA0798208005E06846FBF781FA0798C9
:10588000400A20600020E1E7C00200202DE9F0413D
:1058900047F230551C461746884601262846FFF732
:1058A000D1FD002826DB224639464046FBF7A0FA08
:1058B00000BB134C4FF00008C4F80880FCF7D2F985
:1058C0000746A06820B9FCF7CDF9C01BA842F8D361
:1058D000A06828B1C4F80880FCF7C4F9044604E0C5
:1058E000012607E0FBF752FA38B1FCF7BBF9001BC1
:1058F000A842F7D33046BDE8F0810026FAE7000061
:10590000C0020020FFF78EBD2DE9F0471B4C4FF081
:1059100000081F4691468A460126C4F8048047F2D3
:1059200030552846FFF78EFD002821DB3A464946D0
:105930005046FBF771FAD8B9FCF794F9074660684E
:1059400020B9FCF78FF9C01BA842F8D3606828B1D2
:10595000C4F80480FCF786F9044604E0012607E059
:10596000FBF714FA38B1FCF77DF9001BA842F7D316
:105970003046BDE8F0870026FAE70000C0020020AC
:10598000FEB50446002001900290E16A00294BD147
:1059900094F830100B260327891F04F12C050929E0
:1059A00042D2DFE801F005189F269F426E8A9C00D4
:1059B000204600F09DF8207F012802D0022805D063
:1059C00007E0494801F0A4FD072000E0082084F822
:1059D00030000A2150E00090002342F60E02B2216E
:1059E0002046FFF7FBF8092084F830004FF4AF7130
:1059F00042E0032301AAB2212046FFF7E4F860B990
:105A0000022101A8FBF7A3FA9DF80610884204D1F1
:105A1000BDF8040040BAE083277764212846A162DC
:105A200000F025FA84F830605CE0304EB088010A5E
:105A30008DF804108DF80500022101A8FBF787FA04
:105A40008DF80600F0888DF80800010A8DF807101F
:105A500002210DF10700FBF77AFA8DF80900062004
:105A6000009001AB42F20F62B2212046FFF7B6F878
:105A70000C2084F830001E212846A16200F0F7F9BE
:105A800030E0032301AAB2212046FFF79CF858B961
:105A9000022101A8FBF75BFA9DF80610884203D1AA
:105AA000BDF8040040BA606101212846A16200F0FF
:105AB000DEF90D2084F8300014E004F118020A48E1
:105AC000616901F037FD4FF47A712846A16200F058
:105AD000CEF90E2084F830000520207702E084F80B
